:020000040000FA
:10000000804500205D400000FDC600004940000022
:100010004940000049400000494000000000000045
:10002000000000000000000000000000D5410000BA
:1000300049400000000000006D4100004940000000
:10004000C1430000C1430000C1430000C1430000A0
:10005000C1430000C1430000C1430000C143000090
:10006000C1430000C1430000C1430000C143000080
:10007000C1430000C1430000C1430000C143000070
:10008000C1430000C1430000C1430000C143000060
:10009000C1430000C1430000C1430000C143000050
:1000A000C1430000C1430000C1430000C143000040
:1000B000C1430000C1430000C1430000C143000030
:1000C000C1430000C1430000C1430000C143000020
:1000D000C1430000C1430000C1430000C143000010
:1000E000C1430000C1430000C1430000C143000000
:1000F000C1430000C1430000C1430000C1430000F0
:1001000053B94AB9002908BF00281CBF4FF0FF317E
:100110004FF0FF3000F00CB8ADF1080C6DE904CEE3
:1001200000F010F8DDF804E0DDE9022304B07047C8
:10013000704700BF034613F8012B002AFBD1181AA1
:10014000013870472DE9F04786468C460846089EE0
:10015000154674461946002B40F0C2808542B2FA1B
:1001600082F245D94AB1C2F1200300FA02FC2EFA0C
:1001700003F3954043EA0C0C94404FEA154EA8B2A5
:10018000BCFBFEF8230C0EFB18CC08FB00F943EA7D
:100190000C43994528D9EB1808F1FF3704D299454B
:1001A00002D9A8F102072B44A3EB0903A4B2B3FBC5
:1001B000FEFC0EFB1C330CFB00F044EA0344A0429F
:1001C00014D92C190CF1FF3304D2A04202D9ACF19E
:1001D00002032C44241A43EA07401EB1D4400023F2
:1001E00034607360BDE8F0874746DDE76346F1E7BA
:1001F00092BB431B01214FEA154EAFB2B3FBFEFC8D
:10020000200C0EFB1C330CFB07F840EA0343984517
:1002100062D9EB180CF1FF3004D2984502D9ACF149
:1002200002002B44A3EB0803A4B2B3FBFEFC0EFBBD
:100230001C330CFB07F744EA0344A7424ED92C19A0
:100240000CF1FF3304D2A74202D9ACF102032C44D3
:10025000E41B43EA0040C0E7C2F1200320FA03F1A7
:10026000954090402EFA03F303434FEA154EAFB288
:10027000B1FBFEFC0EFB1C10190C0CFB07F841EA4D
:100280000041884504FA02F422D969180CF1FF30C4
:1002900004D2884502D9ACF102002944A1EB08013F
:1002A0009BB2B1FBFEFC0EFB1C110CFB07F743EAF3
:1002B00001439F420ED9EB180CF1FF3104D29F424B
:1002C00002D9ACF102012B44DB1B41EA004192E769
:1002D0006046E3E76146F7E76046A3E76346B7E7B2
:1002E000834206D916B9002108467BE7C6E900E03B
:1002F000F9E7B3FA83F78FB9834201D3724508D87F
:10030000BEEB020460EB030301209C461EB90021F2
:1003100068E73846FAE7C6E9004CF8E7C7F1200C71
:10032000BB4022FA0CF41C432EFA0CF120FA0CF319
:10033000B84001434FEA14490EFA07F5B3FBF9F848
:100340001FFA84FE09FB18300B0C08FB0EFA43EA77
:1003500000439A4502FA07F240D9E31808F1FF304A
:1003600004D29A4502D9A8F102002344A3EB0A0360
:1003700089B2B3FBF9F809FB183308FB0EFE41EA1A
:1003800003418E452CD9611808F1FF3304D28E4504
:1003900002D9A8F10203214443EA0040A0FB0298DD
:1003A000A1EB0E014145CE46434602D306D14D4551
:1003B00004D2B9EB020E68EB04030138002EA6D07C
:1003C000B5EB0E0261EB030101FA0CFC22FA07F314
:1003D0004CEA0303F940C6E9003198E74046C5E717
:1003E0004346D9E770B590B004462FE04022A36899
:1003F0001B69002B50D0694620469847051E4BDBF1
:100400002A46694639480BF0E1FB0646A8424ADB1A
:10041000002E4FD1A368DB6913B120469847A8B1DD
:100420004022694631480BF02CFC0546002845D097
:100430002F4B1B78002B45D1A368DB68002B48D0DD
:100440002A46694620469847A84245DB20460AF0DE
:100450003DFA002847D020460AF02FFA002842D063
:10046000234B1B78002BD5D1A368DB6A1BB1204638
:1004700098470028CED01D49CA694B6849695B1A64
:10048000D21A3F2AB2D8002AB1D120460AF00FFA78
:10049000174B01221A70D9E7164A012116480BF0B2
:1004A000CEFC0025ACE72B1A144A012112480BF0B0
:1004B000D0FCADE720460AF0E8F9ABE720460AF0A9
:1004C000EAF9C3E720460AF0ECF9094B00221A705A
:1004D000B2E76FF05700B7E72B1A094A0121064827
:1004E0000BF0B7FCB2E710B070BD00BFA81200203F
:1004F000DC2B002008F1000004F0000024F10000D3
:1005000034F1000000B583B001AA01210AF0F0F92E
:1005100040B10346074A022107480BF09AFC03B09A
:100520005DF804FB019B054A032103480BF091FC95
:10053000F5E700BF44F1000004F0000068F100009E
:1005400010B582B033480DF02EFDB0B1002002F09E
:10055000A9F9C0B9304B4FF48062DA612F4A1A60B2
:100560000022DA609A605A609A615A611A612C4AD4
:1005700003212C480BF063FC10E02B4A0121294891
:100580000BF05DFC36E0294A012126480BF057FCB0
:1005900030E040F6CD4000210EF00BF9002301932E
:1005A00001AA04211B480AF0A3F9019B002BF0D0FB
:1005B0001F4A03211B480BF042FC01220821154869
:1005C0000AF08DF90346C0B90122102111480AF042
:1005D00086F90346B8B964200AF093F90D4C204619
:1005E000FFF790FF0022134920460AF040F9204609
:1005F0000AF057F9002002B010BD0F4A0221094845
:100600000BF027FCE0E70D4A022106480BF021FC25
:10061000E1E700BF7CED0000A8120020C812002016
:10062000A8F1000004F0000074F1000090F1000057
:10063000B8F10000E5030000C0F10000E0F10000A7
:100640002DE9F04F91B005920293134602F0040297
:100650000092C3F3C20210F00303019340F02B8217
:1006600080468A460132041D00284FD0B8F1000FA1
:1006700005D0A4EB08030433534500F21F82029B0C
:100680005D1E019B04930693039300264FF0FF3BEE
:100690000427B946B8F1000F01D0029B2360531E16
:1006A0000793002A40F35D81059B13F0020228D0D6
:1006B0000120A4EB08018B081AB1B1F5007F80F08E
:1006C000038203990F2900F20282B8F1000F00F0B3
:1006D0006081DBB201F140026A4402F8103C02F88A
:1006E00020BC002800F0518163F07F0301F140023B
:1006F0006A4402F8103C049B01330493039B0133CA
:10070000039304340022CC4640463DE001F0070A42
:100710005444CAF1080AA9E7002634E0002632E072
:10072000002630E00827BC462DE025292BD10BF10F
:10073000010B01260427BC4625E04729EED82A29CB
:1007400014D32A39C9B24FF0010E0EFA01F14FF657
:10075000DA7E11EA0E0F16D111F0625F40F0C08010
:1007600011F0010F40F08C8000260CE0252903D108
:100770000BF1FF3B002606E001D9002603E020290B
:1007800001D02329CCD11D466B1C6978002900F0CB
:100790001981002EC9D07A29BED84C29CDD34C3925
:1007A0002E2961D80FF2040E5EF821F087070000B1
:1007B0006908000069080000690800006908000075
:1007C0006908000069080000690800006908000065
:1007D0006908000069080000690800007908000045
:1007E0006908000069080000690800006908000045
:1007F0006908000069080000690800006908000035
:10080000E10800006908000079080000790800008C
:10081000E1080000E1080000E1080000870700008F
:10082000790800002507000069080000870700001C
:10083000690800003D090000790800003D0900003A
:1008400069080000690800004509000073080000FD
:1008500079080000690800006908000079080000B4
:10086000690800006D08000000268CE70427BC46DC
:1008700089E70427BC4686E729786C2924D000261E
:100880003C44013CB4FBF7F407FB04F420B1211A0B
:100890006144514500F21581002A58D1BCF1040F82
:1008A00000F08880BCF1080F40F014811A990731DC
:1008B00021F0070101F108051A95D1E9008908B175
:1008C000C4E9008908345EE713F8021C6C2903D0E0
:1008D00000260427BC46D3E700260827BC46CFE7FE
:1008E00029784C291AD01A99073121F0070101F112
:1008F00008061A96D1E90067073424F0070440B1CE
:10090000211A0831514513D829784C2913D0C4E94C
:100910000067083400260827BC4634E71A990731D7
:1009200021F0070101F108061A96D1E90067E3E713
:100930006FF01B00BCE0C4E90067EAE7002604276B
:10094000BC469DE7324600260427BC4698E7E146B0
:1009500080461A9A111D1A9112680292079A1D4632
:1009600098E6624B029A9A4204D3614B9A420AD3A8
:10097000002300E00023002B7FF496AE059B03F0DC
:100980000202002095E60123F5E7069B013306935A
:10099000B4E610B10AF1010AB0E6009B13B10AF106
:1009A000020AABE60298FFF7C5FB0AEB000303F16E
:1009B000020AA3E61A990D1D1A95096800B1216073
:1009C0000434E0E68046231AB3F5806F80F085801A
:1009D00090B1002202609B080370009B83B1069BCC
:1009E000C370049B88F802301BBB019DDDF80C909E
:1009F000DDF810B0029F3DE05344A3F1080057E03A
:100A0000069B4370EDE701339842EED903F14002B3
:100A10006A4412F8101C12F9102C002AF3DA01F0C3
:100A20007F01A4EB08020132524559D804F8011B9A
:100A3000E9E7019B0398E7E7009B43B305F1400317
:100A40006B4413F8203C04F8013B019EA4EB08031F
:100A500033440133534546D805F140036B4413F842
:100A6000103C04F8013B3246394620460EF084F82B
:100A700034440135A94519D9BBF1000FDCD005F18B
:100A800040036B4413F9103C002BD5DAF1E705F174
:100A900040036B4413F8103C58F82370002248F8C8
:100AA00023203846FFF746FB461CCFE7A4EB08009F
:100AB00011B0BDE8F08F6FF00D00F9E76FF01B008B
:100AC000F6E76FF01B00F3E76FF01500F0E76FF04B
:100AD0001500EDE76FF01500EAE76FF01500E7E7A6
:100AE0006FF01B00E4E76FF01B00E1E7B0EC0000E3
:100AF000940401002DE9F04F97B000AF8346BA612E
:100B00003B61D7F88030C3F3C0033B62F96011B991
:100B10000AF0A3FAF8609BF80260B14636B1D7F844
:100B2000803013F0010F0DD1002300E000239BF86B
:100B300003207A6242B1D7F8802012F0020F22D14E
:100B4000002202E00123F2E7002202B9EBB19BF898
:100B50000050AA00BA60DBF804207A610BEB85052F
:100B6000BA69F2B1002B40F00481B9F1000F00F036
:100B70000F81D7F8803013F0040F40F00D81002072
:100B8000F8610646F9E00122DFE7BB691BB13A696B
:100B9000F96858469847FC6820465C37BD46BDE872
:100BA000F08FFC68E3B94D4400233B6123E004442B
:100BB000013501364E451AD22A7800235BF82220EF
:100BC0001946B8690AF05EFABAF1000FEFD0D7F80B
:100BD00088309845EBD22AF8180008F10108E6E7BA
:100BE0000026C7F81C80B046D7F884A0E2E7C7F813
:100BF0001080D7F81C80D7F8803003F00503FB6025
:100C00004FF0000AA146C7F81CB09CE000253B6AE3
:100C10007BB9002D79D0D7F8803013F0010F79D14E
:100C2000FB68002B6FD10223A9EB030988E00125A3
:100C3000EDE7594678690AF06BFA0028E9D06C466E
:100C4000002387F82C30022387F82D308AB06946BC
:100C500011F1100237D012251AB1042D01DDB34B6A
:100C60004B61002387F82830022387F829306ABBBC
:100C7000112D45DD122362B1042087F82C000020DD
:100C800087F82D0087F82E00012087F82F00F86ADA
:100C900008616FF300086FF341086FF382086FF388
:100CA000C508022161F38818C3F30A0363F35328CC
:100CB0006FF31F58002341469D4800F07BFDA54679
:100CC000A9F102093CE06FF00045C5E72B46082D6D
:100CD00001DD786988610C2B01DDC1F81CB001F1E0
:100CE0002003002009E000F1300C07F1280EF44445
:100CF0001CF830CC03F801CB01300128F3D9B7E759
:100D00006FF01B03B7E701238EE7D7F8803013F0AD
:100D1000020F15D0002322461946B8690AF0B2F92D
:100D2000D7F8843053B13B69D7F88820934205D275
:100D3000D7F8842022F8130001333B610138814445
:100D40000AF1010A35467B6A9A4510D22E4616F8FA
:100D500002BB6B78FA6952F82340764B9C42FFF451
:100D600055AF754B9C42FFF462AF00254FE74C46F0
:100D700012E707F144000023FB6118B14A462946F7
:100D80000DF0FAFE4D444FF00008C7F804901EE045
:100D90000020F8610646F0E7FE6107F13400002606
:100DA000EBE700253B6A33BB002D3BD0D7F8803002
:100DB00013F0010F26D0731C06F1300207F1280151
:100DC000561806F8149CDEB208F1010825467B6A25
:100DD00098454AD22C4614F802AB95F801905BF87E
:100DE0002930544A9342DCD3534A934201D300251D
:100DF000D8E70125D6E7514678690AF089F9002835
:100E0000D2D0E1E7D7F8803013F0040FDCD0FA69D4
:100E1000531C303207F128010A4402F8249CDBB24B
:100E2000FB61D1E7D7F8803013F0020F09D0731CB3
:100E300006F1300207F12801561806F8149CDEB2BC
:100E4000C2E7F869431C00F1300107F128028A1853
:100E500002F824AC02460232D2B2FA6107F158021B
:100E600052FA83F303F8249CAEE7D7F804909BF87A
:100E7000003087F854309BF80130334487F8553000
:100E8000D7F8803013F0020F0ED1FB69C3F347038C
:100E900087F85730D7F8803013F0010F06D113F0E0
:100EA000040F3ED1002302E00023F1E7002387F87E
:100EB0005630DBF800003863786DCBF80000D7F8C7
:100EC00010804246B9685846D7F818A0D047041E8B
:100ED000FFF662AE386BCBF80000C7F810804246D0
:100EE000F96907F13400D04700285EDB04EB000805
:100EF000B96849447B6A01EB4301D7F810904A4630
:100F0000FB68591A2846D047041EFFF645AE08EB89
:100F100004054FF00008C7F824B0B3465446CA464B
:100F200021E0FB69C3E74FF0000909E010F200007F
:100F3000FCEF0000B0EC0000940401004FF0000949
:100F40005246012107F12C00A04700282FDB054461
:100F50004B463246514620460AF094F8002828DBDA
:100F6000054408F10108D84518D208F1300307F10B
:100F70002802134413F8143C87F82C307A6A52F88C
:100F80002360D7F88430002BCDD0D7F8883098452F
:100F9000D4D2D7F8843033F81890D1E73A690021D9
:100FA0000846BB6998472C46F6E50446F4E5044636
:100FB000F2E50446F0E500BF014B1860704700BF42
:100FC0007005002080B505460E461746984608F085
:100FD0001BFC03460DF062FE0446DFF8189049F84A
:100FE0000030424639463046A84754F8090003F01D
:100FF000A3F800BF080000002DE9F04383B00446C9
:1010000008461546238B13F0080F05D103F0070699
:1010100000230093019354E0012909D043F02003F9
:10102000238385F31188BFF36F8F03B0BDE8F0838E
:1010300043F010032383F4E720460AF0EDFB42E07F
:10104000D4F814904A46694620460AF0FEFB4FF059
:101050000008238B03F00707B74269D0A268002A73
:1010600066D0012243F00803238385F31188BFF380
:101070006F8F002A64D1009B2BB14B463A466946DC
:1010800020460AF05BFCB8F1000F02D0344920463C
:10109000C047EFF31185202383F31288BFF36F8FCE
:1010A000238B23F008032383238B13F0100F4DD0E1
:1010B00023F0100323830120268B06F00706002867
:1010C000AFD00228B8D00028ABD0013804282BD8E4
:1010D00001A353F820F000BF4110000029110000C7
:1010E000ED10000001110000151100002369D3F874
:1010F0000080062120460AF065FB4FF00009A8E7B2
:101100002369D3F80480042120460AF05BFB4FF0EA
:1011100000099EE72369D3F80880052120460AF0DC
:1011200051FB4FF0000994E74FF00008C14690E7EB
:10113000009A0AB1002295E7B8F1000F92D1B3E707
:101140004A46394620460AF045FB94E713F0200F43
:1011500004D023F0200323830220ADE70020ABE777
:101160006BB9000038B505460B4C00E010340B4B52
:101170009C420FD263685B79002BF7D0294620464A
:101180000AF0B5FD0028F1D023681B6829462046E7
:101190009847EBE738BD00BF7CF000009CF00000F2
:1011A00070B506460D46084C04E02A4631462046F6
:1011B00098471034054B9C4204D223689B69002B4E
:1011C000F3D1F6E770BD00BF7CF000009CF000009A
:1011D0002DE9F041074605460AE007EA0807144BE7
:1011E00003EB06135B6804221968204600F0B4FA8A
:1011F000D5B195FAA5F6B6FA86F60D4C04EB0614B1
:101200000123B3406FEA030825EA0305237B002B83
:10121000EED03301064AD3581B69002BDDD020469F
:1012200098470028E4D1D8E73846BDE8F08100BFF0
:101230007CF000002DE9F04180460F46204BBFF3C3
:101240005B8F53E8005F6A1C43E800210029F8D156
:10125000BFF35B8F002D2FD11A4C002607E0636887
:1012600004221968204600F077FA01361034164B34
:101270009C4213D2237B002BF7D02368DB680BB191
:101280002046984723681B69002BE8D020469847E2
:101290000028E4D00123B3401D43E6E7B8F1000F76
:1012A0000BD055B12846FFF793FF0546002FF8D025
:1012B0000A200AF022FDF4E700252846BDE8F08167
:1012C000DC1600207CF000009CF0000008B5064B06
:1012D000186018B1054B1B68092B00DC08BD0448D9
:1012E00007F092FCFAE700BFD0160020D8160020C5
:1012F000F407002008B5024807F086FC08BD00BFCF
:10130000F407002030B589B000220F490F480DF0D6
:101310007FFB0F4D00220023CDE906230024049417
:101320000E2303930294019400940A4B4FF44072ED
:10133000094928460DF0F1F80849284607F030FE23
:10134000204609B030BD00BFF5120000B00D0020EE
:10135000F8080020B1160000002C0020C8F20000A0
:10136000014B53F820007047E4F2000048B108B583
:10137000054A1060054B1960084600F00FFD00207B
:1013800008BD6FF01500704774050020CC160020D2
:1013900008B5054B1B781BB1034B01221A7008BD21
:1013A000024807F031FCF7E7DD2B0020F4070020AE
:1013B00008B5104BBFF35B8F53E8001F013143E8C2
:1013C0000012002AF8D1BFF35B8F30B90A480DF044
:1013D0002BFB0A4807F018FC08BD094BBFF35B8FD5
:1013E00053E8001F013943E80012002AF8D1BFF387
:1013F0005B8FEBE7D4160020B00D0020F40700202F
:10140000D8160020064B00200146BFF35B8F53E83F
:10141000000F43E80012002AF9D1BFF35B8F704739
:10142000D416002038B5FFF7EDFF0546094C00E063
:101430001034094B9C420BD263685B79002BF7D0C8
:1014400023685B68002BF3D0294620469847EFE7D6
:1014500038BD00BF7CF000009CF00000034B186812
:101460000028D4BF00200120704700BFD416002000
:1014700010B5044C0449204609F0DCFF034B1C6006
:1014800010BD00BF28070020D0F20000C8160020C1
:1014900008B50023064A1370064A1360064A136013
:1014A0004FF400410548FFF761FFFFF7E1FF08BD7A
:1014B000DE2B0020D4160020D8160020F3BC00003C
:1014C00008B5014601480AF02EFC08BD2807002097
:1014D00008B502480AF091F808BD00BF28070020AF
:1014E00008B50146024B18680AF023FC08BD00BF8E
:1014F000C816002008B502480AF01FFC08BD00BF4E
:101500002807002010B582B000220023CDE9002377
:10151000284B187808B902B010BD68460AF025FCBF
:10152000044688B1244BBFF35B8F53E8001F013999
:1015300043E80012002AF8D1BFF35B8F2046FFF783
:1015400011FE2046FFF7CCFFFFF788FF58B91B4A72
:101550001368516813F57A7341F10001136051600B
:10156000FFF7C8FFD7E70DF0E4F94A0142EAD0627D
:1015700043011B1A62EB0102920042EA93729B0044
:101580001B1842EB0102D20042EA5372C3F310333C
:1015900043EA4243D20B0948016840685B1A62EB98
:1015A000000240F2E9318B4272F10002CFD3FFF723
:1015B00039FFCCE7DD2B0020D8160020A80D002035
:1015C0000F4B1B7803B1704710B500210120FFF7C6
:1015D00031FE0C4C00E010340B4B9C4208D2636887
:1015E0005B79002BF7D023689B6820469847F2E789
:1015F000FFF788FF0028FBD1014B01221A7010BDB4
:10160000DE2B00207CF000009CF0000010B582B0C2
:101610001A4BBFF35B8F53E8002F511C43E80010B7
:101620000028F8D1BFF35B8F154B1B7863B9154BBE
:101630001B68B3B1BAB1092A13D113480DF0F4F9FC
:10164000124807F0E1FA0CE0EFF31184202383F352
:101650001288BFF36F8FFFF755FF84F31188BFF334
:101660006F8F02B010BD00220023CDE900234FF49C
:1016700000420023044808F0FFFBF2E7D8160020E0
:10168000DE2B0020D0160020B00D0020F407002033
:1016900010B50446044B1B689847A06021460348D8
:1016A0000AF067FB10BD00BF74050020280700206A
:1016B0002DE9F04100210846FFF7BCFD804650B1FE
:1016C00040F2676600270DF0E9FA154B1858FFF74E
:1016D000FDFD002515E04FF0FF364FF0FF37F2E734
:1016E0004046FFF775FD804670B94FF0FF364FF06A
:1016F000FF3709E02C4632463B460A4807F0C8FA55
:101700002546B8F1000FEBD1FFF7FCFE0446002898
:10171000F6D1002DEED000210846FFF741FDEAE7A3
:1017200008000000F40700200248034BC01AC0085C
:10173000704700BF7CF00000FCEF000010B50C46C5
:10174000FFF7F2FFA04203D9024B53F8340010BD5B
:101750000020FCE7FCEF000008B5094BC31A1B1181
:101760000133D0F804C08CF8043043689A714368A0
:101770001960436801225A71FFF70AFE08BD00BFD5
:101780007CF0000000B589B0059206930023079312
:1017900062B1074A0C9B02930B9B01930A9B009337
:1017A00005ABFFF7A7F909B05DF804FB0022F1E7EC
:1017B00083BD00002DE9F04F8BB004AF05461E46F7
:1017C0008846C1F34A24002C00F08980914600220B
:1017D000FA603A617A6104230293FB1801930A23A9
:1017E000009307F10C0321464846FFF783F9B0F553
:1017F000006F58D3D9F804106D4600233B730223C1
:101800007B738AB004AC14F1100217D012201AB105
:10181000042801DD3B4B636100233B7002237B7096
:10182000CAB10346082800DDA1610C2B02DD40F29D
:10183000FF73E36104F1200300210AE06FF0004030
:10184000E5E701F118063E4416F8186C03F8016B41
:1018500001310129F5D9112822DD122342B10421D9
:10186000397300217973B9730121F973F868206124
:1018700000216FF300016FF341016FF382016FF3F9
:10188000C501022060F38811C3F30A0363F35321F7
:101890000023C1F313011C480AF0F3FAAD462DE012
:1018A0006FF01B03DAE760F35328C0F30A0A0AEB70
:1018B0001850173020F007008008FFF701FE83461C
:1018C000B0B104230293FB1801930A2300935346FB
:1018D00000F1100221464846FFF754FF08E004EBF0
:1018E0001154173424F00704A008FFF7E9FD8346DC
:1018F00033464246294658460AF059FA1C37BD4637
:10190000BDE8F08F04F3000014F000002DE9F04F63
:1019100085B080460D4617461E46DDF838B0DDF826
:101920004090B9F1000F41D0119B039300934B46B7
:101930000F9A10210020FEF783FEB0F5006F2DD224
:1019400082460BEB0003173323F0070300246FF3E9
:1019500000046FF341046FF3820468F3C50467F376
:10196000881460F353246BF31F549808FFF7A8FD05
:10197000074650B11030B9F1000F06D0119B00930B
:101980004B460F9A5146FEF75BFE334622462946E8
:1019900038460AF00CFA05B0BDE8F08F40F2FF734C
:1019A000034A022103480AF054FAF4E70020C7E78B
:1019B00044F3000014F00000406820B1034BC01A4B
:1019C00040F3CF0070474FF0FF307047FCEF00004E
:1019D0000EB400B582B0014603AB53F8042B01935B
:1019E000034802F0FFFD02B05DF804EB03B070475E
:1019F000B9BE000010B584B011F0440F05D01A4BE9
:101A00001B6833B9002004B010BD1849FFF7E0FF90
:101A1000F9E717490968B2FBF1F2B2FBF3FC03FBEB
:101A20001C224FF47A7E0EFB02F2B2FBF3F403FBAE
:101A300014210EFB01F1B1FBF3F10E4AA2FB0C32B3
:101A4000D20A4FF4616303FB12CC0B4BA3FB0CE3F4
:101A50005B0902910194C3EB0311ACEB810100918E
:101A60000649FFF7B5FFCEE7E41600207CF300003F
:101A7000E0160020C5B3A2918988888888F3000009
:101A800061B108B52AB1064A52F8232012B9054AB5
:101A900000E0044A0449FFF79BFF08BD704700BF00
:101AA00028F40000A4F30000ACF300002DE9F0419D
:101AB00005461746069EDDF81C8081B900242EB12C
:101AC000324611492846FFF783FF0444B8F1000F5E
:101AD00014D06FB1099B042B13D00C4909E00C4BB7
:101AE000099A53F822200B49FFF772FF0446E6E7F4
:101AF000064942462846FFF76BFF04442046BDE8EE
:101B0000F0810549F5E700BFC4F30000B4F300001D
:101B10003CF40000BCF30000B0F300002DE9F04FEE
:101B200087B005460C46049205939DF84C7001F071
:101B3000020B01F0010AC1F3C00801F480790AF038
:101B40001EF918B3024616492846FFF741FF06461C
:101B5000BBF1000F1CD13A46514628460AF0D7F98E
:101B6000B9F1000F01D0002311930397129B029348
:101B7000119B0193109B00930023049A4146284631
:101B8000FFF794FF304407B0BDE8F08F0026DFE791
:101B9000059A21462846FFF72DFF0644DBE700BFE4
:101BA000C8F3000011F0100F0BD108B511F0200F91
:101BB00003D00449FFF70CFF08BD0349FFF708FFF6
:101BC000FAE7704704F90000600301002DE9F041D5
:101BD00005460F46164698460699FFF7E3FF002490
:101BE000444505DA24492846FFF7F2FE0134F7E7B9
:101BF000002409E020492846FFF7EAFE0BE01F49D0
:101C00002846FFF7E5FE01340F2C0CDC002C02DD2A
:101C100014F0070FEED0B442F1D23A5D18492846CD
:101C2000FFF7D6FEEFE717492846FFF7D1FE00245D
:101C300009E011492846FFF7CBFE0BE01249284680
:101C4000FFF7C6FE01340F2C13DC002C02DD14F06C
:101C5000070FEED0B44207D23A5D0C4B9B5C13F0F9
:101C6000970FEBD12E22E9E703492846FFF7B0FE94
:101C7000E8E7BDE8F08100BFC0F30000D4F3000046
:101C8000CCF30000D8F30000DCF300008503010072
:101C90002DE9F04184B004469DF82C500C9F0E9E17
:101CA00095B9012B1ED019484FF0000827B13B46CB
:101CB0002246174909F0FCF9C6B905BB20460AF0CF
:101CC000E4F804B0BDE8F08103950A98029001930E
:101CD00000920B4600220F992046FFF71FFF804617
:101CE0000C48E3E70B484FF00008DFE70F9B009339
:101CF000434632460D9920460AF021F9DDE72A468F
:101D00000F9920460AF00FF9D8E700BFF1BE000096
:101D1000E5450000B9BE00002DE9F04383B006465A
:101D2000056842F20F738B4228BF0B46184A052103
:101D3000684608F013FB04467368D3F804900B2739
:101D4000DFF8508005E04A4639464046A8473F1A2A
:101D50008044002FF7D17368D3F804806F4605E004
:101D6000424621463846A847241A0744002CF7D19A
:101D700073685F681B24084E05E03A4621463046EA
:101D8000A847241A0644002CF7D103B0BDE8F0831D
:101D90003CFA0000FCF30000E0F30000074B0122D6
:101DA0001A6004E04008054A13685B001360044BA6
:101DB0009842F7D8034B1860704700BFE016002028
:101DC00040420F00E4160020034B01221A70034B1F
:101DD000034A1A60704700BFDF2B00201017002055
:101DE0001417002008B5034B01221A7002480AF0AC
:101DF000F4F808BDE02B00207CF40000014B1960D2
:101E000000207047FC16002008B518B9074B0022C7
:101E10001A7008BD064B1B7823B141F288300CF0D4
:101E2000BCF8F6E705200AF0EFF8F2E7DF2B002018
:101E3000E02B002038B504460A4B01221A700A4BE9
:101E40001B782BB938BD651E2046FFF7DDFF2C46F9
:101E5000002006F0D1FA0028F4D0024B1B78002BAA
:101E6000F1D1EFE7DF2B0020E02B00202DE9F0413E
:101E700007460E464FF004080DE032463946002072
:101E800006F052FA044616E04046FFF7D3FFF4B9D5
:101E9000134B1B78DBB1134B1B78002BEDD10CF0EF
:101EA0006FF8054632463946002006F03DFA0446F2
:101EB00028460CF06DF8002CE6D1094B1B78002B5E
:101EC000E5D008F1FF384046FFF79EFFDFE714B981
:101ED000034B1B7803B934462046BDE8F08100BFB0
:101EE000DF2B0020E02B002008B50248FFF714FF8D
:101EF00008BD00BF7CF4000010B50C46044B186808
:101F0000FFF72EFA03460F2221460248984710BDDC
:101F1000FC1600207CF4000070B506460D46002437
:101F200005E0315D044883685B6898470134AC4242
:101F3000F7D3284670BD00BF90ED0000014B036051
:101F400000207047E0F40000072801D90020704706
:101F5000024B034483F8BB10012070475417002044
:101F6000072801D900207047024B034493F8BB00B7
:101F7000704700BF5417002010B50378C3F3411316
:101F80000A33064C54F8233023B19847002803DB6A
:101F9000012010BD0020FCE70020FAE754170020C4
:101FA0000A30024B43F82010704700BF541700203E
:101FB000014B5862704700BF54170020136800227D
:101FC0001A705A7001221A70064A92F8C3203AB168
:101FD000022242F001021A7002230B6001207047B6
:101FE0000022F6E75417002030B545884FEA152E39
:101FF000AEF10403DBB2012B21D9EDB2BEF1070F24
:102000001FD8114B5B6A002400E00344187840B1EC
:1020100093F801C0F445F8D1A54201D00134F4E7AA
:10202000012068B11360BEF1020F02D01B780B6073
:1020300006E09A78DB7842EA03230B6000E0002098
:1020400030BD0020FCE700BF5417002038B50C4617
:102050000D4B5B6A156800E013441A788AB193F857
:1020600001C0BCF1040FF7D193F802C0B0F804E04E
:10207000F445F1D16046FFF773FF2870012020601E
:1020800000E0002038BD00BF54170020034B93F838
:10209000BA00003818BF0120704700BF5417002055
:1020A000074B5B6A00E013441A783AB15978022969
:1020B000F9D119798142F6D9012070470020704783
:1020C0005417002030F0800318D01049104B99426B
:1020D00019D210B403E024310D4B99420CD20C6A92
:1020E00000230A7F9A42F6D904EBC3021279824296
:1020F00006D00133DBB2F4E7002002E00120704794
:10210000012010BC70470020704700BFD408002099
:10211000F8080020014B9861704700BF5417002059
:10212000014BD861704700BF54170020F8B5064630
:102130000A4D0B4B9D420FD22F6A002401E001345F
:10214000E4B22B7FA34205D907EBC400B0470028B7
:10215000F5DAF8BD2435ECE70020FAE7D4080020D2
:10216000F808002038B50C4B00E024330B4CA34298
:102170000ED25C680A4D6D6AAC42F6D31D69002D23
:10218000F3D094F802C00479A445EED1A84701E049
:102190006FF0850038BD00BFD4080020F80800208B
:1021A000541700202DE9F04106460F469046114C89
:1021B00005E0424639463046A84719E024340E4B24
:1021C0009C4213D263680D4D6D6AAB42F6D3A5698C
:1021D000002DF3D0997832799142EAD05B79012BC6
:1021E000ECD1424639463046A847E7E76FF0850014
:1021F000BDE8F081D4080020F80800205417002022
:10220000F8B507460E4615460A4C00E024340A4B42
:102210009C420AD26369002BF8D02A4631463846E0
:10222000984703460028F1D101E06FF08503184676
:10223000F8BD00BFD4080020F808002008B510F051
:10224000700F07D100F07F0310F0800F0AD101203A
:10225000984008BD0346054A0121054809F0F9FDEB
:102260000020F6E7103301209840F2E7E0F4000088
:1022700064F0000038B5044600790AF0A2FC054677
:102280002079FFF7DBFF044AD2F8C43023EA0003C9
:10229000C2F8C430284638BD5417002038B505466A
:1022A0000AF08FFC10F1780F01D0044660B928467F
:1022B000FFF7C4FF084AD2F8C43023EA0003C2F88B
:1022C000C4300024204638BD2B46044A012104486E
:1022D00009F0BFFDF6E700BF54170020FCF4000032
:1022E00064F0000070B582B00D4604798DF80740A7
:1022F0002046FFF7E7FE064630B134F0800306D0F3
:10230000FFF7C4FE18B90646304602B070BD5DB195
:10231000204602F0C7FE0A4BDB69002BF4D00DF11A
:10232000070108209847EFE7204602F0F5FE044B2E
:10233000DB69002BE8D00DF1070109209847E3E79E
:102340005417002030B583B0044680788DF8000023
:10235000A388ADF80230E37803F003038DF804306E
:10236000FFF76CFF05461E4BD3F8C430034219D16A
:10237000684602F065FE10F1780F00D0E8B99DF8CC
:10238000000002F013FF10F1780F00D0F0B9144BE9
:10239000012083F8B900D3F8C4201543C3F8C45012
:1023A00003B030BD204609F089FE0CF0A3F80028E8
:1023B000DED1962007F0C2F9DAE79DF80030094A2D
:1023C0000121094809F045FD0020E9E79DF80030AA
:1023D000064A0121044809F03CFD0020E0E700BF67
:1023E0005417002020F5000064F0000044F50000C0
:1023F0002DE9F8430646194B5C6A0027FF25A846DD
:10240000B94607E094F80380A578B088854212D0D9
:1024100023781C442378C3B16378042BF2D0052BB6
:10242000F6D1B3889D42F3D1B2784146204609F0F7
:102430005AFE0746ECE771888845E9D1C9B2C0B2B7
:10244000FFF782FD0746A146E2E7044BDB6913B1C3
:102450004946072098473846BDE8F88354170020BE
:10246000024B00221A605A60704700BF0F1800200C
:102470002DE9F0410546224B5C6A43881BB10027D9
:10248000FF26B04610E0FFF7EBFF6A881C4B83F88D
:10249000BA20DB6913B11B490320984701271EE0CE
:1024A00094F8038023781C442378BBB16378042B11
:1024B000F6D0052B07D0022BF4D166796B889E42AB
:1024C000F0D10127EEE76B889E42EBD1B8F1000F07
:1024D000E8D12046FFF736FF0746E3E717B938464D
:1024E000BDE8F081FFF7BCFF6A88054B83F8BA208E
:1024F000DB69002BF3D0034903209847EFE700BFC7
:10250000541700200E18002010B5146890F9003000
:10251000002B0ADB4378013B082B3AD8DFE803F0B5
:1025200024392F391A39393921004378062B07D03D
:10253000082B08D00BB1002010BDFFF73FFDFBE7D3
:10254000FFF752FDF8E7144B93F8BA3023700120DF
:102550000860F1E7807802F02DFDB0FA80F04009C4
:10256000EAE7FFF785FFE7E74388012B01D000206A
:10257000E2E7094B002283F8C3200120DCE743880F
:10258000012B01D00020D7E70120034B83F8C300C3
:10259000D2E70020D0E700BF5417002070B50546F1
:1025A0000E46042803D0012803D0134C11E0FFF796
:1025B00057FF124B93F8B930002BF6D000F0E8FC2F
:1025C0000F48FFF7B3FD0D4B002283F8B920ECE76D
:1025D00024340C4B9C4207D2E368002BF8D03246DF
:1025E000294620469847F3E7044B1B6A13B131464E
:1025F0002846984770BD00BFD4080020541700201B
:1026000075220000F808002070B504460D461646F5
:10261000184B9B690BB1984748B1237803F01F030F
:10262000012B0DD0022B13D013B16FF0150070BD2C
:10263000324629462046FFF767FF88B10020F6E7BB
:1026400032462946204609F057FD60B10020EEE7EA
:1026500032462946204609F097FD38B10020E6E7CA
:102660006FF01500E3E76FF01500E0E76FF015007D
:10267000DDE700BF5417002070B50E4E0E4B9E4292
:1026800015D2356A002401E00134E4B2337F9C4264
:102690000BD205EBC40355F83410187902F01AFF79
:1026A0000028F1D04FF0FF3070BD2436E6E700205F
:1026B000FAE700BFD4080020F808002010B582B067
:1026C000154B1B7DF3B9144CE268019201ABA16874
:1026D000802009F07CFDA368019A1344A360E3689D
:1026E0009B1AE360B3B9AAB1E28823699A4211DD6B
:1026F00094F8C82093FBF2F102FB113353B9012285
:10270000227507E00021044B19750B460A4680200C
:1027100002F07AFD02B010BD5417002000B585B05C
:1027200000230393002840F08A8019B34B4BDA68EA
:10273000002A6CDD03AB4949896800200AF05AFA87
:10274000002871DB454A936803990B449360D36872
:102750005B1AD360002B74D1104602F1380342F8A3
:10276000083F00F11001FFF707FC002863D0FFF7D6
:10277000A5FF66E0082201A90AF03CFA00282EDB3A
:102780009DF80400354B18709DF805205A70BDF86F
:1027900006205A80BDF808209A80BDF80A10D9801A
:1027A00003F138029A6000221A751A61DA6010F09B
:1027B000800F02D1802916D809BB294A02F10801ED
:1027C000A2F10800FFF7D8FBE8B1244BDA881969B9
:1027D0008A42A8BF0A46DA60FFF770FF31E0802026
:1027E00002F060FC2DE01F4A01211F4809F027FB81
:1027F000802002F057FC002002F054FC21E0174B2F
:102800001961D9601DE0802002F04CFC19E003AB97
:1028100000221249896810460AF0ECF9002810DA03
:10282000802002F03FFC0CE0802002F03BFC002006
:1028300002F038FC05E0802002F034FC01E0802842
:1028400002D005B05DF804FB044BDB681BB9034BF9
:102850001B7D002BF5D0FFF731FFF2E75417002066
:102860005C17002068F5000064F0000008B5FFF771
:102870009FFB08490020FFF793FB07490120FFF762
:102880008FFB06490220FFF78BFB0548FFF742FC50
:10289000002008BD0926000065210000012200007B
:1028A000A521000070B582B005464FF0FF324FF011
:1028B000FF33494806F098F8484B93F8B830002B9E
:1028C00040F08180454B5B6A002B64D0012009F009
:1028D000F3FB041E79DB414B5E6A1D62404C2046CF
:1028E000FFF71EFC204602F009FE02F027FB041E43
:1028F0006BDB00F079FB041E67DB7378012B5AD188
:10290000F379002B57D0354A82F8C830ADF8023041
:1029100000238DF804308DF80030684602F090FBFB
:10292000041E52DB80238DF80030684602F088FBDD
:10293000041E4ADB2B49002002F0CCFD041E44DBC0
:102940002849802002F0C6FD041E3EDBFFF794FEFE
:10295000041E3ADB002002F029FC041E35DB0020B7
:10296000FFF76CFC1D4AD2F8C4300343C2F8C430F0
:10297000802002F01BFC041E27DB8020FFF75EFC9A
:10298000164BD3F8C4200243C3F8C420012283F8B5
:10299000B820002419E000F04DF9FFF767FF0F4B56
:1029A0005B6A002B92D1104A0121104809F047FAC6
:1029B0004FF0FF3409E00E4A01210C4809F03FFABC
:1029C0006FF0150401E06FF07704034806F08CF80F
:1029D000204602B070BD00BFD00700205417002071
:1029E0009D2500001D27000084F5000064F0000014
:1029F000ACF500000246064800E02430054B984242
:102A000003D243689342F8D100E00020704700BF32
:102A1000D4080020F808002010B58AB00DF1040C8D
:102A20001D4C0FCCACE80F0023688CF8003000235D
:102A30000693079308930993184A136053609360B1
:102A4000D3601382102106A80AF056FB002820DD6F
:102A50000828B8BF0820A0F1080C002217E00CEBF2
:102A6000020328336B4413F8103C51000AA800EB12
:102A7000131010F824EC094800F812E003F00F03DB
:102A8000013128336B4413F8243C43540132072AA4
:102A9000E5DD02480AB010BDE8F50000201800206E
:102AA0002DE9F04383B000AF04464FF001137B6083
:102AB0000025A846A9462E4604E0204609F0B4FBAE
:102AC00023781C442378002B00F09C806378052B2E
:102AD000F6D801A252F823F0C52B0000BB2A000053
:102AE000012C0000C52B0000F12A0000912B0000F2
:102AF000E378002BE4D1A3784BB92046FFF77AFFA7
:102B0000814648B1836813B141462046984708F191
:102B100001085FFA88F8D3E76D4688B06B4613F179
:102B200010022FD00C213AB10846042901DD3B4E9A
:102B30005E61082800DD9C610B2926DD0C243AB17A
:102B40000321397000217970B970F9703868186103
:102B500000216FF300016FF341016FF382016FF306
:102B6000C501012363F38811C4F30A0464F35321FC
:102B70006FF31F5100232A48FEF71CFEAD464FF0AD
:102B8000FF3044E06FF00041CDE76FF01B04D6E763
:102B9000B9F1000F0ED03A1D4946204609F064FBFA
:102BA00000288DD01F4A01211D4809F048F94FF037
:102BB000FF302CE01C4A0121194809F040F94FF080
:102BC000FF3024E0032D0BD075B98EB1A31BB37079
:102BD000C3F30723F37086F804800135EDB26FE785
:102BE000204609F0A2FBEFE7204609F00BFBF4E7D3
:102BF0000E4A01210A4809F022F94FF0FF3006E0A1
:102C000026465DE7A01C0A4B984204D100200C37F1
:102C1000BD46BDE8F083FFF743FFF8E7FCF5000091
:102C20005CF0000060F600001CF6000080F600007A
:102C3000D308002008B50A4B1B780BB1094808BD22
:102C40000848FFF72DFF20B9054B01221A700548EF
:102C5000F5E7054A0121054809F0F1F80020EEE703
:102C6000E12B002014080020A0F600005CF000001A
:102C7000002300E00133032B0CD89A0106498A5C3B
:102C80008242F7D101EB83125268002AF2D001EBA5
:102C90008310704700207047341800202DE9F04160
:102CA00084B0044610F82C5C50F8283C13F1100F47
:102CB00024D1036913F0020F37D050F8202C2AB921
:102CC00013F0040F22D143F00403036103AB54F863
:102CD000241C284609F07BFA0346D8B954F8242C62
:102CE000039B1A4444F8242C54F8202CD21A44F89C
:102CF000202C54F81C2C134444F81C3C54F8283C59
:102D000013F1100F4CD104B0BDE8F081002340F85E
:102D1000283CF3E70095304A0121304809F0A4F837
:102D20006FF0150344F8283CE8E703AB50F8202C7B
:102D300050F8241C284602F0FBFA0346A0B954F8C8
:102D4000243C039E334444F8243C54F8203C9B1B11
:102D500044F8203C54F81C3C334444F81C3C76B9FD
:102D6000002344F8283CC9E700951B4A01211B4871
:102D700009F07AF86FF0150344F8283CBEE72846BE
:102D800002F0C2FBB6FBF0F300FB1366002EE7D1A6
:102D900054F8203C002BE3D0284602F037FBADE787
:102DA00054F8186C54F81C7C54F8148C0BF0A2FBEB
:102DB00068B9002344F8183CA4F1100005F024FF82
:102DC000002EA0D0424639462846B0479BE7214610
:102DD00003480BF03AFB96E7D0F6000074F00000D1
:102DE000E80D002070B582B006460C46FFF740FFA4
:102DF000631EDBB2012B0AD8054650B10BF07AFBFB
:102E000008B1012C17D105F12C00FFF747FF02B0E4
:102E100070BD012CFBD101AB01220DF10301304645
:102E200002F086FA019B002BF5D1064A01210648E3
:102E300009F005F8EBE705F12C0104480BF005FB60
:102E4000E5E700BFF0F6000074F00000E80D002098
:102E50002DE9F84F0546884616461F4609F0BAFA8E
:102E6000002867D1EFF31189202383F31288BFF381
:102E70006F8F0024032C30D8A00118302F4B18443A
:102E800004300022002305F003FF824608B101341C
:102E9000F0E7A201294B03EB8414D4F804B01BF132
:102EA000100F28D09D54C4F80880E66000232361E9
:102EB0000A9B6361E7630B9BA3616FF00F03636081
:102EC000284602F021FB10BB17F0020F2DD004F1B1
:102ED0002C011B480BF0B9FA06E01A4A01211A48E6
:102EE00008F0ADFF6FF00B0A89F31188BFF36F8F05
:102EF0005046BDE8F88F2B46144A0121124808F0CD
:102F0000A8FF04F11C0005F07FFEDA46ECE7284636
:102F100002F0FAFAB6FBF0F300FB1366002ED3D0F2
:102F2000E36B43F00403E363CEE7284602F06EFA56
:102F30008246D9E76FF00F0ADAE700BF34180020A5
:102F4000E80D00200CF7000074F0000028F70000E6
:102F500010B5EFF31184202383F31288BFF36F8F32
:102F6000FFF786FE20B10146436813F1100F04D02D
:102F700084F31188BFF36F8F10BD6FF08B03436034
:102F80002C3102480BF061FAF2E700BFE80D002097
:102F900038B5002404E085F31188BFF36F8F013446
:102FA000032C1BD8EFF31185202383F31288BFF382
:102FB0006F8F0B4B03EB84135B6813F1100FEAD197
:102FC000074BA10103EB84126FF08B005060283196
:102FD0001944043103480BF038FADCE738BD00BF70
:102FE00034180020E80D002070B5002511E0AC0178
:102FF00004F12800094E3044094904300BF00AFA64
:1030000004F1180030440430012211460BF070F92D
:103010000135032DEBD9002070BD00BF341800200E
:103020009D2C000030B585B005694368A1228DF85C
:10303000042020228DF805200024ADF80640ADF8CC
:1030400008400222ADF80A20ADF80C1085F89D402A
:10305000186A23460A2201A9007909F0B8F895F800
:103060009D304BB901200AF098FF0134044B9C427B
:10307000F5D96FF0040000E0002005B030BD00BFBE
:10308000A086010008B50169012381F84B300B6867
:1030900013B191F8493003B908BD083101480BF06C
:1030A000D4F9F9E7E80D002008B50169012381F89A
:1030B0004A300B6813B191F8483003B908BD0831A4
:1030C00001480BF0C2F9F9E7E80D002070B582B0B5
:1030D000064614460D1E19DD2A4604F14C01D4F8AB
:1030E0008C0008F073FD854215D8012384F849301F
:1030F000236813B194F84B30A3B9D4F88C10CB6982
:103100004A684969521A9B1A3F2B11D994F89E308C
:1031100093B902B070BD2B1A0D4A01210D4808F079
:1031200098FEE2E704F108010B480BF08EF9E4E7A2
:10313000012384F8A030ECE70194084B00930123AD
:10314000402204F14C013046FFF782FEE1E700BF68
:1031500064F7000054F00000E80D0020CD300000BE
:1031600070B50569EFF31186202383F31288BFF34E
:103170006F8FD5F8900008F029FD044686F311887A
:10318000BFF36F8F08B9204670BD0022002305F100
:10319000180102480BF06FF9F5E700BFE80D0020B9
:1031A00038B50D461446012382F84830136813B130
:1031B00092F84A305BB9D4F890301A699B68934210
:1031C0000BD004F118015DB1002200230BE002F1E5
:1031D000080107480BF039F9EDE73DB904F1180192
:1031E00040F6CD42002302480BF045F938BD00BF40
:1031F000E80D002030B583B08DF807100469002376
:1032000084F848300BE01A4A02211A4808F017FEE9
:10321000194B01221A7021E0012009F052FAEFF354
:103220001185202383F31288BFF36F8F01220DF1E4
:103230000701D4F8900008F0C9FC85F31188BFF3AA
:103240006F8F01280AD00BF055F918B994F8A13006
:10325000002BE1D1084B1B78002BD4D02122002376
:1032600004F1180105480BF006F903B030BD00BFAA
:1032700088F7000054F00000E22B0020E80D002049
:1032800070B504460E46154601791B4809F072F8E0
:1032900058B194F90020002A21DB6278202A0DD051
:1032A000222A17D06FF0850022E0A388134A02215A
:1032B000134808F0CEFD6FF0120019E02A6811687B
:1032C00040F8101C9188927920F80C1C00F80A2C08
:1032D00000200DE0A27800F8092C002008E06278B8
:1032E000212A06D1A0F110032B60072333600020B0
:1032F00070BD6FF08500FBE734190020A8F70000CF
:1033000054F0000010B504460146074809F046F89D
:1033100018B1012200F8072C10BD2346034A0221F0
:10332000034808F096FDF7E734190020D0F70000B5
:1033300054F0000008B503464FF0000C80F89EC022
:1033400080F89FC080F849C080F848C00B4A92E8D6
:103350000300C3F89400A3F89810090C83F89A109E
:1033600083F89CC083F89BC083F8A0C040226146CC
:1033700003F14C000BF00EFC08BD00BFE0F00000B4
:1033800030B583B00446D0F8A4305D680139052912
:1033900006D8DFE801F003050728313AFFF7CAFF36
:1033A00003B030BD224A0321224808F048FD94F8BA
:1033B0009E30002BF4D1012384F89E302B6A2246E4
:1033C0000021187BFFF782FE94F84830002BE7D1EC
:1033D0002B6A187D0194184B00930223002211469A
:1033E000FFF736FDDCE7154A0321124808F027FDF8
:1033F0002046FFF79FFFD3E7114A03210D4808F04D
:103400001EFD012384F89F30CAE70E4A03210948B4
:1034100008F015FD94F89F30002BC1D00A4A032113
:10342000044808F00CFD002384F89F30B8E700BF83
:10343000F8F7000054F00000A13100000CF8000083
:1034400020F8000034F8000044F80000F0B583B024
:1034500000AF04460D4616460146234808F078FFA3
:1034600038B132462946A438FFF78AFF0C37BD46EB
:10347000F0BD6D4688B06B4613F110022DD00C21C3
:103480003AB10846042901DD184E5E61082800DDC6
:103490009C610B2924DD0C243AB1032139710021F0
:1034A0007971B971F9717868186100216FF30001C1
:1034B0006FF341016FF382016FF3C501022363F3E0
:1034C0008811C4F30A0363F353216FF31F510023E0
:1034D0000748FEF76FF9AD46C8E76FF00041CFE748
:1034E0006FF01B04D8E700BF3419002054F8000027
:1034F00054F0000010B50469C4F8A40004F1A80356
:103500000022C4F8A8200B4A526872B11360094A1D
:103510005360094904F108000AF07CFF074904F1EF
:1035200018000AF09CFF002010BD024A536013608F
:10353000EFE700BF3419002005C40000413500004A
:10354000F0B585B00446A0F11806D0F88C305B6861
:103550001B6A1D7D284608F03DFF10B994F886309F
:103560000BB905B0F0BD4FF4806203A9A06F08F05D
:103570004DFB07460028F4D0002384F8303010F0CB
:103580003F0F00D1471E0196064B009302233A4697
:1035900003992846FFF75CFC3946A06F08F053FBFF
:1035A000DFE700BFA131000030B583B0084D002433
:1035B00000944FF0FF334FF480620649284605F02F
:1035C0009DFC0549284605F0EBFC204603B030BDC4
:1035D000E80D0020402F002094F8000008B50348B3
:1035E00007F0C3FD024807F0C0FD08BDA0F80000C9
:1035F000D8F8000008B5024806F008FD08BD00BF75
:1036000008F90000B0F5680F17D00CD840F6BA637F
:10361000984214D0B0F5683F13D03A2801D0012069
:10362000704700207047094B98420CD0084B9842D5
:1036300001D0012070470020704700207047002013
:103640007047002070470020704700BF3A00003AE2
:103650002C5F5CA9E8B108B54268B2F5683F07D0B5
:103660000F498A421AD0006805F03EFA002008BDD2
:1036700003680022BFF35B8F53E8001F012903D1C9
:1036800043E800200028F7D1BFF35B8F04D1104638
:10369000EDE76FF4E04070470248E8E70248E6E7EC
:1036A0002C5F5CA9E98FFFFFEA8FFFFF30B308B5FD
:1036B0004268B2F5683F0CD012498A421CD00068BB
:1036C0004FF0FF324FF0FF3305F08EF988B10E480E
:1036D0000FE003680122BFF35B8F53E8001F00294E
:1036E00003D143E800200028F7D1BFF35B8F01D15D
:1036F000002008BD0448FCE70448FAE76FF4E04006
:10370000704700BF2C5F5CA9E98FFFFFEA8FFFFFC6
:1037100010B50446A8B16368B3F5683F10D0B3F59F
:10372000680F0DD00D4A93420AD013F4686F0DD084
:1037300021680B480AF09BFC00232360074B636061
:1037400010BD084B5B6808489847E4E723680022EF
:103750001A605A609A60DA601A61EFE72C5F5CA920
:103760003C1E0020BC06002010F9000010B50446E5
:1037700068B36068B0F5683F28D0B0F5680F25D011
:10378000174B984228D0FFF73DFFC0B14FF0FF32F2
:103790004FF0FF332146134805F0F4F808B92368C9
:1037A0001BB9114B5B6811489847236800221A60C7
:1037B0005A609A60DA601A614FF468636360206847
:1037C0000AF0D6FC636843F03A03636010BD064B11
:1037D0005B6807489847CCE72368002BD3D1D5E72F
:1037E0002C5F5CA93C1E0020BC06002038F90000BC
:1037F00010F9000008B540231422044904480AF0D7
:1038000028FC0449044806F073FC08BD3C1900205C
:103810003C1E002068F900007CF900002DE9F04111
:1038200082B000AF0446D0F800E0D0F804C085684C
:103830006E468AB06B4613F1100200F088801421A6
:103840008AB10846042903DDDFF81C81C3F814801F
:10385000082801DDC3F818E00C2801DDC3F81CC0FE
:10386000102800DD1D62132974DD14253AB10521ED
:10387000397100217971B971F97178681861002185
:103880006FF300016FF341016FF382016FF3C50124
:10389000012363F38811C5F30A0565F353216FF320
:1038A0001F5100233148FDF785FFB546D4F80CC001
:1038B00026696569E8468AB06B4613F110024CD060
:1038C000142182B10846042903DDDFF8A4E0C3F81F
:1038D00014E0082801DDC3F818C00C2800DDDE6103
:1038E000102800DD1D6213293ADD14253AB10521A7
:1038F000397100217971B971F97178681861002105
:103900006FF300016FF341016FF382016FF3C501A3
:10391000012666F38811C5F30A0565F353216FF399
:103920001F51124D00232846FDF744FFC546E369A9
:10393000104A3146284608F08CFAA3690E4A3146EF
:10394000284608F086FA0837BD46BDE8F0816FF0DA
:10395000004175E76FF01B0588E76FF00041B0E7A5
:103960006FF01B05C2E700BF8CF900003CF00000BF
:10397000BCF90000ECF90000FCF9000038B5044681
:103980000D4611B10846FFF749FF012C04D0294626
:10399000204604F08DFD38BDEFF30583103B034A4C
:1039A0000121034808F055FAF1E700BF2CFA0000A6
:1039B0003CF0000030BFFFF7FDBF00BF38B5044644
:1039C000054D2A4605490BF0D7F8054A0021601934
:1039D0000BF0E0F838BD00BF00000000E0F0000090
:1039E0000400000070B50646064D074B1D444C1BF5
:1039F0002046FFF7E3FF083CC6F8A44005F10800A5
:103A000070BD00BF0000000004000000074B9B6871
:103A100093F90E20002A08DB044A5269934204D02D
:103A2000034A536843F0805353607047C429002011
:103A300000ED00E081690D4B5A6942F480725A61D1
:103A4000BFF34F8FBFF36F8F31F8021C5A6922F416
:103A500080725A61BFF34F8FBFF36F8F4DF60273C1
:103A6000994201D0002070470120704700ED00E02E
:103A70004FF0000C83F800C002F07F4CBCF17F4F88
:103A800014D102F00C0CBCF1080F04D012F0080F96
:103A900009D00846704708B5054A0121054808F0D5
:103AA000CEF9002008BD01221A707047002070472F
:103AB00040FA00003CF0000008B52B4A01212B48D9
:103AC00008F0BDF92A4B9B6A13F0007F21D11D201D
:103AD000274B9B6A13F0807F22D1254B9B6A13F4FE
:103AE000002F24D1224B9B6A13F4802F26D1204B28
:103AF0009B6A13F4003F28D11D4B9B6A13F4803F4F
:103B00002AD11B4A936A6FEA03436FEA1343936215
:103B100008BD184A0121154808F091F91E20D7E781
:103B2000154A0121114808F08AF91F20D5E7134AE8
:103B300001210E4808F083F92120D3E7104A012122
:103B40000A4808F07CF92220D1E70E4A01210748F3
:103B500008F075F92320CFE70B4A0121034808F04C
:103B60006EF92420CDE700BF6CFA00003CF00000A5
:103B700000ED00E084FA000098FA0000B4FA0000BA
:103B8000D4FA0000FCFA000018FB000008B500237E
:103B90000B70034A0121034808F051F908BD00BF2A
:103BA00044FB00003CF0000090B583B000AF0F294B
:103BB00023DC2F4C103900233B7102237B718AB028
:103BC000EC461CF110021AD0122022B1042802DDAA
:103BD000284BCCF8143000233B7002237B70E2B1F9
:103BE0000346082801DDCCF818400C2B01DDCCF889
:103BF0001C100CF1200300210DE01F4CDAE76FF0E0
:103C00000040E2E701F1080404EB070E1EF808EC9F
:103C100003F801EB01310129F4D9112824DD122325
:103C20004AB10421397100217971B9710121F97109
:103C30007868CCF8100000216FF300016FF34101A8
:103C40006FF382016FF3C501012060F38811C3F3A4
:103C50000A0363F353216FF31F5100230748FDF755
:103C6000A9FD0C37BD4690BD6FF01B03D8E700BF20
:103C700068FB00009CFB000080FB00003CF00000A3
:103C8000F8B505460F461446374A0121374808F073
:103C9000D6F8374B9B6A13F4805F25D11626344B38
:103CA0009B6A13F4006F26D1314B9B6A13F4007F9B
:103CB00028D12F4B9B6A13F4806F3FD12C4B9B6A0A
:103CC00013F4807F41D12A4B9B6A13F4005F43D1E8
:103CD000274A936A43F47F4393620121284608F000
:103CE00013FD20703046F8BD224A01211F4808F01C
:103CF000A6F81726D3E7204A01211C4808F09FF8B0
:103D00001826D1E71D4A0121184808F098F8184AEA
:103D1000936B926A12F4004F01D11926C9E7184A31
:103D20000121124808F095F837B1114A936A23F43B
:103D3000004393621926BCE71926BAE7114A01210C
:103D40000A4808F07CF81A26B8E70F4A012107480C
:103D500008F075F81B26BBE70C4A0121034808F060
:103D60006EF81C26B4E700BFB0FB00003CF000007A
:103D700000ED00E0C8FB0000DCFB0000F0FB0000F1
:103D80000CFC000024FC000040FC000058FC00007B
:103D90002DE9F04104460F461546464A01214648A2
:103DA00008F04DF8454B9B6A13F0100F3CD11026DC
:103DB000424B9B6A13F0080F3DD1404B9B6A13F0B6
:103DC000020F3FD16FF015083C4B9B6A13F0010FB7
:103DD00058D13A4B9B6A13F0200F5AD1374B9B6A4C
:103DE00013F0100F04D1354B9B6A13F0020F04D06F
:103DF000324B5B6813F4006F52D1304B9B6A13F067
:103E0000200F04D02D4A536A23F4005353622B4AE7
:103E1000936A43F0FF0393620121204608F074FC8B
:103E200028703046BDE8F081254A0121224808F07B
:103E300006F81126BCE7234A01211F4807F0FFFFBF
:103E40001226BAE7204A01211B4807F0F8FF1B4B56
:103E5000D3F834809B6A13F0800F03D16FF01508FC
:103E60001326B1E74346194A0121134807F0F1FF31
:103E700037B1124A936A23F0800393621326A3E7B3
:103E80001326A1E7124A01210B4807F0D8FF142698
:103E90009FE7104A0121084807F0D1FF15269DE74A
:103EA0002146404600F028FA0028A6D080F3098871
:103EB0000226A2E788FC00003CF0000000ED00E0D4
:103EC000A0FC0000DCFB0000D4FC0000ECFC0000C7
:103ED00004FD000058FC000070B506460D462B4A54
:103EE00001212B4807F0ABFF00232B70294BDC6A24
:103EF00014F002040AD1274BDB6A002B0DDB254BA3
:103F0000DC6A14F080440ED1204670BD224A0121A3
:103F10001F4807F094FF0024F6E7204A01211C48BF
:103F200007F08DFFF0E71E4A0121194807F087FFCF
:103F30003046FFF77FFD98B9164B9B6A13F0FF0FD1
:103F400016D1144B9C6A14F47F4418D1114B9B6A10
:103F5000B3F5803FD8D33046FFF7AEFD0446D3E734
:103F60003368104A01210A4807F073FF3468CBE731
:103F70002A4601213046FFF70BFF0446C4E72A46D4
:103F800001213046FFF77CFE0446BDE724FD00001A
:103F90003CF0000000ED00E03CFD000060FD000092
:103FA00070FD000090FD000030B58BB01F4B5D68C8
:103FB000C5F30805002383F31188BFF36F8F0DF15C
:103FC0002603FFF755FD04460DF12702294608F0A8
:103FD0009DFB9DF827300BB10BB030BD05460DF1B0
:103FE000040C20686168A268E368ACE80F002069EF
:103FF0006169A269E369ACE80F009DF826304BB116
:10400000089BC3F308025AB96FEA53236FEA4323AC
:10401000089305E0089B23F4FF7323F00103089342
:1040200001A92846FFF7AAFCD6E700BF00ED00E093
:10403000044B5A6942F010025A615A6922F0080290
:104040005A61704700ED00E0EFF30880EFF309815B
:1040500001B57246FFF7A8FF01BD00BF002080F345
:104060001488BFF36F8F114880F30888002010492F
:10407000087003F0C5FA00200E490860BFF34F8FA7
:1040800000F030F8202080F311880B484FF40461D1
:10409000401880F30988EFF314800221084380F36D
:1040A0001488BFF36F8F00F0E9F80000804500200E
:1040B000EE2B002094ED00E0C0370020084BD3F831
:1040C0009000C0F30720002306E0054AC2F89830AC
:1040D0000021C2F8A01001338342F6DB704700BF15
:1040E00000ED00E010B572B6002484F31388FFF7EA
:1040F000E5FF234608E003F120010E4A4FF0FF30B0
:1041000042F821000133DBB2072BF4D9002308E089
:1041100003F16001074A4FF0FF3042F821000133FC
:10412000DBB2072BF4D962B6BFF34F8FBFF36F8FAB
:1041300010BD00BF00E100E008B50A4B9B68834258
:1041400002D005F067FB08BDEFF30583002BF8D024
:10415000054B5A6842F080525A605A6A22F4004273
:104160005A62EEE7C429002000ED00E016498A6893
:104170004FF030001044EFF3098C80E8F01F20204E
:1041800080F31288BFF36F8F104F4FF000664A69BB
:104190008A603E604FF0A404141920680C4C206023
:1041A000D2F8A8000023C2F8A83080F3118804B523
:1041B000104600F023F9BDE8044002F1300090E819
:1041C000F01F8CF309887047C429002004ED00E03B
:1041D000581E00201EF0040F0CBFEFF30880EFF311
:1041E0000980816911F8021C0229FFD001B57246CD
:1041F00008F07EFA01BD00BF002807DB00F01F02B7
:10420000400901239340024A42F82030704700BF22
:1042100000E100E000280CDB00F01F024009012350
:1042200093402030034A42F82030BFF34F8FBFF352
:104230006F8F704700E100E0002808DB4901C9B238
:1042400000F1604000F5614080F80013704700F015
:104250000F004901C9B2014B1954704714ED00E039
:104260004209054B53F8222000F01F00012303FAF6
:1042700000F01040704700BF00E100E008B50B4BB4
:104280000B4A22F07F029A60BFF34F8FBFF36F8F0C
:10429000D3F8882022F47002C3F8882004F0B8FA1A
:1042A00005F02AFC00F072F804F010FB00ED00E0CD
:1042B0000000000010B4A2F120040E4942F8081CCE
:1042C00021F0010142F8081C42F8203C019B42F811
:1042D0001C3C029B42F8183C039B42F8143C4FF0F4
:1042E000807342F8043C04650023C0F8A83010BC79
:1042F000704700BFC50F0000104B9B68BBB110F1A9
:10430000160F0BD0D3F89420A2F1400C844510D89E
:10431000824210D98A4207D800207047D3F89420EF
:104320008A4201D800207047D3F8940070470020DB
:104330007047002070470020704700BFC42900204C
:1043400008B50E4615460A4A9060D0F8A420094BDD
:104350001A6000F053F82C4686F309880020064BBB
:1043600098472046002100220023044C204700BF2C
:10437000C4290020581E002083C70000C50F00007C
:10438000014B10221A61704700ED00E0002206E0A8
:1043900003F00F030949194420230B7601322F2A19
:1043A0000ADC53B2002BF3DB03F1604303F56143F6
:1043B000202183F80013F1E7704700BFFCEC00E018
:1043C00008B5EFF30583103B044A02EBC3014968CB
:1043D00052F833008847FFF719FB08BDA4ED000031
:1043E00008B5034B034A0121034808F0F5FA08BD5C
:1043F0000000042000000020ACFD000008B5D0F84B
:104400009430403B0448036040234360034B836087
:10441000012108F0E5FA08BD5C1E002000000B1524
:10442000084AC2F898000B6823F01F03034343F0C7
:104430001003C2F89C308B6843F00103C2F8A0302F
:10444000704700BF00ED00E010B504460A4BD3F8FA
:104450009030C3F30723013B984203D8FFF7E0FFF6
:10446000204610BD0346054A0121054807F0F1FC2E
:104470006FF01500F5E700BF00ED00E0BCFD0000A7
:104480002CF000002DE9F04780460F469A4616466C
:10449000002409E02946F0B208F0A7F9064610F119
:1044A000160F1AD001360134BC4216DA04EB44056B
:1044B00008EB85056A68002AF5D0BAF1000FE9D04B
:1044C000284608F081F90028E4D12346044A012156
:1044D000044807F0BEFC6FF015063046BDE8F087D3
:1044E000E4FD00002CF0000010B5034C01232278FD
:1044F000FFF7C8FF207010BDE32B002008B5002394
:104500000B4A1278FFF7BEFF10F1160F0FD00246CC
:1045100006E0084BC3F898200021C3F8A010013230
:10452000044BD3F89030C3F307239342F1DC08BD6A
:10453000E32B002000ED00E0044B0522C3F894209B
:10454000BFF34F8FBFF36F8F704700BF00ED00E0E8
:10455000BFF35F8F024B0022C3F89420704700BF67
:1045600000ED00E038B51C4B1D681C4BD3F89030B3
:10457000C3F307239D422BD8FFF7EAFF002409E08D
:10458000154B5B6804EB440103EB81012046FFF708
:1045900047FF0134A542F3D81148057008F044F9EB
:1045A00010F1160F13D00E4B1A780C4BD3F8903035
:1045B000C3F307239A4207DA084BC3F89820002177
:1045C000C3F8A0100132F0E7FFF7B6FF002038BDB6
:1045D0004FF0FF30FBE700BF08FE000000ED00E0F9
:1045E000E32B002030B587B00D461146002400941F
:1045F0000194029403940494059402228DF80220FD
:10460000044A0192049005951A46684605F0D2FEC8
:1046100007B030BDE9C9000008B5024B1B689847D8
:10462000002008BD681E0020034B1860034A9378E1
:1046300043F0020393707047681E0020F8050020C5
:1046400008B5064921F00701C1F1005202F58022A8
:10465000034806F076FC002008BD00BF8754002008
:104660006C1E002008B501230A4AC2F840354FF0FD
:104670008042C2F8783508F0C2F920B14FF080438B
:104680000122C3F838264FF080430122C3F8802569
:10469000002008BD00E0014030B108B5034B8001A7
:1046A00043F00103984708BD704700BF00F10000C8
:1046B00010B5044608F0D4F9C0B104F00F0314F0AB
:1046C000800F0AD114F0080F14D103F10900400142
:1046D0004830094B1844043010BD14F0080F07D1BE
:1046E00058014830044B18440430F5E70020F3E744
:1046F0000248F1E70248EFE7781E0020C41F0020BF
:10470000E420002010B5002405E0E0B208F0C3F971
:1047100008F0CBF90134072CF7D9002402E008F0A7
:10472000C4F90134072C0AD8E0B208F0BAF90369D9
:10473000002BF4D10A4B03EB84130361EFE78820CD
:1047400008F0A9F908F0B1F9082008F0AAF90369FE
:104750001BB108F0AAF9002010BD024B0361F8E775
:10476000082500200821002008B500220023024867
:1047700004F010FA08BD00BF0408002010B504E0E2
:104780004168054809F073FC2CB1FFF7EDFF0446C2
:104790000028F5D1F8E710BD6407002000B583B00C
:1047A0000022002301A9154804F0ECF820B9019873
:1047B000406003B05DF804FB114A0121114807F085
:1047C0003EFBFFF7DBFF0022002301A90B4804F0AA
:1047D000D9F830B10C4A01210A4807F030FB00201B
:1047E000E7E70199496004230B74084809F074FD58
:1047F0000749084809F029FEF1E700BF64070020D7
:104800003CFE00006CF000005CFE0000040800208C
:10481000A01E0020B80E002010B50446FFF7BEFF12
:1048200050B10146002303740472064809F054FD98
:10483000054B93F8243003B910BD0449044809F02E
:1048400004FEF9E704080020781E0020A01E0020C6
:10485000B80E002008B5012809D002280AD040B1BE
:104860000346064A0121064807F0F3FA04E0002057
:1048700000E00120FFF7D0FF08BD00BF78FE000078
:104880006CF0000010B50820FFF712FF18B10446C5
:10489000037A33B910BD0F4A01210F4807F0CFFA50
:1048A000F8E7012343770377FFF778FF014658B114
:1048B0000123037403738460084809F00DFD08495F
:1048C000084809F0C2FDE5E7074A0121024807F060
:1048D000B6FADFE794FE00006CF000000408002048
:1048E000A01E0020B80E0020A8FE00004B7F4BB396
:1048F00070B584B00C460B7F0BB904B070BD0026B8
:104900004E770E7700F138054FF0FF324FF0FF334E
:10491000284604F069F8636901936368029303967B
:1049200001A9607A01F0AEF9074A904203D1284606
:1049300004F0DAF8E1E70346044A0121044807F0ED
:1049400088FAF4E7704700BF0000AD0BBCFE000022
:104950006CF0000010B5844644694FF0000EC4F8B6
:1049600000E0C4F804E01F4BD3F880242270D3F891
:1049700084246270D3F8881489B2D3F88C2412028C
:1049800092B20A436280D3F8901489B2D3F8942487
:10499000120292B20A43A280D3F8982492B2D3F8BA
:1049A0009C341B029BB21343E3800823C3600E4B6D
:1049B0002068616803C3DCF8003071469CF8090088
:1049C000984794F90030002B01DBE38823B9074BAB
:1049D0000022A3F88C2210BD044AA2F88C3201F008
:1049E000D5FAF8E7007002407C1E0020781E0020F7
:1049F00038B504680379032B06D8DFE803F0020614
:104A00000B102046FFF7A6FF38BD21460F48FFF7E1
:104A10006DFFF9E723680121607A9847F4E7A37AEC
:104A20000BB9E37F23B123680221607A9847EBE753
:104A3000074D4FF0FF324FF0FF33284603F0D4FF0D
:104A400001F082FB284604F04FF8ECE7781E0020C6
:104A5000B01E002010B50378042B1CD8DFE803F04B
:104A60001C030C2C3B0001F03DF8A0B900F0C8FF7E
:104A70001F4808F086F80EE01D4C204608F04FF85D
:104A8000002001F015F8012384F82530236813B1C4
:104A900000210220984710BD154C002384F82530D2
:104AA00001F07CFC204608F020F82368002BF2D0AF
:104AB000002104209847EEE70D4B93F82530002B9A
:104AC000E9D001F019F80A4B1B68002BE3D0002154
:104AD00005209847DFE7064B1B68002BDBD0044A14
:104AE00092F82520002AD6D0002106209847D2E748
:104AF000781E002008B509F02DFA01F04FFC00F0F7
:104B000075FFFFF73BFEFFF7FDFD09F01CFA0248B9
:104B100001F048F808BD00BFF14D000070B5054632
:104B20000FE06168334809F0A2FA0AE015F8043C86
:104B300023B304F10800FFF75BFF61682D4809F01B
:104B400096FAFFF711FE0446002852D02A4B93F83C
:104B5000253013B9237C002BE3D1237C042B42D8CE
:104B600001A252F823F000BF8D4B00002D4B000036
:104B7000974B0000C34B0000D74B0000A3685B7A43
:104B80001E4A01211E4807F064F9D2E704F108002B
:104B9000FFF760FFD1E705F110064FF0FF324FF04D
:104BA000FF33304603F020FFFFF7ACFD304603F043
:104BB0009BFF55F8283C002BBFD0002101209847CF
:104BC000BBE7FFF75FFE55F8283C002BB5D000216E
:104BD0000A209847B1E70B4A0121094807F02FF94D
:104BE000FFF788FFA9E7084A0121054807F031F9D6
:104BF000A3E770BD64070020781E0020E4FE0000DB
:104C00006CF000000CFF000024FF000070B582B0C3
:104C1000044685782846FFF74BFD064615F0800FC1
:104C200016D1E378002B32D0012B60D1FFF7B6FD0F
:104C30000146002861D001237377037403738660F3
:104C40002F4809F049FB2F492F4809F0FEFB54E09B
:104C5000E37843B1032B50D000952C4A01212C4816
:104C600007F002F949E0FFF799FD0146002844D01A
:104C70000023B37701230374032303738660204862
:104C800009F02AFB1F49204809F0DFFB35E0FFF758
:104C900085FD054688B301230374022303738660F0
:104CA00006F10C01A07801F047F8034690B9194BC2
:104CB000B3F88C32F268934212D8164B0022A3F854
:104CC0008C2229460E4809F007FB0E490E4809F0D0
:104CD000BCFB12E0104A01210D4807F0BAF8E6E7E4
:104CE0009B1A0C4AA2F88C3201F050F9E9E70095C2
:104CF000064A0121064807F0B7F802B070BD00BFB0
:104D000004080020A01E0020B80E00203CFF000078
:104D10006CF00000781E002068FF000070B582B0C3
:104D2000044685782846FFF7C3FC064615F0800F39
:104D300015D1E3788BB3012B46D1FFF72FFD014648
:104D4000002847D0012373770374037386602248D9
:104D500009F0C2FA2149224809F077FB3AE0E378EA
:104D600043B1032B36D000951E4A01211E4807F09F
:104D70007BF82FE0FFF712FD014658B30023B3770D
:104D800001230374032303738660134809F0A4FA14
:104D90001249134809F059FB1CE0FFF7FFFC0546D8
:104DA000C0B1A178114807F03AFEF06001232B74DE
:104DB00002232B73AE602946074809F08DFA074994
:104DC000074809F042FB05E00095064A0121064824
:104DD00007F04AF802B070BD04080020A01E0020B1
:104DE000B80E00203CFF00006CF000000070024094
:104DF00010B588B00023039304930593069307939B
:104E00000378013B052B1CD8DFE803F025031D21A7
:104E1000432903238DF81430FFF7C0FC034680B10B
:104E20009DF81C20027400F1080205A903C982E85C
:104E300003001946214809F04FFA2149214809F099
:104E400004FB08B010BD04238DF81430E4E70423FC
:104E50008DF81430E0E702238DF81C30DCE70446BF
:104E60008078FFF725FC837A012B0ED005D8002B24
:104E7000E7D12046FFF7CAFEE3E7023BDBB2012B96
:104E8000DFD82046FFF74AFFDBE72046FFF746FF63
:104E9000D7E701A801F054F89DF80530052B07D09D
:104EA0000020FFF705FC01238DF81C300590B3E7C7
:104EB0009DF8043013F0600FC3D0F1E70408002020
:104EC000A01E0020B80E002030B583B0124800F0BC
:104ED00069FE124B98421BD1114803F019F9114891
:104EE00003F046F9104D002400944FF0FF334FF4C7
:104EF00080620E49284604F001F80D49284604F066
:104F00004FF80C490C4809F085FA204603B030BD33
:104F10006FF00400FAE700BFF14D00000000AD0B98
:104F2000600001005C000100B80E0020803300200A
:104F300088FF00001D4B0000A01E002010B5184B7C
:104F400093F8243013B10024204610BD154C2046A0
:104F500009F00EF9002001F037FC44F81C0C002287
:104F60000121272007F001FC08F0EDFFFFF7CAFB45
:104F7000044618B90A4B012283F824200A4B1B6807
:104F80001BB10A490A4809F060FA4FF08043D3F890
:104F9000383413F0010FD7D00020FFF75BFCD3E7C4
:104FA000781E0020B01E002004080020A01E002053
:104FB000B80E0020074B93F824302BB1054B93F823
:104FC000253023B1002070476FF0120070476FF05A
:104FD00012007047781E002008B5027802F00F0119
:104FE000037903B951B9082910D8012B16D0012B28
:104FF0001AD012F0080F19D1002008BD0D4A012166
:105000000D4806F01CFF4FF0FF30F6E70B4A012178
:10501000094806F014FF4FF0FF30EEE712F0080FDA
:10502000E5D14FF0FF30E8E70020E6E74FF0FF3032
:10503000E3E700BF94FF00006CF00000B4FF000045
:1050400038B5154B93F82430FBB104460578284653
:10505000FFF72EFBE0B145722279827262884260CE
:10506000207810F0080F03D163885A1E134204D130
:10507000618800F085FD002038BD084A01210848FC
:1050800006F0DDFE6FF01500F6E76FF01200F3E7B3
:105090006FF01500F0E700BF781E0020D4FF00007D
:1050A0006CF0000038B5194B93F8243023B3044654
:1050B000164B93F8253013B3FFF7FAFA054608B3F9
:1050C000837A012B10D007D80BB901F043F80020E8
:1050D000E8606B69AB6138BD023BDBB2012BF6D8EF
:1050E000204600F0F9FEF2E7094A0121094806F0DE
:1050F000A6FE6FF01500EEE76FF01200EBE76FF021
:105100001200E8E76FF01500E5E700BF781E002009
:10511000FCFF00006CF00000114B93F824309BB1B1
:1051200010B504460E4B93F8253083B1FFF7C0FA53
:1051300080B114F0080F10D1204600F0F7FE204691
:1051400001F0D6F9002010BD6FF0120070476FF02B
:105150001200F8E76FF01500F5E76FF01500F2E7C1
:10516000781E002038B5104B93F824307BB10446EC
:105170000D460D4B93F8253063B1FFF799FA60B1F6
:1051800075B1204600F0B0FE2870002038BD6FF0E9
:105190001200FBE76FF01200F8E76FF01500F5E77B
:1051A0006FF01500F2E700BF781E002038B5154BF0
:1051B00093F82430EBB10446FFF77AFA0546D8B1EC
:1051C00014F0080F09D02B7ACBB901232B720D4BA9
:1051D00093F8253043B9002038BD204600F0A6FEE4
:1051E000204601F085F9EEE7204601F041F9002064
:1051F000F2E76FF01200EFE76FF01500ECE76FF0E9
:105200007700E9E7781E00202DE9F04184B01F46C1
:10521000414B93F82430002B72D004468846164642
:105220003D4B93F82530002B6DD010F0800F6DD0E2
:10523000FFF73EFA054600286BD0037A002B43D0D7
:105240004FF0FF324FF0FF33344803F0CDFBAB7F1C
:10525000002B42D11EB9EB7F0BB10023EB77AB7A69
:1052600063B95EB12C4A5289964207D26968B6FB8F
:10527000F1F201FB12620AB90122EA771BB900F0D0
:105280006FFF84422FD10123AB77CDF804800296C3
:105290000023039301A9204600F0F4FC0346204AB2
:1052A000904227D00022AA7707B13A601D4A012117
:1052B0001D4806F0CEFD6FF00404184803F014FCFE
:1052C000204604B0BDE8F0812346184A0121164863
:1052D00006F0BFFD6FF01504F2E7104803F004FC80
:1052E0006FF00A04ECE700F02FFF0C4803F0FCFB22
:1052F0000024E5E717B13E600024DEE70024DCE788
:105300006FF01204DCE76FF01204D9E76FF01504B8
:10531000D6E76FF01504D3E7781E0020B01E0020FA
:105320000000AD0B400001006CF000002000010007
:105330002DE9F0419846314B93F82430002B50D0A2
:1053400006460D4617462D4B93F82530002B4BD0C3
:1053500010F0800F4BD151B33046FFF7A9F9044646
:10536000002847D0037A3BB34FF0FF324FF0FF33B2
:10537000234803F039FBE3683E469F4228BF1E46A0
:105380001DB33246A169284609F0F6FBA3693344F0
:10539000A361E3689B1BE360B8F1000F01D0C8F87C
:1053A0000060174803F0A0FB0020BDE8F081002A50
:1053B000D2D06FF01500F8E73346124A01211248A7
:1053C00006F047FD6FF01500EFE7002FD9D1B8F1D7
:1053D000000F01D0C8F80030094803F085FB002019
:1053E000E3E76FF01200E0E76FF01200DDE76FF027
:1053F0001500DAE76FF01500D7E700BF781E002030
:10540000B01E0020200001006CF0000038B52A4BCF
:1054100093F82430002B42D00546274B93F82530D3
:10542000002B3FD010F0800F3FD1FFF741F9044629
:1054300000283DD0037A9BB14FF0FF324FF0FF338D
:105440001E4803F0D1FAE3682BB96369A361012315
:105450002377637F6BB9194803F046FB002038BD02
:105460002B46174A0121174806F0F3FC6FF0150090
:10547000F5E7FFF793F9014658B1012303748460FF
:105480000373114808F028FF1049114808F0DDFFA8
:10549000E1E70A4803F028FB6FF00B00DFE76FF04D
:1054A0001200DCE76FF01200D9E76FF01500D6E7C5
:1054B0006FF01500D3E700BF781E0020B01E00205B
:1054C000200001006CF0000004080020A01E002055
:1054D000B80E0020084B93F824303BB110B50C46B1
:1054E000FFF7E6F828B10460002010BD6FF012004D
:1054F00070476FF01500F8E7781E0020014B186028
:10550000704700BF781E002008B5074B93F8243081
:1055100023B1FFF7CDF820B1406808BD6FF012004D
:10552000FBE76FF01500F8E7781E002042B200F0AC
:105530000F0310F0080F09D1002A03DB064800EB27
:1055400083007047054800EB83007047002A01DBA9
:1055500003487047034870473071024008710240A9
:10556000507102402C71024042B200F00F0310F063
:10557000080F15D1002A09DB03EB83039B0003F11D
:10558000804303F51C33D3F80807704703EB83030C
:105590009B0003F1804303F51C33D3F808067047E2
:1055A000002A03DB034BD3F8A8077047014BD3F85D
:1055B000A8067047007002404FFA80FC10F0080FF8
:1055C00022D100F00F03BCF1000F0FDB10B4184C18
:1055D00003EB830004EB8000C0F80017C0F8042739
:1055E0000A33012244F8232010BC7047104803EB13
:1055F000830C00EB8C0CCCF80016CCF8042600EBE6
:105600008300012343607047BCF1000F07DB084BA8
:10561000C3F8A017C3F8A42701229A647047044B6B
:10562000C3F8A016C3F8A42601225A62704700BF2F
:105630000070024008B507F013FB18B1024B82223C
:10564000C3F81C2C08BD00BF0070024008B507F06D
:1056500007FB18B1024B0022C3F81C2C08BD00BF89
:105660000070024000B583B00023074A1370074A58
:105670001370019301238DF80430054B1B6801A8BA
:10568000984703B05DF804FBE72B0020E62B0020D1
:105690000029002000B583B000238DF804300C4BA6
:1056A000D3F82025ADF80620D3F8C03463B94FF401
:1056B0008071084A13680B431360074B1B6801A8ED
:1056C000984703B05DF804FB4FF00121F1E700BFFC
:1056D00000700240FC2800200029002000B583B0A3
:1056E000012303FA01F1154A13680B43136010F00C
:1056F000800F12D1124B1B6819420BD106238DF873
:1057000004308DF8060001238DF807300D4B1B681F
:1057100001A8984703B05DF804FB094B1B681942C8
:10572000F8D106238DF804308DF8060000238DF89B
:105730000730044B1B6801A89847EBE7FC280020C2
:10574000F82800200029002000B583B0114BD3F8C1
:10575000803413F0800F1BD100220F4B1A700F4AB8
:10576000136823F0011313600D4A136823F4803388
:10577000136043F0010313600023019305238DF8A8
:105780000430084B1B6801A8984703B05DF804FB80
:105790008022E2E700700240E62B0020F82800207B
:1057A000FC2800200029002010B582B01C4BD3F843
:1057B0000044C3F8004414F4807F0BD0194B01223D
:1057C0001A700023019302238DF80430164B1B68D6
:1057D00001A8984714F4007F0AD00023114A1370DF
:1057E000019303238DF804300F4B1B6801A89847E1
:1057F00014F4806F12D00B4B1B787BB10023094A45
:105800001370074A0121C2F808159165019304231A
:105810008DF80430044B1B6801A8984702B010BDF6
:1058200000700240E72B002000290020EFF31183D5
:10583000202282F31288BFF36F8F0C4AD2F8002C1B
:1058400072B90A4A49F27531C2F8001CC020C2F888
:10585000140CC2F8001C83F31188BFF36F8F7047DC
:10586000024AC021C2F8141CF5E700BF00E0064060
:10587000EFF31183202282F31288BFF36F8F0C4A5B
:10588000D2F8002C72B90A4A49F27531C2F8001CEC
:105890000020C2F8140CC2F8001C83F31188BFF377
:1058A0006F8F7047024A0021C2F8141CF5E700BF51
:1058B00000E00640EFF31183202282F31288BFF349
:1058C0006F8F0C4AD2F8002C72B90A4A49F275312E
:1058D000C2F8001C0320C2F8140DC2F8001C83F3A8
:1058E0001188BFF36F8F7047024A0321C2F8141D5D
:1058F000F5E700BF00E00640EFF31183202282F3BA
:105900001288BFF36F8F0C4AD2F8002C72B90A4A82
:1059100049F27531C2F8001C0020C2F8140DC2F81B
:10592000001C83F31188BFF36F8F7047024A002178
:10593000C2F8141DF5E700BF00E0064008B507F007
:105940007CF9C0B907F06FF9C0B9114B0122C3F857
:1059500000250F4BD3F8003413F4006FF9D00C4B33
:105960004FF40062C3F8002407F05DF948B907F06E
:1059700064F948B908BDFFF79DFFE3E7FFF756FF5D
:10598000E3E7FFF775FFF2E7FFF7B6FFF2E700BFC7
:1059900000700240F8B506460C4615464B68934227
:1059A00000D81D46216801F06043B3F1005F10D1BB
:1059B0002368336075606068401B606023682B4417
:1059C0002360A36813F0010F0AD0281E18BF01201E
:1059D000F8BD054F2A46384609F0CEF83760E9E7AA
:1059E000003818BF0120F3E7082700200023024AEF
:1059F0001360024A1370704700290020E82B002032
:105A000010B5244B4FF40062C3F80024FFF796FF53
:105A100007F030F910B1204B1B7863BB07F00DF98C
:105A200090BB07F0F6F858B11A4B40F2E372C3F896
:105A300000284022C3F80428BFF36F8FBFF34F8FB5
:105A4000144B8022C3F81C250122C3F83025134BC8
:105A500040F2FF121A600024114B1C60114B1C70A5
:105A6000FFF7F4FD104B1C70104B02221A7007F068
:105A7000E4F860B910BD0024064BC3F80045FFF7F9
:105A80005DFF054B1C70C9E7FFF714FFC9E7FFF77F
:105A900033FFEFE7007002401C070020FC280020C5
:105AA000F8280020E42B0020E62B0020E82B002023
:105AB00010B5084B00221A7050B9074B074CC4F8B8
:105AC0000033272006F047FE0123C4F8043510BD3B
:105AD000034BF3E7E72B0020FDFFDF0100700240DE
