:10000000806D0020E12C0000BDD00000CD2C000050
:10001000CD2C0000CD2C0000CD2C000000000000F5
:10002000000000000000000000000000592E000049
:10003000CD2C000000000000F12D0000CD2C0000B0
:1000400045300000453000004530000045300000DC
:1000500045300000453000004530000045300000CC
:1000600045300000453000004530000045300000BC
:1000700045300000453000004530000045300000AC
:10008000453000004530000045300000453000009C
:10009000453000004530000045300000453000008C
:1000A000453000004530000045300000453000007C
:1000B000453000004530000045300000453000006C
:1000C000453000004530000045300000453000005C
:1000D000453000004530000045300000453000004C
:1000E000453000004530000045300000453000003C
:1000F000453000004530000045300000453000002C
:1001000053B94AB9002908BF00281CBF4FF0FF317E
:100110004FF0FF3000F00CB8ADF1080C6DE904CEE3
:1001200000F01AF8DDF804E0DDE9022304B07047BE
:10013000704700BF10F8012B11F8013B012A28BFBE
:100140009A42F7D0D01A7047034613F8012B002AC1
:10015000FBD1181A013870472DE9F04786468C46C6
:100160000846089E154674461946002B40F0C2808A
:100170008542B2FA82F245D94AB1C2F1200300FAAF
:1001800002FC2EFA03F3954043EA0C0C94404FEA2C
:10019000154EA8B2BCFBFEF8230C0EFB18CC08FBD6
:1001A00000F943EA0C43994528D9EB1808F1FF37C9
:1001B00004D2994502D9A8F102072B44A3EB090305
:1001C000A4B2B3FBFEFC0EFB1C330CFB00F044EAB4
:1001D0000344A04214D92C190CF1FF3304D2A042DD
:1001E00002D9ACF102032C44241A43EA07401EB1A1
:1001F000D440002334607360BDE8F0874746DDE7F4
:100200006346F1E792BB431B01214FEA154EAFB2A3
:10021000B3FBFEFC200C0EFB1C330CFB07F840EA82
:100220000343984562D9EB180CF1FF3004D298458E
:1002300002D9ACF102002B44A3EB0803A4B2B3FB38
:10024000FEFC0EFB1C330CFB07F744EA0344A742F9
:100250004ED92C190CF1FF3304D2A74202D9ACF1CC
:1002600002032C44E41B43EA0040C0E7C2F1200330
:1002700020FA03F1954090402EFA03F303434FEA2E
:10028000154EAFB2B1FBFEFC0EFB1C10190C0CFBA3
:1002900007F841EA0041884504FA02F422D96918B6
:1002A0000CF1FF3004D2884502D9ACF10200294498
:1002B000A1EB08019BB2B1FBFEFC0EFB1C110CFB79
:1002C00007F743EA01439F420ED9EB180CF1FF31C7
:1002D00004D29F4202D9ACF102012B44DB1B41EA5C
:1002E000004192E76046E3E76146F7E76046A3E72F
:1002F0006346B7E7834206D916B9002108467BE773
:10030000C6E900E0F9E7B3FA83F78FB9834201D376
:10031000724508D8BEEB020460EB030301209C4643
:100320001EB9002168E73846FAE7C6E9004CF8E74D
:10033000C7F1200CBB4022FA0CF41C432EFA0CF13E
:1003400020FA0CF3B84001434FEA14490EFA07F5BE
:10035000B3FBF9F81FFA84FE09FB18300B0C08FBFD
:100360000EFA43EA00439A4502FA07F240D9E3182D
:1003700008F1FF3004D29A4502D9A8F102002344C3
:10038000A3EB0A0389B2B3FBF9F809FB183308FBA6
:100390000EFE41EA03418E452CD9611808F1FF3366
:1003A00004D28E4502D9A8F10203214443EA004059
:1003B000A0FB0298A1EB0E014145CE46434602D375
:1003C00006D14D4504D2B9EB020E68EB04030138A7
:1003D000002EA6D0B5EB0E0261EB030101FA0CFC76
:1003E00022FA07F34CEA0303F940C6E9003198E723
:1003F0004046C5E74346D9E770B5C0B0044631E092
:100400004FF48072A3681B69002B51D069462046C7
:100410009847051E4CDB2A4669463A480CF0D1FB4A
:10042000064685424BDC002E50D1A368DB6913B130
:1004300020469847B0B14FF48072694631480CF0BD
:100440001BFC0546002845D02F4B1B78002B45D1BF
:10045000A368DB68002B48D02A46694620469847A7
:10046000854245DC20460BF0A3FB002847D0204600
:100470000BF095FB002842D0234B1B78002BD4D1E6
:10048000A368DB6A1BB1204698470028CDD01D49E0
:10049000CA694B6849695B1AD21AFF2AB0D8002A88
:1004A000B0D120460BF075FB174B01221A70D9E72B
:1004B000164A012116480CF0BDFC0025ABE72B1AAB
:1004C000144A012112480CF0BFFCACE720460BF0A7
:1004D0004EFBAAE720460BF050FBC3E720460BF08B
:1004E00052FB094B00221A70B2E76FF05700B7E7D2
:1004F0002B1A094A012106480CF0A6FCB2E740B0CD
:1005000070BD00BF702300208C380020E017010070
:1005100034160100FC1701000C18010008B50C4846
:1005200010F004F868B10B4B4FF48062DA610A4AAC
:100530001A600022DA609A605A609A615A611A6100
:1005400008BD064A012106480CF074FCEBE700BF29
:10055000A013010070230020902300201C1801002C
:100560003416010010B5012208210C480BF029FBBC
:1005700060B964200BF02EFB084C0022084920468D
:100580000BF0E7FA20460BF0FEFA10BD0346054AD1
:10059000022105480CF058FCEBE700BFA013010056
:1005A000F9030000381801003416010000B583B0CB
:1005B00001AA01210BF024FB40B10346074A0221A6
:1005C00007480CF041FC03B05DF804FB019B054AB1
:1005D000032103480CF038FCF5E700BF6018010068
:1005E0005C1601008418010030B587B00546394B10
:1005F0000FCB06AC04E90F000024032C13D806AB84
:1006000003EB840353F8101C33480DF038F908B994
:100610000134F2E700902346304A012130480CF0C3
:100620001EFC00201EE02C480DF030F801281BD0E5
:100630002C4A0021284804F0B7FA002833D10122BF
:100640000021254804F086FC002833D100212248EF
:100650000BF0DFFA002D3BD029461F480DF061FE5C
:1006600078BB1D4807B030BD1F4A01211A4804F06D
:100670009BFA50B901221146174804F06BFC58B997
:10068000012115480BF0C5FAD2E7184A0121144898
:100690000CF0D0FB0020E5E7154A012110480CF0D2
:1006A000C9FB0020DEE7134A01210D480CF0C2FB14
:1006B0000020D7E70E4A012109480CF0BBFB0020BF
:1006C000D0E70D4A012106480CF0B4FB0020C9E731
:1006D0000148C7E7901701008C0C0020901801001A
:1006E0005C160100E8050020C8050020BC180100C8
:1006F000E4180100041901002C190100F0B583B0C1
:1007000000AF05460C460B78092B1ED948496E46AA
:1007100000233B7102237B7188B0EC461CF1100270
:1007200017D00E2022B1042802DD424BCCF8143041
:1007300000233B7002237B70C2B1082801DDCCF896
:1007400018100CF11C0300210EE03B4A52F8231054
:10075000DDE76FF00040E5E701F1080EBE441EF84A
:1007600008EC03F801EB01310129F5D90D2834DD3E
:100770000E234AB10321397100217971B971012128
:10078000F9717868CCF8100000216FF300016FF365
:1007900041016FF382016FF3C501032060F38811FB
:1007A000C3F30A0363F353216FF31F51002323485C
:1007B00001F08CF9B54628460CF095FF20B123785E
:1007C00073B12378012B16D02378092B1ED0237800
:1007D000082B29D00C37BD46F0BD6FF01B03C8E7CE
:1007E000284602F0EDFD0028EBD0154A0121134800
:1007F0000CF020FBE5E7284602F028FE0028E3D0B5
:10080000104A01210D480CF015FBDDE700237B6049
:100810003A1D042160680BF0F3F97B68002BD6D0F9
:10082000094809F0A1FBD2E76068FFF7BFFED1E7F6
:100830005019010054190100BC1A01005C16010096
:100840006819010088190100B00B002010B50B4891
:100850000CF049FF20B9094802F0B2FD044638B94E
:10086000074A032107480CF0E5FA0024204610BD92
:10087000054A012103480CF0DDFAF7E78C0C002053
:10088000AC1901005C1601006819010008B50B489D
:10089000FFF7AAFE70B10A4802F04EFD10B9FFF74B
:1008A000D5FF08BD074A012107480CF0C3FA6FF0D5
:1008B0001200F6E76FF01200F3E700BFFD0600003C
:1008C0008C0C0020C81901005C16010008B5FFF768
:1008D00025FEFFF7DBFF08B9012008BD034A01210F
:1008E00003480CF0A7FA0020F7E700BFE41A010064
:1008F0004C16010010B5124A032112480CF09AFA66
:10090000FFF7E4FFA8B10F4C0F4A032120460CF07B
:1009100091FA4FF0FF324FF0FF330C4809F068FBBB
:100920000B4A032120460CF085FAFFF71BFE00203E
:1009300010BD084A012103480CF07CFAF7E700BF1C
:10094000041B01004C160100201B0100B00B00200D
:10095000301B01000C1B01002DE9F04F91B00592F6
:100960000293134602F004020092C3F3C20210F095
:100970000303019340F02B8280468A460132041D16
:1009800000284FD0B8F1000F05D0A4EB08030433C2
:10099000534500F21F82029B5D1E019B0493069348
:1009A000039300264FF0FF3B0427B946B8F1000F30
:1009B00001D0029B2360531E0793002A40F35D8100
:1009C000059B13F0020228D00120A4EB08018B083C
:1009D0001AB1B1F5007F80F0038203990F2900F26C
:1009E0000282B8F1000F00F06081DBB201F1400239
:1009F0006A4402F8103C02F820BC002800F0518143
:100A000063F07F0301F140026A4402F8103C049B4A
:100A100001330493039B0133039304340022CC4637
:100A200040463DE001F0070A5444CAF1080AA9E72C
:100A3000002634E0002632E0002630E00827BC46DD
:100A40002DE025292BD10BF1010B01260427BC46F3
:100A500025E04729EED82A2914D32A39C9B24FF004
:100A6000010E0EFA01F14FF6DA7E11EA0E0F16D1E1
:100A700011F0625F40F0C08011F0010F40F08C80F7
:100A800000260CE0252903D10BF1FF3B002606E0F0
:100A900001D9002603E0202901D02329CCD11D460D
:100AA0006B1C6978002900F01981002EC9D07A29C1
:100AB000BED84C29CDD34C392E2961D80FF2040E63
:100AC0005EF821F09F0A0000810B0000810B0000FE
:100AD000810B0000810B0000810B0000810B0000E6
:100AE000810B0000810B0000810B0000810B0000D6
:100AF000810B0000910B0000810B0000810B0000B6
:100B0000810B0000810B0000810B0000810B0000B5
:100B1000810B0000810B0000F90B0000810B00002D
:100B2000910B0000910B0000F90B0000F90B000085
:100B3000F90B00009F0A0000910B00003D0A000025
:100B4000810B00009F0A0000810B0000550C000083
:100B5000910B0000550C0000810B0000810B000080
:100B60005D0C00008B0B0000910B0000810B00005E
:100B7000810B0000910B0000810B0000850B000031
:100B800000268CE70427BC4689E70427BC4686E795
:100B900029786C2924D000263C44013CB4FBF7F4AE
:100BA00007FB04F420B1211A6144514500F215817C
:100BB000002A58D1BCF1040F00F08880BCF1080F66
:100BC00040F014811A99073121F0070101F108055D
:100BD0001A95D1E9008908B1C4E9008908345EE7B3
:100BE00013F8021C6C2903D000260427BC46D3E767
:100BF00000260827BC46CFE729784C291AD01A9935
:100C0000073121F0070101F108061A96D1E90067C2
:100C1000073424F0070440B1211A0831514513D894
:100C200029784C2913D0C4E9006708340026082726
:100C3000BC4634E71A99073121F0070101F1080693
:100C40001A96D1E90067E3E76FF01B00BCE0C4E946
:100C50000067EAE700260427BC469DE732460026E7
:100C60000427BC4698E7E14680461A9A111D1A915E
:100C700012680292079A1D4698E6624B029A9A42BF
:100C800004D3614B9A420AD3002300E00023002BD7
:100C90007FF496AE059B03F00202002095E6012347
:100CA000F5E7069B01330693B4E610B10AF1010A99
:100CB000B0E6009B13B10AF1020AABE60298FFF717
:100CC00043FA0AEB000303F1020AA3E61A990D1D89
:100CD0001A95096800B121600434E0E68046231AC1
:100CE000B3F5806F80F0858090B1002202609B0890
:100CF0000370009B83B1069BC370049B88F802308D
:100D00001BBB019DDDF80C90DDF810B0029F3DE0AB
:100D10005344A3F1080057E0069B4370EDE701330D
:100D20009842EED903F140026A4412F8101C12F9FD
:100D3000102C002AF3DA01F07F01A4EB0802013243
:100D4000524559D804F8011BE9E7019B0398E7E7EE
:100D5000009B43B305F140036B4413F8203C04F8B7
:100D6000013B019EA4EB080333440133534546D8AD
:100D700005F140036B4413F8103C04F8013B324684
:100D80003946204610F007FA34440135A94519D9EF
:100D9000BBF1000FDCD005F140036B4413F9103CAC
:100DA000002BD5DAF1E705F140036B4413F8103C52
:100DB00058F82370002248F823203846FFF7C4F97A
:100DC000461CCFE7A4EB080011B0BDE8F08F6FF030
:100DD0000D00F9E76FF01B00F6E76FF01B00F3E77B
:100DE0006FF01500F0E76FF01500EDE76FF01500FC
:100DF000EAE76FF01500E7E76FF01B00E4E76FF03C
:100E00001B00E1E7CC120100BC3301002DE9F04FDB
:100E100097B000AF8346BA613B61D7F88030C3F327
:100E2000C0033B62F96011B90BF012F9F8609BF84E
:100E30000260B14636B1D7F8803013F0010F0DD102
:100E4000002300E000239BF803207A6242B1D7F828
:100E5000802012F0020F22D1002202E00123F2E7EB
:100E6000002202B9EBB19BF80050AA00BA60DBF88F
:100E700004207A610BEB8505BA69F2B1002B40F0D2
:100E80000481B9F1000F00F00F81D7F8803013F022
:100E9000040F40F00D810020F8610646F9E00122C0
:100EA000DFE7BB691BB13A69F96858469847FC68A7
:100EB00020465C37BD46BDE8F08FFC68E3B94D4481
:100EC00000233B6123E00444013501364E451AD22C
:100ED0002A7800235BF822201946B8690BF0CDF878
:100EE000BAF1000FEFD0D7F888309845EBD22AF846
:100EF000180008F10108E6E70026C7F81C80B04694
:100F0000D7F884A0E2E7C7F81080D7F81C80D7F89C
:100F1000803003F00503FB604FF0000AA146C7F8DC
:100F20001CB09CE000253B6A7BB9002D79D0D7F836
:100F3000803013F0010F79D1FB68002B6FD10223B1
:100F4000A9EB030988E00125EDE7594678690BF024
:100F5000DAF80028E9D06C46002387F82C30022309
:100F600087F82D308AB0694611F1100237D012256A
:100F70001AB1042D01DDB34B4B61002387F82830F3
:100F8000022387F829306ABB112D45DD122362B197
:100F9000042087F82C00002087F82D0087F82E0009
:100FA000012087F82F00F86A08616FF300086FF3DB
:100FB00041086FF382086FF3C508022161F38818B6
:100FC000C3F30A0363F353286FF31F58002341460A
:100FD0009D4800F07BFDA546A9F102093CE06FF0B9
:100FE0000045C5E72B46082D01DD786988610C2B8B
:100FF00001DDC1F81CB001F12003002009E000F17F
:10100000300C07F1280EF4441CF830CC03F801CB67
:1010100001300128F3D9B7E76FF01B03B7E70123CD
:101020008EE7D7F8803013F0020F15D00023224648
:101030001946B8690BF021F8D7F8843053B13B69F1
:10104000D7F88820934205D2D7F8842022F81300DD
:1010500001333B61013881440AF1010A35467B6A5C
:101060009A4510D22E4616F802BB6B78FA6952F8F0
:101070002340764B9C42FFF455AF754B9C42FFF4E6
:1010800062AF00254FE74C4612E707F1440000230A
:10109000FB6118B14A46294610F07DF84D444FF0E7
:1010A0000008C7F804901EE00020F8610646F0E74B
:1010B000FE6107F134000026EBE700253B6A33BBF5
:1010C000002D3BD0D7F8803013F0010F26D0731CD1
:1010D00006F1300207F12801561806F8149CDEB21A
:1010E00008F1010825467B6A98454AD22C4614F837
:1010F00002AB95F801905BF82930544A9342DCD357
:10110000534A934201D30025D8E70125D6E751463B
:1011100078690AF0F8FF0028D2D0E1E7D7F88030EC
:1011200013F0040FDCD0FA69531C303207F12801A8
:101130000A4402F8249CDBB2FB61D1E7D7F8803087
:1011400013F0020F09D0731C06F1300207F12801D9
:10115000561806F8149CDEB2C2E7F869431C00F189
:10116000300107F128028A1802F824AC0246023244
:10117000D2B2FA6107F1580252FA83F303F8249CC1
:10118000AEE7D7F804909BF8003087F854309BF80E
:101190000130334487F85530D7F8803013F0020F10
:1011A0000ED1FB69C3F3470387F85730D7F8803077
:1011B00013F0010F06D113F0040F3ED1002302E01B
:1011C0000023F1E7002387F85630DBF8000038638E
:1011D000786DCBF80000D7F810804246B9685846C1
:1011E000D7F818A0D047041EFFF662AE386BCBF8D4
:1011F0000000C7F810804246F96907F13400D04773
:1012000000285EDB04EB0008B96849447B6A01EB07
:101210004301D7F810904A46FB68591A2846D04730
:10122000041EFFF645AE08EB04054FF00008C7F8B2
:1012300024B0B3465446CA4621E0FB69C3E74FF0E9
:10124000000909E0481B010044160100CC1201000E
:10125000BC3301004FF000095246012107F12C0078
:10126000A04700282FDB05444B4632465146204616
:101270000AF003FF002828DB054408F10108D845DF
:1012800018D208F1300307F12802134413F8143C74
:1012900087F82C307A6A52F82360D7F88430002B14
:1012A000CDD0D7F888309845D4D2D7F8843033F8E9
:1012B0001890D1E73A6900210846BB6998472C4647
:1012C000F6E50446F4E50446F2E50446F0E500BF21
:1012D000014B1860704700BF4407002080B50546E9
:1012E0000E461746984609F013FC03460FF0E4FF3C
:1012F0000446DFF8189049F8003042463946304637
:10130000A84754F8090001F059FD00BF080000008B
:101310002DE9F04383B0044608461546238B13F0AD
:10132000080F05D103F0070600230093019354E052
:10133000012909D043F02003238385F31188BFF3EB
:101340006F8F03B0BDE8F08343F010032383F4E70D
:1013500020460BF05CFA42E0D4F814904A46694605
:1013600020460BF06DFA4FF00008238B03F00707BF
:10137000B74269D0A268002A66D0012243F0080370
:10138000238385F31188BFF36F8F002A64D1009BFC
:101390002BB14B463A46694620460BF0CAFAB8F1E3
:1013A000000F02D034492046C047EFF311852023B7
:1013B00083F31288BFF36F8F238B23F008032383FB
:1013C000238B13F0100F4DD023F010032383012043
:1013D000268B06F007060028AFD00228B8D00028D8
:1013E000ABD0013804282BD801A353F820F000BF5C
:1013F00059130000411400000514000019140000E6
:101400002D1400002369D3F80080062120460BF03C
:10141000D4F94FF00009A8E72369D3F80480042128
:1014200020460BF0CAF94FF000099EE72369D3F874
:101430000880052120460BF0C0F94FF0000994E721
:101440004FF00008C14690E7009A0AB1002295E7E4
:10145000B8F1000F92D1B3E74A46394620460BF067
:10146000B4F994E713F0200F04D023F02003238372
:101470000220ADE70020ABE761C9000038B50546A2
:101480000B4C00E010340B4B9C420FD263685B792D
:10149000002BF7D0294620460BF024FC0028F1D081
:1014A00023681B68294620469847EBE738BD00BFF4
:1014B000241701004417010070B506460D46084C7C
:1014C00004E02A463146204698471034054B9C429A
:1014D00004D223689B69002BF3D1F6E770BD00BFEF
:1014E00024170100441701002DE9F0410746054685
:1014F0000AE007EA0807144B03EB06135B680422B3
:101500001968204600F0B4FAD5B195FAA5F6B6FAF6
:1015100086F60D4C04EB06140123B3406FEA030872
:1015200025EA0305237B002BEED03301064AD3586E
:101530001B69002BDDD0204698470028E4D1D8E76E
:101540003846BDE8F08100BF241701002DE9F041C5
:1015500080460F46204BBFF35B8F53E8005F6A1C49
:1015600043E800210029F8D1BFF35B8F002D2FD174
:101570001A4C002607E0636804221968204600F030
:1015800077FA01361034164B9C4213D2237B002B82
:10159000F7D02368DB680BB12046984723681B69A6
:1015A000002BE8D0204698470028E4D00123B34020
:1015B0001D43E6E7B8F1000F0BD055B12846FFF701
:1015C00093FF0546002FF8D00A200BF091FBF4E7BB
:1015D00000252846BDE8F081A4270020241701003B
:1015E0004417010008B5064B186018B1054B1B687D
:1015F000092B00DC08BD044808F0B6FCFAE700BF80
:1016000098270020A0270020C00B002008B5024822
:1016100008F0AAFC08BD00BFC00B002030B589B09F
:1016200000220F490F480FF075FD0F4D00220023D7
:10163000CDE90623002404940E230393029401941D
:1016400000940A4B4FF48052094928460FF0E7FAFC
:101650000849284608F064FE204609B030BD00BFA6
:101660000D160000E81D0020300D0020C9190000F3
:10167000C0380020001C0100014B53F820007047C7
:101680001C1C010048B108B5054A1060054B1960E3
:10169000084600F00FFD002008BD6FF015007047F0
:1016A000480700209427002008B5054B1B781BB184
:1016B000034B01221A7008BD024808F055FCF7E7F9
:1016C0008D380020C00B002008B5104BBFF35B8F96
:1016D00053E8001F013143E80012002AF8D1BFF39C
:1016E0005B8F30B90A480FF021FD0A4808F03CFC36
:1016F00008BD094BBFF35B8F53E8001F013943E876
:101700000012002AF8D1BFF35B8FEBE79C27002083
:10171000E81D0020C00B0020A0270020064B002061
:101720000146BFF35B8F53E8000F43E80012002A25
:10173000F9D1BFF35B8F70479C27002038B5FFF7C6
:10174000EDFF0546094C00E01034094B9C420BD2DA
:1017500063685B79002BF7D023685B68002BF3D0BC
:10176000294620469847EFE738BD00BF24170100FF
:1017700044170100034B18680028D4BF0020012043
:10178000704700BF9C27002010B5044C0449204638
:101790000AF04BFE034B1C6010BD00BF940A0020F2
:1017A000081C01009027002008B50023064A13708A
:1017B000064A1360064A13604FF400410548FFF7DC
:1017C00061FFFFF7E1FF08BD8E3800209C27002055
:1017D000A0270020E9CC000008B5014601480BF025
:1017E0009DFA08BD940A002008B502480AF000FFDF
:1017F00008BD00BF940A002008B50146024B1868D6
:101800000BF092FA08BD00BF9027002008B50248EF
:101810000BF08EFA08BD00BF940A002010B582B00C
:1018200000220023CDE90023284B187808B902B024
:1018300010BD68460BF094FA044688B1244BBFF300
:101840005B8F53E8001F013943E80012002AF8D1EA
:10185000BFF35B8F2046FFF711FE2046FFF7CCFF5A
:10186000FFF788FF58B91B4A1368516813F57A735C
:1018700041F1000113605160FFF7C8FFD7E70FF097
:10188000DAFB4A0142EAD06243011B1A62EB010211
:10189000920042EA93729B001B1842EB0102D200B5
:1018A00042EA5372C3F3103343EA4243D20B09486E
:1018B000016840685B1A62EB000240F2E9318B423A
:1018C00072F10002CFD3FFF739FFCCE78D3800204B
:1018D000A0270020E01D00200F4B1B7803B17047AC
:1018E00010B500210120FFF731FE0C4C00E0103450
:1018F0000B4B9C4208D263685B79002BF7D02368BE
:101900009B6820469847F2E7FFF788FF0028FBD145
:10191000014B01221A7010BD8E38002024170100DF
:101920004417010010B582B01A4BBFF35B8F53E828
:10193000002F511C43E800100028F8D1BFF35B8F43
:10194000154B1B7863B9154B1B68B3B1BAB1092AA3
:1019500013D113480FF0EAFB124808F005FB0CE026
:10196000EFF31184202383F31288BFF36F8FFFF707
:1019700055FF84F31188BFF36F8F02B010BD0022B2
:101980000023CDE900234FF400420023044809F06E
:10199000F7FBF2E7A02700208E38002098270020D0
:1019A000E81D0020C00B002010B50446044B1B6846
:1019B0009847A060214603480BF0D6F910BD00BF40
:1019C00048070020940A00202DE9F0410021084634
:1019D000FFF7BCFD804650B140F2676600270FF06C
:1019E0006BFC154B1858FFF7FDFD002515E04FF077
:1019F000FF364FF0FF37F2E74046FFF775FD8046B0
:101A000070B94FF0FF364FF0FF3709E02C463246F1
:101A10003B460A4808F0ECFA2546B8F1000FEBD136
:101A2000FFF7FCFE04460028F6D1002DEED0002181
:101A30000846FFF741FDEAE708000000C00B002060
:101A40000248034BC01AC008704700BF24170100AA
:101A50003416010010B50C46FFF7F2FFA04203D97F
:101A6000024B53F8340010BD0020FCE7341601008F
:101A700008B5094BC31A1B110133D0F804C08CF808
:101A8000043043689A7143681960436801225A71AF
:101A9000FFF70AFE08BD00BF2417010000B589B09A
:101AA000059206930023079362B1074A0C9B0293A9
:101AB0000B9B01930A9B009305ABFFF7A7F909B0B5
:101AC0005DF804FB0022F1E779CD00002DE9F04F2D
:101AD0008BB004AF05461E468846C1F34A24002C4D
:101AE00000F0898091460022FA603A617A6104230D
:101AF0000293FB1801930A23009307F10C0321467C
:101B00004846FFF783F9B0F5006F58D3D9F80410B1
:101B10006D4600233B7302237B738AB004AC14F13F
:101B2000100217D012201AB1042801DD3B4B63616B
:101B300000233B7002237B70CAB10346082800DDF6
:101B4000A1610C2B02DD40F2FF73E36104F120037D
:101B500000210AE06FF00040E5E701F118063E447D
:101B600016F8186C03F8016B01310129F5D9112819
:101B700022DD122342B10421397300217973B97334
:101B80000121F973F868206100216FF300016FF300
:101B900041016FF382016FF3C501022060F38811E8
:101BA000C3F30A0363F353210023C1F313011C4859
:101BB0000BF062F9AD462DE06FF01B03DAE760F33E
:101BC0005328C0F30A0A0AEB1850173020F0070018
:101BD0008008FFF701FE8346B0B104230293FB188F
:101BE00001930A230093534600F110022146484610
:101BF000FFF754FF08E004EB1154173424F00704F6
:101C0000A008FFF7E9FD8346334642462946584679
:101C10000BF0C8F81C37BD46BDE8F08F3C1C010036
:101C2000641601002DE9F04F85B080460D46174639
:101C30001E46DDF838B0DDF84090B9F1000F41D014
:101C4000119B039300934B460F9A10210020FEF73F
:101C500083FEB0F5006F2DD282460BEB00031733E5
:101C600023F0070300246FF300046FF341046FF3C4
:101C7000820468F3C50467F3881460F353246BF39C
:101C80001F549808FFF7A8FD074650B11030B9F16E
:101C9000000F06D0119B00934B460F9A5146FEF75A
:101CA0005BFE33462246294638460BF07BF805B0EA
:101CB000BDE8F08F40F2FF73034A022103480BF0A6
:101CC000C3F8F4E70020C7E77C1C0100641601009C
:101CD000406820B1034BC01A40F3CF0070474FF06B
:101CE000FF307047341601000EB400B582B00146D3
:101CF00003AB53F8042B0193034801F0B5FA02B08B
:101D00005DF804EB03B07047AFCE000010B584B0AF
:101D100011F0440F05D01A4B1B6833B9002004B0F2
:101D200010BD1849FFF7E0FFF9E717490968B2FB52
:101D3000F1F2B2FBF3FC03FB1C224FF47A7E0EFBA4
:101D400002F2B2FBF3F403FB14210EFB01F1B1FB31
:101D5000F3F10E4AA2FB0C32D20A4FF4616303FB8B
:101D600012CC0B4BA3FB0CE35B0902910194C3EB78
:101D70000311ACEB810100910649FFF7B5FFCEE7F7
:101D8000AC270020B41C0100A8270020C5B3A291F5
:101D900089888888C01C010061B108B52AB1064A4B
:101DA00052F8232012B9054A00E0044A0449FFF71B
:101DB0009BFF08BD704700BF601D0100DC1C0100D7
:101DC000E41C01002DE9F04105461746069EDDF8AA
:101DD0001C8081B900242EB1324611492846FFF7F4
:101DE00083FF0444B8F1000F14D06FB1099B042B9A
:101DF00013D00C4909E00C4B099A53F822200B49E7
:101E0000FFF772FF0446E6E7064942462846FFF719
:101E10006BFF04442046BDE8F0810549F5E700BFAB
:101E2000FC1C0100EC1C0100741D0100F41C0100ED
:101E3000E81C01002DE9F04F87B005460C460492DE
:101E400005939DF84C7001F0020B01F0010AC1F3FB
:101E5000C00801F480790AF08DFF18B302461649D4
:101E60002846FFF741FF0646BBF1000F1CD13A465A
:101E7000514628460BF046F8B9F1000F01D0002377
:101E800011930397129B0293119B0193109B009354
:101E90000023049A41462846FFF794FF304407B0D8
:101EA000BDE8F08F0026DFE7059A21462846FFF7B8
:101EB0002DFF0644DBE700BF001D010011F0100FED
:101EC0000BD108B511F0200F03D00449FFF70CFF28
:101ED00008BD0349FFF708FFFAE770477C1E0100C1
:101EE000883201002DE9F04105460F461646984616
:101EF0000699FFF7E3FF0024444505DA2449284604
:101F0000FFF7F2FE0134F7E7002409E020492846F4
:101F1000FFF7EAFE0BE01F492846FFF7E5FE013414
:101F20000F2C0CDC002C02DD14F0070FEED0B442B5
:101F3000F1D23A5D18492846FFF7D6FEEFE7174978
:101F40002846FFF7D1FE002409E011492846FFF793
:101F5000CBFE0BE012492846FFF7C6FE01340F2CDA
:101F600013DC002C02DD14F0070FEED0B44207D2D0
:101F70003A5D0C4B9B5C13F0970FEBD12E22E9E7F7
:101F800003492846FFF7B0FEE8E7BDE8F08100BF4F
:101F9000F81C01000C1D0100041D0100101D0100B2
:101FA000141D0100AD3201002DE9F04184B004465A
:101FB0009DF82C500C9F0E9E95B9012B1ED01948F0
:101FC0004FF0000827B13B46224617490AF06BF84C
:101FD000C6B905BB20460AF053FF04B0BDE8F08146
:101FE00003950A980290019300920B4600220F99E4
:101FF0002046FFF71FFF80460C48E3E70B484FF0F1
:102000000008DFE70F9B0093434632460D992046B8
:102010000AF090FFDDE72A460F9920460AF07EFF7E
:10202000D8E700BFE7CE000069320000AFCE000065
:102030002DE9F04383B00646056842F20F738B42E8
:1020400028BF0B46184A0521684609F0F9FA0446EC
:102050007368D3F804900B27DFF8508005E04A46F8
:1020600039464046A8473F1A8044002FF7D173688D
:10207000D3F804806F4605E0424621463846A8471B
:10208000241A0744002CF7D173685F681B24084E9C
:1020900005E03A4621463046A847241A0644002C5B
:1020A000F7D103B0BDE8F0836C250100341D0100B9
:1020B000181D0100074B01221A6004E04008054A80
:1020C00013685B001360044B9842F7D8034B186009
:1020D000704700BFA827002040420F00AC27002017
:1020E000034B01221A70034B034A1A60704700BF6A
:1020F0008F380020D8270020DC27002008B5034BAC
:1021000001221A7002480AF063FF08BD90380020CF
:10211000B41D0100014B196000207047C427002046
:1021200008B518B9074B00221A7008BD064B1B787A
:1021300023B141F288300EF0F3F9F6E705200AF0FA
:102140005EFFF2E78F3800209038002038B5044653
:102150000A4B01221A700A4B1B782BB938BD651E39
:102160002046FFF7DDFF2C46002007F0F5F9002898
:10217000F4D0024B1B78002BF1D1EFE78F38002011
:10218000903800202DE9F04107460E464FF0040834
:102190000DE032463946002007F076F9044616E095
:1021A0004046FFF7D3FFF4B9134B1B78DBB1134B59
:1021B0001B78002BEDD10EF0A6F9054632463946C4
:1021C000002007F061F9044628460EF0A4F9002C1F
:1021D000E6D1094B1B78002BE5D008F1FF384046CB
:1021E000FFF79EFFDFE714B9034B1B7803B93446B2
:1021F0002046BDE8F08100BF8F38002090380020D5
:1022000008B50248FFF714FF08BD00BFB41D010068
:1022100010B50C46044B1868FFF72EFA03460F2240
:1022200021460248984710BDC4270020B41D010074
:1022300070B506460D46002405E0315D044883680C
:102240005B6898470134AC42F7D3284670BD00BFA5
:10225000B4130100014B036000207047181E0100F9
:1022600008B5034809F07CFF024809F079FF08BD72
:10227000181E0100501E010008B5024809F038F888
:1022800008BD00BF801E0100B0F5680F17D00CD844
:1022900040F6BA63984214D0B0F5683F13D03A289C
:1022A00001D00120704700207047094B98420CD0A4
:1022B000084B984201D00120704700207047002051
:1022C000704700207047002070470020704700BF13
:1022D0003A00003A2C5F5CA9E8B108B54268B2F553
:1022E000683F07D00F498A421AD0006807F0ACFD5A
:1022F000002008BD03680022BFF35B8F53E8001F76
:10230000012903D143E800200028F7D1BFF35B8FF8
:1023100004D11046EDE76FF4E04070470248E8E76B
:102320000248E6E72C5F5CA9E98FFFFFEA8FFFFF19
:1023300030B308B54268B2F5683F0CD012498A4202
:102340001CD000684FF0FF324FF0FF3307F0FCFC69
:1023500088B10E480FE003680122BFF35B8F53E89A
:10236000001F002903D143E800200028F7D1BFF364
:102370005B8F01D1002008BD0448FCE70448FAE760
:102380006FF4E040704700BF2C5F5CA9E98FFFFF4E
:10239000EA8FFFFF10B50446A8B16368B3F5683F44
:1023A00010D0B3F5680F0DD00D4A93420AD013F444
:1023B000686F0DD021680B480EF08FF90023236061
:1023C000074B636010BD084B5B6808489847E4E71B
:1023D000236800221A605A609A60DA601A61EFE797
:1023E0002C5F5CA91C2D0020240A0020881E0100FF
:1023F00010B5044668B36068B0F5683F28D0B0F502
:10240000680F25D0174B984228D0FFF73DFFC0B189
:102410004FF0FF324FF0FF332146134807F074FBB3
:1024200008B923681BB9114B5B68114898472368AA
:1024300000221A605A609A60DA601A614FF4686389
:10244000636020680EF0CAF9636843F03A03636082
:1024500010BD064B5B6807489847CCE72368002B04
:10246000D3D1D5E72C5F5CA91C2D0020240A0020C5
:10247000B01E0100881E010008B540231422044943
:1024800004480EF01CF90449044808F0A3FF08BDF5
:102490001C2800201C2D0020E01E0100F41E01005D
:1024A0002DE9F04182B000AF0446D0F800E0D0F84A
:1024B00004C085686E468AB06B4613F1100200F0C6
:1024C000888014218AB10846042903DDDFF81C81C5
:1024D000C3F81480082801DDC3F818E00C2801DDDA
:1024E000C3F81CC0102800DD1D62132974DD1425FB
:1024F0003AB10521397100217971B971F9717868A2
:10250000186100216FF300016FF341016FF3820145
:102510006FF3C501012363F38811C5F30A0565F361
:1025200053216FF31F5100233148FFF7CFFAB5460F
:10253000D4F80CC026696569E8468AB06B4613F189
:1025400010024CD0142182B10846042903DDDFF8C3
:10255000A4E0C3F814E0082801DDC3F818C00C2873
:1025600000DDDE61102800DD1D6213293ADD14252F
:102570003AB10521397100217971B971F971786821
:10258000186100216FF300016FF341016FF38201C5
:102590006FF3C501012666F38811C5F30A0565F3DB
:1025A00053216FF31F51124D00232846FFF78EFA77
:1025B000C546E369104A314628460AF045FCA3693E
:1025C0000E4A314628460AF03FFC0837BD46BDE8B2
:1025D000F0816FF0004175E76FF01B0588E76FF041
:1025E0000041B0E76FF01B05C2E700BF041F010008
:1025F0009C160100341F0100641F0100741F0100BC
:1026000038B504460D4611B10846FFF749FF012CC5
:1026100004D02946204606F0FBFF38BDEFF30583C2
:10262000103B034A012103480AF00EFCF1E700BF0A
:10263000A41F01009C16010030BFFFF7FDBF00BFC3
:1026400038B50446054D2A4605490EF0A4FD054A55
:10265000002160190EF0ADFD38BD00BF0000000084
:10266000881701000800000070B50646064D074BAC
:102670001D444C1B2046FFF7E3FF083CC6F8A4406E
:1026800005F1080070BD00BF000000000800000058
:10269000074B9B6893F90E20002A08DB044A526915
:1026A000934204D0034A536843F080535360704709
:1026B0007436002000ED00E081690D4B5A6942F448
:1026C00080725A61BFF34F8FBFF36F8F31F8021CD6
:1026D0005A6922F480725A61BFF34F8FBFF36F8F34
:1026E0004DF60273994201D00020704701207047D7
:1026F00000ED00E04FF0000C83F800C002F07F4CCA
:10270000BCF17F4F14D102F00C0CBCF1080F04D0C7
:1027100012F0080F09D00846704708B5054A012194
:1027200005480AF087FB002008BD01221A70704797
:1027300000207047B81F01009C16010008B52B4A05
:1027400001212B480AF076FB2A4B9B6A13F0007F8D
:1027500021D11D20274B9B6A13F0807F22D1254B6E
:102760009B6A13F4002F24D1224B9B6A13F4802F11
:1027700026D1204B9B6A13F4003F28D11D4B9B6A46
:1027800013F4803F2AD11B4A936A6FEA03436FEA2E
:102790001343936208BD184A012115480AF04AFB09
:1027A0001E20D7E7154A012111480AF043FB1F20DC
:1027B000D5E7134A01210E480AF03CFB2120D3E75C
:1027C000104A01210A480AF035FB2220D1E70E4ABF
:1027D000012107480AF02EFB2320CFE70B4A0121F5
:1027E00003480AF027FB2420CDE700BFE41F0100C7
:1027F0009C16010000ED00E0FC1F0100102001000C
:102800002C2001004C2001007420010090200100C8
:1028100008B500230B70034A012103480AF00AFBA4
:1028200008BD00BFBC2001009C16010090B583B01C
:1028300000AF0F2923DC2F4C103900233B710223FA
:102840007B718AB0EC461CF110021AD0122022B122
:10285000042802DD284BCCF8143000233B700223FF
:102860007B70E2B10346082801DDCCF818400C2B40
:1028700001DDCCF81C100CF1200300210DE01F4CF1
:10288000DAE76FF00040E2E701F1080404EB070E1D
:102890001EF808EC03F801EB01310129F4D91128E5
:1028A00024DD12234AB10421397100217971B971F3
:1028B0000121F9717868CCF8100000216FF3000154
:1028C0006FF341016FF382016FF3C501012060F3E3
:1028D0008811C3F30A0363F353216FF31F510023DD
:1028E0000748FFF7F3F80C37BD4690BD6FF01B03A8
:1028F000D8E700BFE020010014210100F82001000A
:102900009C160100F8B505460F461446374A0121CA
:1029100037480AF08FFA374B9B6A13F4805F25D152
:102920001626344B9B6A13F4006F26D1314B9B6AF9
:1029300013F4007F28D12F4B9B6A13F4806F3FD193
:102940002C4B9B6A13F4807F41D12A4B9B6A13F472
:10295000005F43D1274A936A43F47F439362012186
:1029600028460AF0B1FB20703046F8BD224A01210A
:102970001F480AF05FFA1726D3E7204A01211C48B6
:102980000AF058FA1826D1E71D4A012118480AF022
:1029900051FA184A936B926A12F4004F01D119262A
:1029A000C9E7184A012112480AF04EFA37B1114A14
:1029B000936A23F4004393621926BCE71926BAE709
:1029C000114A01210A480AF035FA1A26B8E70F4AD7
:1029D000012107480AF02EFA1B26BBE70C4A012109
:1029E00003480AF027FA1C26B4E700BF282101009B
:1029F0009C16010000ED00E040210100542101007F
:102A000068210100842101009C210100B8210100FE
:102A1000D02101002DE9F04104460F461546464AF3
:102A2000012146480AF006FA454B9B6A13F0100F45
:102A30003CD11026424B9B6A13F0080F3DD1404B0E
:102A40009B6A13F0020F3FD16FF015083C4B9B6A55
:102A500013F0010F58D13A4B9B6A13F0200F5AD153
:102A6000374B9B6A13F0100F04D1354B9B6A13F060
:102A7000020F04D0324B5B6813F4006F52D1304B1D
:102A80009B6A13F0200F04D02D4A536A23F400539D
:102A900053622B4A936A43F0FF039362012120465D
:102AA0000AF012FB28703046BDE8F081254A01216A
:102AB00022480AF0BFF91126BCE7234A01211F482A
:102AC0000AF0B8F91226BAE7204A01211B480AF099
:102AD000B1F91B4BD3F834809B6A13F0800F03D1FC
:102AE0006FF015081326B1E74346194A0121134830
:102AF0000AF0AAF937B1124A936A23F0800393626D
:102B00001326A3E71326A1E7124A01210B480AF076
:102B100091F914269FE7104A012108480AF08AF922
:102B200015269DE72146404600F028FA0028A6D049
:102B300080F309880226A2E7002201009C1601000A
:102B400000ED00E018220100542101004C22010098
:102B5000642201007C220100D021010070B50646EC
:102B60000D462B4A01212B480AF064F900232B70F3
:102B7000294BDC6A14F002040AD1274BDB6A002BD4
:102B80000DDB254BDC6A14F080440ED1204670BD6D
:102B9000224A01211F480AF04DF90024F6E7204A95
:102BA00001211C480AF046F9F0E71E4A01211948A4
:102BB0000AF040F93046FFF77FFD98B9164B9B6A43
:102BC00013F0FF0F16D1144B9C6A14F47F4418D1F4
:102BD000114B9B6AB3F5803FD8D33046FFF7AEFD6B
:102BE0000446D3E73368104A01210A480AF02CF959
:102BF0003468CBE72A4601213046FFF70BFF044635
:102C0000C4E72A4601213046FFF77CFE0446BDE7B3
:102C10009C2201009C16010000ED00E0B42201009E
:102C2000D8220100E82201000823010030B58BB052
:102C30001F4B5D68C5F30805002383F31188BFF3BC
:102C40006F8F0DF12603FFF755FD04460DF12702A6
:102C500029460AF03BFA9DF827300BB10BB030BD86
:102C600005460DF1040C20686168A268E368ACE8D1
:102C70000F0020696169A269E369ACE80F009DF863
:102C800026304BB1089BC3F308025AB96FEA5323AD
:102C90006FEA4323089305E0089B23F4FF7323F0B6
:102CA0000103089301A92846FFF7AAFCD6E700BF55
:102CB00000ED00E0044B5A6942F010025A615A6973
:102CC00022F008025A61704700ED00E0EFF308803F
:102CD000EFF3098101B57246FFF7A8FF01BD00BF00
:102CE000002080F31488BFF36F8F114880F30888A9
:102CF00000201049087005F033FD00200E490860DF
:102D0000BFF34F8F00F030F8202080F311880B487C
:102D10004FF40461401880F30988EFF31480022116
:102D2000084380F31488BFF36F8F00F0E9F80000C8
:102D3000806D0020A138002094ED00E0C0530020F9
:102D4000084BD3F89000C0F30720002306E0054AA3
:102D5000C2F898300021C2F8A01001338342F6DB9C
:102D6000704700BF00ED00E010B572B6002484F398
:102D70001388FFF7E5FF234608E003F120010E4A20
:102D80004FF0FF3042F821000133DBB2072BF4D9BA
:102D9000002308E003F16001074A4FF0FF3042F8DA
:102DA00021000133DBB2072BF4D962B6BFF34F8F9A
:102DB000BFF36F8F10BD00BF00E100E008B50A4B04
:102DC0009B68834202D007F0A9FE08BDEFF305839C
:102DD000002BF8D0054B5A6842F080525A605A6A6C
:102DE00022F400425A62EEE77436002000ED00E063
:102DF00016498A684FF030001044EFF3098C80E8E0
:102E0000F01F202080F31288BFF36F8F104F4FF018
:102E100000664A698A603E604FF0A4041419206875
:102E20000C4C2060D2F8A8000023C2F8A83080F330
:102E3000118804B5104600F023F9BDE8044002F102
:102E4000300090E8F01F8CF309887047743600203A
:102E500004ED00E0382D00201EF0040F0CBFEFF34E
:102E60000880EFF30980816911F8021C0229FFD064
:102E700001B572460AF01CF901BD00BF002807DB4E
:102E800000F01F02400901239340024A42F820301B
:102E9000704700BF00E100E000280CDB00F01F02DB
:102EA0004009012393402030034A42F82030BFF309
:102EB0004F8FBFF36F8F704700E100E0002808DB01
:102EC0004901C9B200F1604000F5614080F800138B
:102ED000704700F00F004901C9B2014B1954704707
:102EE00014ED00E04209054B53F8222000F01F00CA
:102EF000012303FA00F01040704700BF00E100E03A
:102F000008B50B4B0B4A22F07F029A60BFF34F8F3C
:102F1000BFF36F8FD3F8882022F47002C3F88820A3
:102F200006F026FD07F06CFF00F072F806F07EFD5B
:102F300000ED00E00000000010B4A2F120040E49F2
:102F400042F8081C21F0010142F8081C42F8203C1C
:102F5000019B42F81C3C029B42F8183C039B42F840
:102F6000143C4FF0807342F8043C04650023C0F821
:102F7000A83010BC704700BFDD120000104B9B68EA
:102F8000BBB110F1160F0BD0D3F89420A2F1400C76
:102F9000844510D8824210D98A4207D80020704751
:102FA000D3F894208A4201D800207047D3F89400C7
:102FB000704700207047002070470020704700BF16
:102FC0007436002008B50E4615460A4A9060D0F8BF
:102FD000A420094B1A6000F053F82C4686F30988A8
:102FE0000020064B98472046002100220023044C75
:102FF000204700BF74360020382D002043D1000048
:10300000DD120000014B10221A61704700ED00E054
:10301000002206E003F00F030949194420230B7630
:1030200001322F2A0ADC53B2002BF3DB03F1604399
:1030300003F56143202183F80013F1E7704700BFD7
:10304000FCEC00E008B5EFF30583103B044A02EB0B
:10305000C301496852F833008847FFF719FB08BDE0
:10306000DC13010008B5034B034A012103480AF0B1
:1030700093F908BD00000420000000202423010073
:1030800008B5D0F89430403B0448036040234360C7
:10309000034B836001210AF083F908BD3C2D002019
:1030A00000000B15084AC2F898000B6823F01F03B4
:1030B000034343F01003C2F89C308B6843F00103D4
:1030C000C2F8A030704700BF00ED00E010B5044624
:1030D0000A4BD3F89030C3F30723013B984203D83F
:1030E000FFF7E0FF204610BD0346054A01210548D1
:1030F00009F0AAFE6FF01500F5E700BF00ED00E053
:10310000342301007C1601002DE9F04780460F466C
:103110009A461646002409E02946F0B20AF045F81E
:10312000064610F1160F1AD001360134BC4216DAE9
:1031300004EB440508EB85056A68002AF5D0BAF16E
:10314000000FE9D028460AF01FF80028E4D12346F2
:10315000044A0121044809F077FE6FF01506304655
:10316000BDE8F0875C2301007C16010010B5034C1C
:1031700001232278FFF7C8FF207010BD913800208E
:1031800008B500230B4A1278FFF7BEFF10F1160FA7
:103190000FD0024606E0084BC3F898200021C3F880
:1031A000A0100132044BD3F89030C3F307239342AD
:1031B000F1DC08BD9138002000ED00E0044B052251
:1031C000C3F89420BFF34F8FBFF36F8F704700BFDA
:1031D00000ED00E0BFF35F8F024B0022C3F89420A4
:1031E000704700BF00ED00E038B51C4B1D681C4B5C
:1031F000D3F89030C3F307239D422BD8FFF7EAFFA3
:10320000002409E0154B5B6804EB440103EB8101EA
:103210002046FFF747FF0134A542F3D81148057057
:1032200009F0E2FF10F1160F13D00E4B1A780C4B79
:10323000D3F89030C3F307239A4207DA084BC3F858
:1032400098200021C3F8A0100132F0E7FFF7B6FF85
:10325000002038BD4FF0FF30FBE700BF80230100A6
:1032600000ED00E09138002030B587B00D461146E2
:10327000002400940194029403940494059402227F
:103280008DF80220044A0192049005951A4668467A
:1032900008F002FA07B030BDA9D3000008B5024B10
:1032A0001B689847002008BD482D0020034B18607C
:1032B000034A937843F0020393707047482D00202F
:1032C0007407002008B5064921F00701C1F100523A
:1032D00002F58022034808F06BFE002008BD00BF05
:1032E000B78100204C2D0020034BC01A8010034BE7
:1032F00003FB00F0704700BFD00B0020398EE3388D
:1033000000EBC000014B03EB80007047D00B0020A6
:10331000024B0122C3F840250020704700E0014025
:1033200030B108B5034B800143F00103984708BD55
:10333000704700BFB017010038B5044607F0CEFA59
:1033400020460AF095F9A06980B394F8683013F02C
:10335000010F0ED10DF0EAF898B1204601F0BEFA47
:103360000546B0B1201D06F06FFD07F0CFFA2846E4
:1033700038BD104A0221104809F05CFD6FF0770556
:10338000F0E70E4A01210C4809F054FD6FF01205D8
:10339000E8E72822002104F120000DF00AFF94F84C
:1033A000683043F0010384F86830DBE76FF0120502
:1033B000D8E700BFD8230100F4160100042401005F
:1033C00038B504460AF054F994F8683013F0010F48
:1033D00019D094F8683013F0020F1CD1A0690BF0DB
:1033E000F2FC0546F8B920460AF099FB054600BBF9
:1033F00094F8683043F0020384F86830201D06F02A
:1034000023FD284638BD0D4A02210D4809F012FD62
:103410004FF0FF35F2E70B4A0221094809F00AFD97
:103420006FF07705EAE7084A0121054809F002FD37
:10343000E4E7A0690BF0F9FCE0E700BF28240100F5
:10344000F4160100502401007824010038B590F8EA
:10345000683013F0020F17D004460AF009F9002172
:10346000204601F067FBB8B9A0690BF0DEFC054609
:10347000C0B994F868306FF3410384F86830201DB8
:1034800006F0E2FC284638BD094A0221094809F045
:10349000D1FC6FF07705F5E7074A0121054809F0EF
:1034A000C9FCE1E7054A0121024809F0C3FCE0E755
:1034B00094240100F4160100BC240100DC24010066
:1034C00008B58368DB680BB1984708BD0DF0F4FEC2
:1034D000024B6FF085021A500020F6E70C00000046
:1034E00008B583689B680BB1984708BD0DF0E4FEF2
:1034F000024B6FF085021A500020F6E70C00000026
:1035000038B5044680690369D3F88020618C7F292F
:103510001BD8A38CCBB9E38CBBB994F8203013F043
:103520001F0F1BD194F82C30022B1FD012F0080F64
:1035300024D1012384F8353094F82C30012B2AD083
:10354000012384F82C30002506E00DF0B5FE154B64
:103550006FF085021A500025284638BD0DF0ACFEEC
:10356000104B6FF085021A500025F5E70DF0A4FE10
:103570000C4B4FF0FF321A500025EDE7C9B20AF0AC
:103580004FFA05460028D7D0638C074A0121074827
:1035900009F05AFCE0E7638C002BD1D1002584F8B8
:1035A0002C50D9E70C00000008250100D4160100BA
:1035B00010B5838C90F8202012F01F0F04D1044620
:1035C000190A13F0FF0F07D00DF076FE0A4B6FF0CB
:1035D00085021A50002010BD012280690AF03AFAD3
:1035E00018B9012384F83530F4E70DF065FE024B7D
:1035F0006FF085021A50EDE70C00000070B504462C
:1036000090F82130052B09D0002594F82130032BA8
:1036100013D0002384F83530284670BD90F822106E
:1036200080690AF0FDF905460028EED0638C0D4A4A
:1036300001210D4809F008FCE7E7638C022BE8D173
:10364000A68C360A00223146A0690AF003FA054624
:103650000028DED03346054A0121034809F0F4FB77
:10366000D7E700BF08250100D41601002C25010072
:1036700030B583B004460AF004F8628CFF2A21D8E2
:10368000E38CFBB994F8203013F01F0F24D194F889
:103690002C304BB382BB618C94F83430994246D0C5
:1036A000C9B2204601F046FA0546002833D1628CA3
:1036B000002A38D1012384F82C30052120460AF055
:1036C00041FE06E00DF0F8FD1A4B6FF085021A502E
:1036D0000025284603B030BD0DF0EEFD154B6FF010
:1036E00085021A500025F4E70DF0E6FD114B4FF06E
:1036F000FF321A500025ECE7D2B2014620460AF00C
:10370000C2FB0028C7D10DF0D7FD0A4B4FF0FF32A6
:103710001A500025DDE7638C0090074A0121074815
:1037200009F09DFBD5E7022384F82C30C5E700257E
:10373000CFE700BF0C0000004C250100D4160100AB
:1037400008B590F8203003F01F03012B08D00DF0CE
:10375000B3FD1C4B6FF085021A500023184608BDBC
:10376000C38C8BB9428CFF2A16D8818CFF2913D8C1
:1037700090F82C30022B17D00DF09EFD114B4FF01E
:10378000FF321A500023E9E70DF096FD0D4B6FF064
:1037900085021A500023E1E70DF08EFD094B6FF012
:1037A00085021A500023D9E7D2B2C9B20AF0B7FC99
:1037B000034610F1020FD1D10DF07EFD014A1350E6
:1037C0000023CBE70C00000038B5838CC28C7AB99B
:1037D0000446DDB290F82C209AB1012A19D094F851
:1037E000202012F01F021ED0022A32D0002306E051
:1037F0000DF062FD224B6FF085021A50002318462F
:1038000038BD0DF059FD1E4B4FF0FF321A5000230A
:10381000F5E7002BE3D00DF04FFD194B4FF0FF32D1
:103820001A500023EBE723B9638C012B09D0002346
:10383000E5E70DF041FD124B4FF0FF321A50002327
:10384000DDE794F868306FF3C30384F86830002331
:10385000D5E7638C0BB10023D1E72946204601F060
:1038600023FD03460DF028FD054A1350B3F1FF3F39
:10387000C5D00022294620460AF00DF90023BEE7F4
:103880000C00000070B5838CC28C32BB0446DEB2E3
:10389000418C022914BF002501253DBB90F82C2046
:1038A00042B3012A2DD094F8202012F01F0231D00B
:1038B000022A19D1C1B93146204601F0DBFC03468A
:1038C0000DF0FAFC1D4A1350B3F1FF3F33D0012233
:1038D000314620460AF0DFF806E00DF0EDFC174B0C
:1038E0006FF085021A500025284670BDFFF760FE74
:1038F0000546F9E70DF0E0FC104B4FF0FF321A508F
:10390000F2E7002BCFD00DF0D7FC0C4B4FF0FF327D
:103910001A50E9E743B90129E6D194F8683043F039
:10392000080384F86830DFE70DF0C6FC034B4FF066
:10393000FF321A50D8E71D46D6E700BF0C00000042
:1039400008B590F82130013B0A2B16D8DFE803F0C8
:103950000F1512150615151509150C00FFF7D0FDEA
:1039600008BDFFF785FEFBE7FFF7EAFEF8E7FFF784
:103970002BFFF5E7FFF786FFF2E70DF09DFC034B09
:103980006FF085021A500020EAE700BF0C0000002B
:1039900070B5838CC28C022A07D00DF08DFC274BAA
:1039A0006FF085021A50002070BD04460D46D9B252
:1039B00090F82C20BAB1012A1CD094F8202012F0E3
:1039C0001F0220D0022A2CD000260C35284609F0F0
:1039D0003DFEE38C83422CD90DF06EFC174B6FF04B
:1039E0000B021A50DFE70DF067FC144B4FF0FF326B
:1039F0001A50D8E7002BE0D00DF05EFC0F4B4FF0D3
:103A0000FF321A50CFE72BB994F86860B60806F079
:103A10000206DAE70DF050FC084B4FF0FF321A5067
:103A2000C1E720460AF066FC08B10126CDE7002672
:103A3000CBE73146284609F0F5FDB4E70C0000005D
:103A400070B50446C68C01F10C05284609F0FEFD50
:103A500086420DD2E68C204609F013FE68B101289B
:103A600015D00DF029FC0B4B6FF085021A500CE0BD
:103A7000284609F0EBFD0646EDE7E16E0A78B24212
:103A800028BF3246284609F0BBFD002070BD216FDB
:103A9000F4E700BF0C000000F0B583B005460F4608
:103AA00009F0EFFD40B1012814D00DF005FC304BBA
:103AB0006FF085021A500AE0EB6E5B88B3F5007F69
:103AC0000AD80DF0F9FB2A4B6FF085021A5000203E
:103AD00003B0F0BD2B6FF0E76946284609F054FFAC
:103AE0000C37384609F0B2FDBDF80260EB8C9E42FF
:103AF00028BF1E46864215D89DF80020B24228BF36
:103B000032466946384609F07BFD052E94BFB61B48
:103B1000053E002EDBD005F14803AC6CA34216D164
:103B2000002414E0384609F091FD0646E4E7227DC2
:103B3000B24228BF32462169384609F061FD237D33
:103B40009E4294BFB61BF61A36B9C0E70024002C7B
:103B5000BDD0637D0F2BEAD02246EB6CA342F5D09B
:103B60002468002CF3D0002AF1D11446EFE700BFFF
:103B70000C00000070B584B004460D4609F081FDCC
:103B800048BB236F0A228DF8042006228DF80520F9
:103B90005A88ADF806201A798DF808205A798DF8E0
:103BA00009209A798DF80A20DA798DF80B205B7C50
:103BB0008DF80C3000238DF80D30204609F066FD9D
:103BC00001280AD00DF078FB0F4B6FF085021A50D8
:103BD000002004B070BDE36ED4E7E68C0C352846B7
:103BE00009F034FDB0420AD9E08C9DF804208242ED
:103BF00028BF024601A9284609F002FDE8E7284649
:103C000009F024FDF1E700BF0C0000002DE9F043AE
:103C100085B08046894615461C4609F032FD0746A8
:103C20006CB1404609F032FD012806D00DF044FB8E
:103C30003A4B6FF085021A5066E017BB07466A1CC4
:103C4000D2B2394640460AF0E0F80646D8B13CB355
:103C5000426801AB1068516803C3127A1A700723D7
:103C60008DF8053001AC09F10C05284609F0EEFC91
:103C70002278824216D82146284609F0C1FCF6680F
:103C80002EE00027DBE76B1C254A0121254809F0BF
:103C9000DBF80DF011FB214B6FF085021A5033E079
:103CA0004468E0E7284609F0D1FC0246E3E754F80F
:103CB000041B284609F0A4FC23686BB11B785BB198
:103CC000284609F0C3FC23681A788242EFD92846B7
:103CD00009F0BCFC82B2EAE73346366806B15BB154
:103CE00066B1706883681B6B002BF5D03946984726
:103CF00004460028E0D1EFE71E46F1E7B9F81010BE
:103D0000B8F82630994203D8002005B0BDE8F0830A
:103D1000C91A284609F08FFCF6E700BF0C00000026
:103D200070250100D416010070B590F8346090F849
:103D30002C305BB10446C38C012B0ED00DF0BCFAC5
:103D4000104B6FF085021A50002070BD0DF0B4FAD0
:103D50000C4B4FF0FF321A50F6E701F10C052846E4
:103D600009F074FCE38C834206D90DF0A5FA054BEB
:103D70006FF00B021A50E7E73146284609F04BFC7A
:103D8000E2E700BF0C00000070B590F8203003F0AF
:103D90001F03012B07D00DF08FFA254B4FF0FF3298
:103DA0001A50002070BD04460D460AF03DF8B0B12F
:103DB0004268A38CFF2B19D81279934216D8DBB234
:103DC0000F2B1AD8234493F83660E38C012B1BD0B9
:103DD0000DF072FA164B6FF085021A50E1E70DF004
:103DE0006BFA134B4FF0FF321A50DAE70DF064FA1A
:103DF0000F4B6FF085021A50D3E70DF05DFA0C4BB4
:103E00006FF085021A50CCE70C35284609F01EFCED
:103E1000E38C984206D20DF04FFA054B6FF00B027F
:103E20001A50BEE73146284609F0F5FBB9E700BF56
:103E30000C000000F8B504460E4600F1200590F88D
:103E4000211009F057FC80B10746284609F091FD82
:103E500090B13B6983B132462946204698470246D5
:103E60000DF02AFA104B1A501CE00DF025FA0E4BFB
:103E70006FF085021A5015E0284609F06FFD58B121
:103E8000FB684BB1324629462046984702460DF062
:103E900013FA054B1A5005E00DF00EFA024B6FF0C5
:103EA00085021A500020F8BD0C00000070B584B0E7
:103EB0000546102168460BF0E2FB061E01DB0023DD
:103EC00019E016F1580F19D10E4A01210E4808F0D9
:103ED000B1FF13E003F110026A4412F8102C10092C
:103EE00059000A4C205C05F8130002F00F02013162
:103EF000A25C6A540133B342ECDB7600304604B076
:103F000070BD00BF98250100D4160100FC260100F9
:103F1000F0B58BB00E4615460023ADF80430437D56
:103F20008DF805308268244B1340244A93421AD0FE
:103F3000037D8DF8043007690C36304609F086FBA6
:103F40009DF804309D4200D91D46A8421DD32C4641
:103F5000022D28BF0224224601A9304609F050FB59
:103F60002D1B00241BE002A8FFF7A0FF002805DBA3
:103F7000013040008DF8040002AFDDE70DF09CF940
:103F80000F4B6FF085021A500FE0304609F05EFBD0
:103F90000546DCE7395D304609F044FB0134B4EBFB
:103FA000550FF7D315F0010F01D10BB0F0BD395DFE
:103FB000304609F030FBF8E700FF02000003020082
:103FC0000C00000070B582B006460D46032109F0D2
:103FD0002EFC08B3044609F0BBFC40BB237D8DF8E2
:103FE0000430637D8DF8053023691B88ADF80630F9
:103FF000F48C0C35284609F029FB844213D2F08C4E
:104000009DF80420824228BF024601A9284609F0F3
:10401000F7FA002002B070BD0DF04EF9074B6FF0BB
:1040200085021A50F5E7284609F010FBE8E7F28C04
:1040300029462046FFF76CFFEBE700BF0C000000AD
:1040400008B5428C90F820C01CF01F0F0ED1130A47
:10405000D2B2013B0E2B20D8DFE803F00B0E161F67
:104060001F19121F1F1F1F1F1F1F1C0009F021FDFA
:1040700008BDFFF7E5FCFBE70023FFF7C7FDF7E707
:104080000123FFF7C3FDF3E7FFF79CFFF0E7FFF71E
:1040900071FDEDE7FFF700FDEAE70DF00DF9034BC9
:1040A0006FF085021A500020E2E700BF0C0000000C
:1040B00008B590F821300A2B13D8DFE803F0061278
:1040C0001212121209120C120F00FFF761FC08BD48
:1040D000FFF7B6FFFBE7FFF727FEF8E7FFF754FE11
:1040E000F5E70DF0E9F8034B6FF085021A50002058
:1040F000EDE700BF0C00000038B504460D4600F1A6
:1041000020010DF0D9F8154B0022C25094F8202060
:10411000C2F3411312F0600F09D0033303F003031D
:10412000012B12D82946204609F0C3FC38BD0846A9
:1041300009F01FFC20B129462046FFF701FCF5E7F6
:1041400029462046FFF7B4FFF0E70DF0B5F8034B22
:104150006FF085021A500020E8E700BF0C00000055
:104160000A8A072A40F2ED80F0B583B000AF03461B
:104170002030CA68146852681C624260DD8C4C684A
:1041800064B109F0F6FB002800F08E80002D49D0C4
:10419000637E13F0020F09D000208BE06A4A0121F0
:1041A0006A4808F047FE6FF03C0083E06D4688B037
:1041B0006B4613F110022FD00C213AB108460429A6
:1041C00001DD634E5E61082800DD9C610B2926DD60
:1041D0000C243AB10321397100217971B971F97157
:1041E0007868186100216FF300016FF341016FF3EC
:1041F00082016FF3C501012363F38811C4F30A043C
:1042000064F353216FF31F5100235048FDF75EFC08
:10421000AD466FF015004DE06FF00041CDE76FF057
:104220001B04D6E7637E13F0040F01D0002041E0A9
:104230006D4688B06B4613F110022FD00C213AB1B5
:104240000846042901DD434E5E61082800DD9C61BB
:104250000B2926DD0C243AB1032139710021797133
:10426000B971F9717868186100216FF300016FF37B
:1042700041016FF382016FF3C501012363F38811DC
:10428000C4F30A0464F353216FF31F5100232F4832
:10429000FDF71CFCAD466FF015000BE06FF0004120
:1042A000CDE76FF01B04D6E73DB1637E13F0020F3C
:1042B0000BD000200C37BD46F0BD274A0121234812
:1042C00008F0B8FD6FF08500F4E76D4688B06B46E6
:1042D00013F110022FD00C213AB10846042901DD58
:1042E0001B4E5E61082800DD9C610B2926DD0C2435
:1042F0003AB10321397100217971B971F971786886
:10430000186100216FF300016FF341016FF3820127
:104310006FF3C501012363F38811C4F30A0363F348
:1043200053216FF31F5100230848FDF7CFFBAD4623
:104330006FF01500BEE76FF00041CDE76FF01B0492
:10434000D6E76FF015007047BC250100D4160100B8
:10435000E0250100F0250100042601002DE9F041CF
:1043600082B00B7E33F080071AD104460D46164604
:1043700000F1200802B312F10C0F1DD04A7E12F09A
:10438000010F19D116F1710F12D000965F4A012169
:104390005F4808F064FD284609F0E2F837462FE050
:1043A0005C4A01215A4808F045FD6FF0040727E0F8
:1043B000084609F0D5F823E06A7E12F0010F00D01C
:1043C00013B312F0040201D0002B6AD00AB1802B83
:1043D00076D0404609F0C2FA002840F08880E38C8D
:1043E000002B00F08C8016F10C0F00F086808021ED
:1043F000A0690AF0D7FB07460021204609F0C0FA61
:10440000384602B0BDE8F08129462046FFF7A8FEF5
:1044100000BB2946002009F0E1F8054618B3014623
:104420002046FFF769FE074618BB0CF045FF3A4BE4
:104430001B5813BB0121204609F0A2FA404609F09F
:1044400098FA08B1E38CE3B92946204600F0ECFE67
:104450000746D5E7314A01212D4808F0EBFC2846F4
:1044600009F07EF8B5E72E4A0121294808F0E2FC60
:10447000AFE7284609F074F8C2E7284609F070F85B
:10448000A7E7284609F0AEFA014620B1204600F021
:10449000CBFE0746B4E7234A01211D4808F0CAFCB9
:1044A00097E7204609F06EFA012803D1284609F063
:1044B00057F8A5E71C4A0221154808F0BBFCF5E7B0
:1044C000284609F04DF8204609F05CFA012808D189
:1044D00094F83570002F93D02046FFF78FF80746E9
:1044E0008EE7124A02210A4808F0A4FC88E78021DE
:1044F000A0690AF057FB07467EE7002178E7802194
:10450000A0690AF04FFB074676E700BF4C26010082
:10451000D4160100282601000C0000007C260100B2
:10452000BC25010094260100B4260100D826010014
:1045300008B500220023024805F018FB08BD00BFA3
:10454000780B002038B590F82C30022B00D038BD05
:104550000D4609F069FC08B1C4680EE0164A012155
:10456000164808F067FCF2E7606883685B690BB186
:1045700098470BE023464CB91C46002CE7D02B781B
:10458000032BF1D0052B0FD0022B06D02368002B74
:10459000F2D0002CF0D12346EEE7606883689B6977
:1045A000002BF3D09847F1E760688368DB69002B44
:1045B000ECD09847EAE700BF1C270100E416010091
:1045C00038B5044690F868306FF3820380F868309D
:1045D0000021806909F0B9FA00BB0021204600F0F3
:1045E000A9FA054608BB8021204609F07EFE10BBD3
:1045F000A0690AF0CFFB022823D094F868306FF34B
:10460000051384F86830002284F82C2094F8683070
:1046100062F3C30384F86830284638BD05460D4A66
:1046200001210D4808F006FCF6E70C4A01210A4872
:1046300008F000FCF0E70A4A0121074808F0FAFBFD
:10464000D6E794F86830012262F3051384F86830E5
:10465000D9E700BF4C270100E41601007C270100C8
:10466000A8270100F0B583B000AF0D464E68337E39
:1046700033F080034AD1D6F81E203146FFF76EFE94
:104680000446002C3ED096F818C06D686E468AB07D
:104690006B4613F1100240D0142182B10846042960
:1046A00003DDDFF884E0C3F814E0082800DD9C6136
:1046B0000C2801DDC3F81CC0102800DD1D62132981
:1046C0002EDD14253AB10521397100217971B971B6
:1046D000F9717868186100216FF300016FF34101EF
:1046E0006FF382016FF3C501012363F38811C5F3F2
:1046F0000A0565F353216FF31F5100230B48FDF7A3
:10470000E5F9B54620460C37BD46F0BDD6F81E206B
:10471000314609F024FC0446B3E76FF00041BCE7E2
:104720006FF01B05CEE700BFC8270100E4160100AB
:1047300030B585B03BE000220121204609F002FEA1
:1047400035E000221146204609F0FCFD2FE094F8E8
:10475000683043F0040384F8683001A92046FFF76D
:10476000F1FE00220321204609F0ECFD1FE094F841
:1047700068306FF3820384F8683001A92046FFF7A0
:10478000E1FE00220221204609F0DCFD0FE001A934
:104790002046FFF7D7FE0AE02046FFF711FF054647
:1047A00000220421204609F0CDFD002D33D14FF029
:1047B000FF324FF0FF3301A91A4805F043FA039B7B
:1047C0001B69D3F89C409DF80430072BEFD801A259
:1047D00052F823F043470000374700006F470000BE
:1047E0004F470000994700008F470000F547000041
:1047F0000148000001A92046FFF734FF0546D4E731
:10480000094A0121094808F015FB029A06212046B1
:1048100009F098FDCBE72A460721204609F092FDD2
:10482000C5E700BF780B0020F4270100E416010063
:1048300010B588B0214C00220023CDE906230023C7
:1048400004936FF0070203920293019300931C4BB1
:104850004FF480621B4920460CF0E1F91A492046CA
:1048600005F05EFD194B0EE003F114020021BFF3C9
:104870005B8F52E8000F42E8001CBCF1000FF8D13A
:10488000BFF35B8F1833124A9342EDD3114B0EE006
:1048900003F114020021BFF35B8F52E8000F42E8DE
:1048A000001CBCF1000FF8D1BFF35B8F18330A4A2C
:1048B0009342EDD3002008B010BD00BF201E0020A1
:1048C0003147000000490020FC190100000D0020C4
:1048D000180D0020180D0020300D002038B50446BA
:1048E00002460D4980690AF0C6FA48B9002384F8E7
:1048F0003430204600F0DEF8054640B9284638BD81
:104900000546064A0121064808F094FAF6E7A06930
:104910000AF0E8FAF2E700BF314500000428010080
:10492000E41601002DE9F0410E461546012424E06D
:104930003268DA4012F0010F35D03946304609F0BE
:1049400032F93946284609F02EF914F0800F33D198
:1049500004F07F022B68D34013F0010F0CD03368B2
:10496000D34013F0010F2BD04146304609F01BF91C
:104970004146284609F017F901340F2C29D8286838
:1049800040B35FFA84F864F07F03DFB2194603F0A6
:104990007F0303F11002D04010F0010FD5D00029A1
:1049A000C6DA1346C4E73B460B4A01210B4808F020
:1049B0004BFA6FF015000DE004F07F021032C9E7EA
:1049C000E3B2054A0121054808F03EFA6FF01500F0
:1049D00000E00020BDE8F081302801000C17010044
:1049E0002DE9F04784B007460E469046D2F8049071
:1049F000002503958DF80B50D468002C2FD00DF1B5
:104A00000B03009303AB22463146384609F04CF9BC
:104A1000824698B9606883689B6AABB198478246C2
:104A2000A0B93146606809F061FA0544234624685C
:104A3000002CE2D0002BE0D11C46DEE71A4A01210F
:104A40001A4808F0F7F906E06FF0850A184A0121C4
:104A5000164808F0EFF9504604B0BDE8F087093574
:104A6000ADB289F802502D0A89F803509DF80B3039
:104A700089F80430D8F80C4094B1E368A36004F1DD
:104A80000C0203A93846FFF74DFF82460028E2D109
:104A900023462468002CEFD0002BEDD11C46EBE719
:104AA0004FF0000AD7E700BF502801000C170100A3
:104AB0007428010070B5054609F08BF8AC6DBCB1E7
:104AC000224601212846FFF78BFF064638B92346C8
:104AD0002468002CF3D0002BF1D11C46EFE763686B
:104AE0005B79114A0121114808F0AEF9304670BDDA
:104AF0002C6DB4B1224600212846FFF771FF06460F
:104B000038B923462468002CF3D0002BF1D11C4681
:104B1000EFE763685B79064A0121044808F094F9DD
:104B2000E4E70026E2E700BF982801000C17010027
:104B3000BC2801002DE9F04104460D4608F0A1FD16
:104B4000064694F8343033B98DB984F834500027D0
:104B50003846BDE8F081204609F077F9074600287D
:104B6000F2D00F4A01210F4808F064F9F0E72A4615
:104B70003146204609F049F9804670B10246314677
:104B8000204609F0A0FA07460028E1D184F8345005
:104B90000121404609F013F9DAE76FF03C07D7E747
:104BA000BC240100CC1601002DE9F04106460D465B
:104BB0001446576809F020F996F8683013F0010F91
:104BC0001BD1012D21D0FB7913F0200F06D0B36942
:104BD0001B69D3F8803013F0020F23D029463046EA
:104BE00009F0E4F880466DB3012D39D1336D002B07
:104BF00043D09C421ED01B68F9E7414A012141483D
:104C000008F018F96FF00F0531E0304608F03EFD6E
:104C10000028D8D13C4A01213A4808F00BF96FF03E
:104C2000850524E0394A0121364808F003F96FF080
:104C300085051CE0364A0121324808F0FBF86FF088
:104C4000150514E0B36DC3B19C4201D01B68FAE7AF
:104C5000304A01212B4808F0EDF86FF0150506E009
:104C60002D4A0121274808F0E5F86FF08505301D31
:104C700005F0EAF82846BDE8F0812146404609F0F3
:104C800085F8A8B9E5B9F36E5B7C0133DBB26268E5
:104C90005371DDB9F26E5374A16809B3304608F060
:104CA000EEFD0546B0B9A06808F052FEB87118E0F4
:104CB00063685B79194A0221124808F0C5F8EBE7EE
:104CC000012D01D1336FDFE70023DEE7012DE3D1B2
:104CD000326FE0E7124A01210A4808F0ABF8C6E754
:104CE000002500232360D8F804301BB11C60C8F8ED
:104CF0000440BCE7C8F80440C8F80040B7E700BF6C
:104D000010290100CC16010034290100EC28010013
:104D1000542901007429010094290100B4290100DB
:104D2000D4290100F0B583B000AF0546D1B1012907
:104D30001AD1384C384B9C4216D263681968284601
:104D4000FBF7F8F900285DD01834F3E71834334B3B
:104D50009C4209D2636819682846FBF7EBF90028E2
:104D6000F4D14FE02E4CF2E76E4600233B71022354
:104D70007B7188B06C4614F1100211D00E201AB16C
:104D8000042801DD274B636100233B7002237B7005
:104D90009AB1082800DDA56104F11C0300210AE096
:104DA0006FF00040EBE701F108053D4415F8085CA1
:104DB00003F8015B01310129F5D90D2826DD0E2309
:104DC00042B10321397100217971B9710121F97161
:104DD0007868206100216FF300016FF341016FF3E8
:104DE00082016FF3C501012060F38811C3F30A0348
:104DF00063F353216FF31F5100230B48FCF766FE4A
:104E0000B546002420460C37BD46F0BD6FF01B03AD
:104E1000D6E700BF180D0020300D0020180D00202F
:104E2000000D0020102A0100DC16010070B50546B7
:104E300001F07F0311F0800F12D101249C4095F8FE
:104E40002C30022B10D195F83460284608F019FC5C
:104E500001463246284608F0D8FF58B1C0680BE03A
:104E6000103301249C40EAE7074A0121074807F074
:104E7000E1FF002070BD00680028FBD083681C4261
:104E8000F8D10028F7D1F7E7302A0100DC1601003D
:104E90002DE9F8430446084615461F461146FFF71C
:104EA00041FF00284AD00646204609F009F894F848
:104EB000683013F0010F29D1D6F8049006F11408D8
:104EC0000021404609F005F840BBD9F804300BB189
:104ED000A3422BD13B462A463146204608F0DAFF52
:104EE000054668B9BFF35B8F58E8003F43F0010304
:104EF00048E80032002AF7D1BFF35B8FC9F80440BD
:104F0000201D04F0A1FF2846BDE8F8830D4A0121C9
:104F10000D4807F08FFF6FF00F05F1E70B4A0221F4
:104F2000094807F087FF6FF00F05E9E7084A0121FC
:104F3000054807F07FFF6FF00F05E1E76FF01205FE
:104F4000E1E700BF10290100DC160100582A01002A
:104F50007C2A01002DE9F04383B000AF80460D4666
:104F60001646012978D000297BD16E4C6E498C42BF
:104F700080F0D180616833462A4609684046FFF7D1
:104F800087FF814600286FD11834EFE76FF00040AB
:104F90004CE001F108063E4416F8086C03F8016B7A
:104FA00001310129F5D9112822DD122342B1042152
:104FB000397100217971B9710121F971786828611D
:104FC00000216FF300016FF341016FF382016FF372
:104FD000C501012060F38811C3F30A0363F3532171
:104FE0006FF31F5100235148FCF770FDA54694E074
:104FF0006FF01B03DAE718344D4B9C422ED26168E8
:1050000033462A4609684046FFF742FF814600289A
:10501000F1D0636819686C4600233B7102237B71F1
:105020008AB06D4615F11002B0D012201AB10428D2
:1050300001DD404B6B6100233B7002237B70002A33
:10504000B1D00346082800DDA9610C2B00DDEE611C
:1050500005F120030021A4E7374CCDE74FF000090C
:105060005BE06FF0850958E0636819686C460023BF
:105070003B7102237B718AB06D4615F1100215D089
:1050800012201AB1042801DD2C4B6B6100233B7008
:1050900002237B70BAB10346082800DDA9610C2BFE
:1050A00000DDEE6105F1200300210AE06FF0004011
:1050B000E7E701F108063E4416F8086C03F8016BB7
:1050C00001310129F5D9112822DD122342B1042131
:1050D000397100217971B9710121F97178682861FC
:1050E00000216FF300016FF341016FF382016FF351
:1050F000C501012060F38811C3F30A0363F3532150
:105100006FF31F5100230948FCF7E0FCA54604E0BB
:105110006FF01B03DAE74FF0000948460C37BD4635
:10512000BDE8F083000D0020180D0020DC16010002
:10513000300D0020B42A0100180D0020E42A0100DF
:105140002DE9F04182B000AF0C461E4692F8028075
:1051500001294CD0022953D000295ED06FF085057B
:10516000D6F800C06E468AB06B4613F110024ED0DE
:105170001820A2B10146042803DDDFF8A4E0C3F83B
:1051800014E0082900DD9C610C2901DDC3F81C80B6
:10519000102901DDC3F820C0142900DD5D62172845
:1051A00038DD18243AB10621397100217971B971BD
:1051B000F9717868186100216FF300016FF3410104
:1051C0006FF382016FF3C501012363F38811C4F308
:1051D0000A0464F353216FF31F5100231148FCF7B5
:1051E00075FCB54628460837BD46BDE8F081114636
:1051F0001A46806909F02AF80546002DF2D0AFE77B
:105200001A464146806909F036F80546F5E76FF021
:105210000040AEE76FF01B04C4E70025E2E700BFE3
:10522000202B01000417010038B50B7E33F08002FB
:1052300019D105460C4613F0800F04D12146A86908
:1052400009F017FD38BD08F049FA20B92146284673
:1052500008F0D5FFF2E7054A0121054807F0EAFD0D
:105260004FF0FF30EEE76FF01500EBE7602B010029
:10527000FC16010070B504460D46806909F092FCE9
:10528000064630B9294604F1300008F08EFF30465A
:1052900070BD2B46024A0221024807F0D5FDF6E711
:1052A000742B0100FC16010070B504460D468069A0
:1052B00009F0A9FC064630B9294604F1300008F08F
:1052C00088FF304670BD2B46024A0221024807F093
:1052D000BBFDF6E78C2B0100FC16010010B584B075
:1052E00004466B4683E806000022002303A9154804
:1052F00004F00AFC00BB039B5C6008336A4692E83A
:10530000030083E80300EFF31181202383F3128865
:10531000BFF36F8F039B00221A600B4A52686AB179
:105320001360094A536081F31188BFF36F8F002225
:105330000023064804F0D6FF04B010BD024A5360B3
:105340001360F0E7D00A0020582D0020C004002090
:1053500038B50546EFF31182202383F31288BFF39B
:105360006F8F1D4B1B6882F31188BFF36F8F5B68D3
:1053700093F8683013F0010F25D0EFF3118320224A
:1053800082F31288BFF36F8F134A146824B1216827
:105390001160526894421BD083F31188BFF36F8F62
:1053A00044B16068C36904F10801984721460B487D
:1053B0000BF093F9084B1B6823B100220023284609
:1053C00004F090FF38BD2122002304F093FFF9E799
:1053D000014A5160E0E700BF582D0020D00A0020AC
:1053E00000B501690BF068FF094B1A58094B9A4246
:1053F00002D000205DF804FB91F84C300BB900207E
:10540000F8E78A6CD069536852699B1AC01AF1E7B1
:1054100008000000D01E002000B501690BF04CFF11
:10542000074B1A58074B9A4202D000205DF804FB44
:1054300091F844300BB90020F8E70120F6E700BFEF
:1054400008000000D01E002000B501690BF034FFF9
:10545000094B1A58094B9A4202D000205DF804FB10
:1054600091F84C3023B991F844301BB90020F5E78E
:105470000120F3E70120F1E708000000D01E002022
:1054800038B504690BF018FF174B1A58174B9A429E
:1054900001D0002038BD04F198050221284608F00B
:1054A000FDFF40B1236C1A699B689A4203D0012327
:1054B00084F8443002E0002384F844300321284675
:1054C00008F0ECFF50B1A26CD169536852699B1A85
:1054D0008B4203D0012084F84C00DBE7002384F8E2
:1054E0004C300120D6E700BF08000000D01E00208D
:1054F00008B51346026910694A78212A07D00BF0D3
:10550000DBFE0C4B6FF085021A50002008BD53B132
:10551000CA88072A28BF072200F1100103F10C00F6
:1055200008F06EF8F1E70BF0C7FE024B6FF00B02CC
:105530001A50EAE70C00000038B5056905F1980437
:10554000BFF35B8F54E8003F43F0040344E80032AC
:10555000002AF7D1BFF35B8F2B6C1A699B689A42C4
:1055600005D10421204608F099FF30B138BD05F17E
:10557000300105480BF0C9FAF3E705F1880102484C
:105580000BF0C3FAF2E700BFD01E002008B5016996
:1055900001F19803BFF35B8F53E8000F40F0080060
:1055A00043E80002002AF7D1BFF35B8F8A6CD06911
:1055B000536852699B1A834200D108BD30310248BA
:1055C0000BF0A3FAF9E700BFD01E002010B5046964
:1055D0000BF072FE084B1858084B984201D000207F
:1055E00010BD206C07F048FB034610B1012284F87F
:1055F00045201846F4E700BF08000000D01E002038
:1056000010B50469206C026983689A420AD00122AD
:1056100007F032FB48B104F1880105480BF075FA38
:10562000002010BD4FF0FF30FBE74FF0FF30F8E7F0
:10563000D01E002038B504690BF03EFE0D4B185803
:105640000D4B984201D0002038BDEFF31185202387
:1056500083F31288BFF36F8FA06C07F0B2FA85F363
:105660001188BFF36F8F0028EED0012384F84D30EE
:10567000EAE700BF08000000D01E002070B50669F0
:10568000356905F19804BFF35B8F54E8003F43F0A0
:10569000010344E80032002AF7D1BFF35B8F0221F7
:1056A000204608F0FBFE88B90321204608F0F6FEEC
:1056B00058B1AA6CD169536852699B1A8B4209D0C0
:1056C00005F1300107480BF020FA70BD3046FFF7B6
:1056D00033FFE9E70022002305F1580101480BF0F0
:1056E00030FAF2E7D01E002030B583B08DF80710F5
:1056F000046906E0164B01221A7020E0012009F02F
:1057000020F8EFF31185202383F31288BFF36F8F06
:1057100001220DF10701A06C07F053FA85F31188FF
:10572000BFF36F8F01280AD00BF066FA18B994F80E
:105730005030002BE2D1064B1B78002BDAD021220F
:10574000002304F1580103480BF0FBF903B030BD0E
:1057500092380020D01E00202DE9F04182B004468E
:105760000E46476803691D69002A3DD012F1710F8A
:1057700014D196F81880204608F0ACFE804516D06B
:1057800096F81880204608F0B4FE80451ED03146B9
:10579000384608F0A5FD02B0BDE8F0810B7E0A8A0C
:1057A00000923F4A01213F4807F059FBE1E705F12C
:1057B0009803BFF35B8F53E8001F21F0100143E80B
:1057C0000012002AF7D1BFF35B8FD9E79835BFF3FA
:1057D0005B8F55E8003F23F0200345E80032002AA4
:1057E000F7D1BFF35B8FD2E791F8188008F072FE13
:1057F000804512D096F81880204608F07AFE804541
:105800002CD096F81880204608F055FE8045BED171
:1058100005F19C0004F0A8FBB9E7328AF168286C16
:1058200007F0CFF930B1AB6A23B105F130011E4862
:105830000BF06BF905F19803BFF35B8F53E8001F82
:1058400021F0100143E80012002AF7D1BFF35B8F6B
:1058500005F1880114480BF058F9CBE7AB6A23B186
:1058600005F1300110480BF050F905F19803BFF332
:105870005B8F53E8001F21F0200143E80012002A4B
:10588000F7D1BFF35B8FAB6C1A699B689A42B8D0B3
:105890000022002305F1580103480BF052F9B0E74C
:1058A000BC2B0100C4160100D01E002038B545688D
:1058B000046920694B78202B08D0222B1FD00BF0D5
:1058C000FBFC144B6FF085021A5021E0CB88072BAC
:1058D00006D00BF0F1FC0F4B6FF085021A5017E069
:1058E000D3681A6802619A889B798282837508F06E
:1058F00050FD22460821284608F033FD08E04B8879
:10590000038308F08DFD22460921284608F029FD71
:10591000002038BD0C00000038B50569AB6C0024D0
:10592000DC609C605C609C615C611C612B6CDC6079
:105930009C605C609C615C611C61084905F15800D9
:105940000BF0F3F8064905F188000BF0C3F80549A0
:1059500005F130000BF0BEF8204638BD255B000095
:10596000895A00006959000070B550F8306C50F841
:10597000083C6BB3044600234377437503750377F4
:1059800000F168050221284608F088FD30B354F87C
:10599000083C54F8041C30699847637D2BBB637F37
:1059A0004BBB0221284608F079FD20B123691A6912
:1059B0009B689A422DD10321284608F06FFD30B133
:1059C000A269D169536852699B1A8B4226D170BD76
:1059D000154A0121154807F02DFAF8E7032128465A
:1059E00008F05CFD0028D8D0D1E704F15801104838
:1059F0000BF08BF8D3E70521284608F04FFD00286F
:105A0000CFD10022002304F1280109480BF099F8B6
:105A1000C7E7214606480BF078F8CCE72146044852
:105A20000BF073F8D3E700BFE02B0100C4160100B0
:105A3000D01E002030B583B00A4C20460BF06FF822
:105A4000002500954FF0FF334FF480620649204651
:105A500004F004FC0549204604F062FC284603B02B
:105A600030BD00BFD01E0020404D0020F82B0100AB
:105A700010B5044600220023024807F06BFD00B178
:105A8000047610BDD00B002070B5044650F8886C29
:105A900000F110050021284608F000FD00B970BD96
:105AA0000121284608F0FAFC0028F8D154F8482CC7
:105AB000D469536852699B1AE41A304608F028FDED
:105AC000A042ECD80421284608F022FE0028E6D1A6
:105AD000304608F0FFFC0546FFF7CAFF04460028E1
