:10000000806D0020E12C000095D50000CD2C000073
:10001000CD2C0000CD2C0000CD2C000000000000F5
:10002000000000000000000000000000592E000049
:10003000CD2C000000000000F12D0000CD2C0000B0
:1000400045300000453000004530000045300000DC
:1000500045300000453000004530000045300000CC
:1000600045300000453000004530000045300000BC
:1000700045300000453000004530000045300000AC
:10008000453000004530000045300000453000009C
:10009000453000004530000045300000453000008C
:1000A000453000004530000045300000453000007C
:1000B000453000004530000045300000453000006C
:1000C000453000004530000045300000453000005C
:1000D000453000004530000045300000453000004C
:1000E000453000004530000045300000453000003C
:1000F000453000004530000045300000453000002C
:1001000053B94AB9002908BF00281CBF4FF0FF317E
:100110004FF0FF3000F00CB8ADF1080C6DE904CEE3
:1001200000F01AF8DDF804E0DDE9022304B07047BE
:10013000704700BF10F8012B11F8013B012A28BFBE
:100140009A42F7D0D01A7047034613F8012B002AC1
:10015000FBD1181A013870472DE9F04786468C46C6
:100160000846089E154674461946002B40F0C2808A
:100170008542B2FA82F245D94AB1C2F1200300FAAF
:1001800002FC2EFA03F3954043EA0C0C94404FEA2C
:10019000154EA8B2BCFBFEF8230C0EFB18CC08FBD6
:1001A00000F943EA0C43994528D9EB1808F1FF37C9
:1001B00004D2994502D9A8F102072B44A3EB090305
:1001C000A4B2B3FBFEFC0EFB1C330CFB00F044EAB4
:1001D0000344A04214D92C190CF1FF3304D2A042DD
:1001E00002D9ACF102032C44241A43EA07401EB1A1
:1001F000D440002334607360BDE8F0874746DDE7F4
:100200006346F1E792BB431B01214FEA154EAFB2A3
:10021000B3FBFEFC200C0EFB1C330CFB07F840EA82
:100220000343984562D9EB180CF1FF3004D298458E
:1002300002D9ACF102002B44A3EB0803A4B2B3FB38
:10024000FEFC0EFB1C330CFB07F744EA0344A742F9
:100250004ED92C190CF1FF3304D2A74202D9ACF1CC
:1002600002032C44E41B43EA0040C0E7C2F1200330
:1002700020FA03F1954090402EFA03F303434FEA2E
:10028000154EAFB2B1FBFEFC0EFB1C10190C0CFBA3
:1002900007F841EA0041884504FA02F422D96918B6
:1002A0000CF1FF3004D2884502D9ACF10200294498
:1002B000A1EB08019BB2B1FBFEFC0EFB1C110CFB79
:1002C00007F743EA01439F420ED9EB180CF1FF31C7
:1002D00004D29F4202D9ACF102012B44DB1B41EA5C
:1002E000004192E76046E3E76146F7E76046A3E72F
:1002F0006346B7E7834206D916B9002108467BE773
:10030000C6E900E0F9E7B3FA83F78FB9834201D376
:10031000724508D8BEEB020460EB030301209C4643
:100320001EB9002168E73846FAE7C6E9004CF8E74D
:10033000C7F1200CBB4022FA0CF41C432EFA0CF13E
:1003400020FA0CF3B84001434FEA14490EFA07F5BE
:10035000B3FBF9F81FFA84FE09FB18300B0C08FBFD
:100360000EFA43EA00439A4502FA07F240D9E3182D
:1003700008F1FF3004D29A4502D9A8F102002344C3
:10038000A3EB0A0389B2B3FBF9F809FB183308FBA6
:100390000EFE41EA03418E452CD9611808F1FF3366
:1003A00004D28E4502D9A8F10203214443EA004059
:1003B000A0FB0298A1EB0E014145CE46434602D375
:1003C00006D14D4504D2B9EB020E68EB04030138A7
:1003D000002EA6D0B5EB0E0261EB030101FA0CFC76
:1003E00022FA07F34CEA0303F940C6E9003198E723
:1003F0004046C5E74346D9E770B5C0B0044631E092
:100400004FF48072A3681B69002B51D069462046C7
:100410009847051E4CDB2A4669463A480CF03DFEDB
:10042000064685424BDC002E50D1A368DB6913B130
:1004300020469847B0B14FF48072694631480CF0BD
:1004400087FE0546002845D02F4B1B78002B45D151
:10045000A368DB68002B48D02A46694620469847A7
:10046000854245DC20460BF08DFC002847D0204615
:100470000BF07FFC002842D0234B1B78002BD4D1FB
:10048000A368DB6A1BB1204698470028CDD01D49E0
:10049000CA694B6849695B1AD21AFF2AB0D8002A88
:1004A000B0D120460BF05FFC174B01221A70D9E740
:1004B000164A012116480CF029FF0025ABE72B1A3C
:1004C000144A012112480CF02BFFACE720460BF038
:1004D00038FCAAE720460BF03AFCC3E720460BF0B5
:1004E0003CFC094B00221A70B2E76FF05700B7E7E7
:1004F0002B1A094A012106480CF012FFB2E740B05E
:1005000070BD00BF702300208C380020D01C01007B
:100510002C1B0100EC1C0100FC1C010008B50C4860
:1005200010F080FA68B10B4B4FF48062DA610A4A2E
:100530001A600022DA609A605A609A615A611A6100
:1005400008BD064A012106480CF0E0FEEBE700BFBB
:100550009818010070230020902300200C1D01003A
:100560002C1B010010B5012208210C480BF013FCD4
:1005700060B964200BF018FC084C002208492046A2
:100580000BF0D1FB20460BF0E8FB10BD0346054AFB
:10059000022105480CF0C4FEEBE700BF98180100EB
:1005A000F9030000281D01002C1B010000B583B0D9
:1005B00001AA01210BF00EFC40B10346074A0221BB
:1005C00007480CF0ADFE03B05DF804FB019B054A43
:1005D000032103480CF0A4FEF5E700BF501D010005
:1005E000541B0100741D010030B587B00546394B1E
:1005F0000FCB06AC04E90F000024032C13D806AB84
:1006000003EB840353F8101C33480DF0B4FB08B916
:100610000134F2E700902346304A012130480CF0C3
:100620008AFE00201EE02C480DF0ACFA01281BD0F9
:100630002C4A0021284804F0C9FA002833D10122AD
:100640000021254804F098FC002833D100212248DD
:100650000BF0C9FB002D3BD029461F480EF0DDF8FA
:1006600078BB1D4807B030BD1F4A01211A4804F06D
:10067000ADFA50B901221146174804F07DFC58B973
:10068000012115480BF0AFFBD2E7184A01211448AD
:100690000CF03CFE0020E5E7154A012110480CF063
:1006A00035FE0020DEE7134A01210D480CF02EFE36
:1006B0000020D7E70E4A012109480CF027FE002050
:1006C000D0E70D4A012106480CF020FE0020C9E7C2
:1006D0000148C7E7801C01008C0C0020801D010030
:1006E000541B0100E8050020C8050020AC1D0100D6
:1006F000D41D0100F41D01001C1E0100F0B583B0E3
:1007000000AF05460C460B78092B1ED948496E46AA
:1007100000233B7102237B7188B0EC461CF1100270
:1007200017D00E2022B1042802DD424BCCF8143041
:1007300000233B7002237B70C2B1082801DDCCF896
:1007400018100CF11C0300210EE03B4A52F8231054
:10075000DDE76FF00040E5E701F1080EBE441EF84A
:1007600008EC03F801EB01310129F5D90D2834DD3E
:100770000E234AB10321397100217971B971012128
:10078000F9717868CCF8100000216FF300016FF365
:1007900041016FF382016FF3C501032060F38811FB
:1007A000C3F30A0363F353216FF31F51002323485C
:1007B00001F08CF9B54628460DF011FA20B12378E6
:1007C00073B12378012B16D02378092B1ED0237800
:1007D000082B29D00C37BD46F0BD6FF01B03C8E7CE
:1007E000284602F0FFFD0028EBD0154A01211348EE
:1007F0000CF08CFDE5E7284602F03AFE0028E3D035
:10080000104A01210D480CF081FDDDE700237B60DB
:100810003A1D042160680BF0DDFA7B68002BD6D00E
:10082000094809F08BFCD2E76068FFF7BFFED1E70B
:10083000401E0100441E0100AC1F0100541B0100BA
:10084000581E0100781E0100B00B002010B50B48A7
:100850000DF0C5F920B9094802F0C4FD044638B9C5
:10086000074A032107480CF051FD0024204610BD23
:10087000054A012103480CF049FDF7E78C0C0020E4
:100880009C1E0100541B0100581E010008B50B48B6
:10089000FFF7AAFE70B10A4802F060FD10B9FFF739
:1008A000D5FF08BD074A012107480CF02FFD6FF066
:1008B0001200F6E76FF01200F3E700BFFD0600003C
:1008C0008C0C0020B81E0100541B010008B5FFF776
:1008D00025FEFFF7DBFF08B9012008BD034A01210F
:1008E00003480CF013FD0020F7E700BFD41F010000
:1008F000441B010010B5124A032112480CF006FDFA
:10090000FFF7E4FFA8B10F4C0F4A032120460CF07B
:10091000FDFC4FF0FF324FF0FF330C4809F052FC62
:100920000B4A032120460CF0F1FCFFF71BFE0020D0
:1009300010BD084A012103480CF0E8FCF7E700BFAE
:10094000F41F0100441B010010200100B00B002027
:1009500020200100FC1F01002DE9F04F91B005920D
:100960000293134602F004020092C3F3C20210F095
:100970000303019340F02B8280468A460132041D16
:1009800000284FD0B8F1000F05D0A4EB08030433C2
:10099000534500F21F82029B5D1E019B0493069348
:1009A000039300264FF0FF3B0427B946B8F1000F30
:1009B00001D0029B2360531E0793002A40F35D8100
:1009C000059B13F0020228D00120A4EB08018B083C
:1009D0001AB1B1F5007F80F0038203990F2900F26C
:1009E0000282B8F1000F00F06081DBB201F1400239
:1009F0006A4402F8103C02F820BC002800F0518143
:100A000063F07F0301F140026A4402F8103C049B4A
:100A100001330493039B0133039304340022CC4637
:100A200040463DE001F0070A5444CAF1080AA9E72C
:100A3000002634E0002632E0002630E00827BC46DD
:100A40002DE025292BD10BF1010B01260427BC46F3
:100A500025E04729EED82A2914D32A39C9B24FF004
:100A6000010E0EFA01F14FF6DA7E11EA0E0F16D1E1
:100A700011F0625F40F0C08011F0010F40F08C80F7
:100A800000260CE0252903D10BF1FF3B002606E0F0
:100A900001D9002603E0202901D02329CCD11D460D
:100AA0006B1C6978002900F01981002EC9D07A29C1
:100AB000BED84C29CDD34C392E2961D80FF2040E63
:100AC0005EF821F09F0A0000810B0000810B0000FE
:100AD000810B0000810B0000810B0000810B0000E6
:100AE000810B0000810B0000810B0000810B0000D6
:100AF000810B0000910B0000810B0000810B0000B6
:100B0000810B0000810B0000810B0000810B0000B5
:100B1000810B0000810B0000F90B0000810B00002D
:100B2000910B0000910B0000F90B0000F90B000085
:100B3000F90B00009F0A0000910B00003D0A000025
:100B4000810B00009F0A0000810B0000550C000083
:100B5000910B0000550C0000810B0000810B000080
:100B60005D0C00008B0B0000910B0000810B00005E
:100B7000810B0000910B0000810B0000850B000031
:100B800000268CE70427BC4689E70427BC4686E795
:100B900029786C2924D000263C44013CB4FBF7F4AE
:100BA00007FB04F420B1211A6144514500F215817C
:100BB000002A58D1BCF1040F00F08880BCF1080F66
:100BC00040F014811A99073121F0070101F108055D
:100BD0001A95D1E9008908B1C4E9008908345EE7B3
:100BE00013F8021C6C2903D000260427BC46D3E767
:100BF00000260827BC46CFE729784C291AD01A9935
:100C0000073121F0070101F108061A96D1E90067C2
:100C1000073424F0070440B1211A0831514513D894
:100C200029784C2913D0C4E9006708340026082726
:100C3000BC4634E71A99073121F0070101F1080693
:100C40001A96D1E90067E3E76FF01B00BCE0C4E946
:100C50000067EAE700260427BC469DE732460026E7
:100C60000427BC4698E7E14680461A9A111D1A915E
:100C700012680292079A1D4698E6624B029A9A42BF
:100C800004D3614B9A420AD3002300E00023002BD7
:100C90007FF496AE059B03F00202002095E6012347
:100CA000F5E7069B01330693B4E610B10AF1010A99
:100CB000B0E6009B13B10AF1020AABE60298FFF717
:100CC00043FA0AEB000303F1020AA3E61A990D1D89
:100CD0001A95096800B121600434E0E68046231AC1
:100CE000B3F5806F80F0858090B1002202609B0890
:100CF0000370009B83B1069BC370049B88F802308D
:100D00001BBB019DDDF80C90DDF810B0029F3DE0AB
:100D10005344A3F1080057E0069B4370EDE701330D
:100D20009842EED903F140026A4412F8101C12F9FD
:100D3000102C002AF3DA01F07F01A4EB0802013243
:100D4000524559D804F8011BE9E7019B0398E7E7EE
:100D5000009B43B305F140036B4413F8203C04F8B7
:100D6000013B019EA4EB080333440133534546D8AD
:100D700005F140036B4413F8103C04F8013B324684
:100D80003946204610F083FC34440135A94519D971
:100D9000BBF1000FDCD005F140036B4413F9103CAC
:100DA000002BD5DAF1E705F140036B4413F8103C52
:100DB00058F82370002248F823203846FFF7C4F97A
:100DC000461CCFE7A4EB080011B0BDE8F08F6FF030
:100DD0000D00F9E76FF01B00F6E76FF01B00F3E77B
:100DE0006FF01500F0E76FF01500EDE76FF01500FC
:100DF000EAE76FF01500E7E76FF01B00E4E76FF03C
:100E00001B00E1E7C4170100AC3801002DE9F04FE9
:100E100097B000AF8346BA613B61D7F88030C3F327
:100E2000C0033B62F96011B90BF07EFBF8609BF8E0
:100E30000260B14636B1D7F8803013F0010F0DD102
:100E4000002300E000239BF803207A6242B1D7F828
:100E5000802012F0020F22D1002202E00123F2E7EB
:100E6000002202B9EBB19BF80050AA00BA60DBF88F
:100E700004207A610BEB8505BA69F2B1002B40F0D2
:100E80000481B9F1000F00F00F81D7F8803013F022
:100E9000040F40F00D810020F8610646F9E00122C0
:100EA000DFE7BB691BB13A69F96858469847FC68A7
:100EB00020465C37BD46BDE8F08FFC68E3B94D4481
:100EC00000233B6123E00444013501364E451AD22C
:100ED0002A7800235BF822201946B8690BF039FB09
:100EE000BAF1000FEFD0D7F888309845EBD22AF846
:100EF000180008F10108E6E70026C7F81C80B04694
:100F0000D7F884A0E2E7C7F81080D7F81C80D7F89C
:100F1000803003F00503FB604FF0000AA146C7F8DC
:100F20001CB09CE000253B6A7BB9002D79D0D7F836
:100F3000803013F0010F79D1FB68002B6FD10223B1
:100F4000A9EB030988E00125EDE7594678690BF024
:100F500046FB0028E9D06C46002387F82C3002239A
:100F600087F82D308AB0694611F1100237D012256A
:100F70001AB1042D01DDB34B4B61002387F82830F3
:100F8000022387F829306ABB112D45DD122362B197
:100F9000042087F82C00002087F82D0087F82E0009
:100FA000012087F82F00F86A08616FF300086FF3DB
:100FB00041086FF382086FF3C508022161F38818B6
:100FC000C3F30A0363F353286FF31F58002341460A
:100FD0009D4800F07BFDA546A9F102093CE06FF0B9
:100FE0000045C5E72B46082D01DD786988610C2B8B
:100FF00001DDC1F81CB001F12003002009E000F17F
:10100000300C07F1280EF4441CF830CC03F801CB67
:1010100001300128F3D9B7E76FF01B03B7E70123CD
:101020008EE7D7F8803013F0020F15D00023224648
:101030001946B8690BF08DFAD7F8843053B13B6983
:10104000D7F88820934205D2D7F8842022F81300DD
:1010500001333B61013881440AF1010A35467B6A5C
:101060009A4510D22E4616F802BB6B78FA6952F8F0
:101070002340764B9C42FFF455AF754B9C42FFF4E6
:1010800062AF00254FE74C4612E707F1440000230A
:10109000FB6118B14A46294610F0F9FA4D444FF069
:1010A0000008C7F804901EE00020F8610646F0E74B
:1010B000FE6107F134000026EBE700253B6A33BBF5
:1010C000002D3BD0D7F8803013F0010F26D0731CD1
:1010D00006F1300207F12801561806F8149CDEB21A
:1010E00008F1010825467B6A98454AD22C4614F837
:1010F00002AB95F801905BF82930544A9342DCD357
:10110000534A934201D30025D8E70125D6E751463B
:1011100078690BF064FA0028D2D0E1E7D7F8803084
:1011200013F0040FDCD0FA69531C303207F12801A8
:101130000A4402F8249CDBB2FB61D1E7D7F8803087
:1011400013F0020F09D0731C06F1300207F12801D9
:10115000561806F8149CDEB2C2E7F869431C00F189
:10116000300107F128028A1802F824AC0246023244
:10117000D2B2FA6107F1580252FA83F303F8249CC1
:10118000AEE7D7F804909BF8003087F854309BF80E
:101190000130334487F85530D7F8803013F0020F10
:1011A0000ED1FB69C3F3470387F85730D7F8803077
:1011B00013F0010F06D113F0040F3ED1002302E01B
:1011C0000023F1E7002387F85630DBF8000038638E
:1011D000786DCBF80000D7F810804246B9685846C1
:1011E000D7F818A0D047041EFFF662AE386BCBF8D4
:1011F0000000C7F810804246F96907F13400D04773
:1012000000285EDB04EB0008B96849447B6A01EB07
:101210004301D7F810904A46FB68591A2846D04730
:10122000041EFFF645AE08EB04054FF00008C7F8B2
:1012300024B0B3465446CA4621E0FB69C3E74FF0E9
:10124000000909E0382001003C1B0100C41701001F
:10125000AC3801004FF000095246012107F12C0083
:10126000A04700282FDB05444B4632465146204616
:101270000BF06FF9002828DB054408F10108D84578
:1012800018D208F1300307F12802134413F8143C74
:1012900087F82C307A6A52F82360D7F88430002B14
:1012A000CDD0D7F888309845D4D2D7F8843033F8E9
:1012B0001890D1E73A6900210846BB6998472C4647
:1012C000F6E50446F4E50446F2E50446F0E500BF21
:1012D000014B1860704700BF4407002080B50546E9
:1012E0000E461746984609F0FDFC034610F060FADA
:1012F0000446DFF8189049F8003042463946304637
:10130000A84754F8090001F059FD00BF080000008B
:101310002DE9F04383B0044608461546238B13F0AD
:10132000080F05D103F0070600230093019354E052
:10133000012909D043F02003238385F31188BFF3EB
:101340006F8F03B0BDE8F08343F010032383F4E70D
:1013500020460BF0C8FC42E0D4F814904A46694697
:1013600020460BF0D9FC4FF00008238B03F0070751
:10137000B74269D0A268002A66D0012243F0080370
:10138000238385F31188BFF36F8F002A64D1009BFC
:101390002BB14B463A46694620460BF036FDB8F174
:1013A000000F02D034492046C047EFF311852023B7
:1013B00083F31288BFF36F8F238B23F008032383FB
:1013C000238B13F0100F4DD023F010032383012043
:1013D000268B06F007060028AFD00228B8D00028D8
:1013E000ABD0013804282BD801A353F820F000BF5C
:1013F00059130000411400000514000019140000E6
:101400002D1400002369D3F80080062120460BF03C
:1014100040FC4FF00009A8E72369D3F804800421B9
:1014200020460BF036FC4FF000099EE72369D3F805
:101430000880052120460BF02CFC4FF0000994E7B2
:101440004FF00008C14690E7009A0AB1002295E7E4
:10145000B8F1000F92D1B3E74A46394620460BF067
:1014600020FC94E713F0200F04D023F02003238303
:101470000220ADE70020ABE739CE000038B50546C5
:101480000B4C00E010340B4B9C420FD263685B792D
:10149000002BF7D0294620460BF090FE0028F1D013
:1014A00023681B68294620469847EBE738BD00BFF4
:1014B0001C1C01003C1C010070B506460D46084C82
:1014C00004E02A463146204698471034054B9C429A
:1014D00004D223689B69002BF3D1F6E770BD00BFEF
:1014E0001C1C01003C1C01002DE9F041074605468B
:1014F0000AE007EA0807144B03EB06135B680422B3
:101500001968204600F0B4FAD5B195FAA5F6B6FAF6
:1015100086F60D4C04EB06140123B3406FEA030872
:1015200025EA0305237B002BEED03301064AD3586E
:101530001B69002BDDD0204698470028E4D1D8E76E
:101540003846BDE8F08100BF1C1C01002DE9F041C8
:1015500080460F46204BBFF35B8F53E8005F6A1C49
:1015600043E800210029F8D1BFF35B8F002D2FD174
:101570001A4C002607E0636804221968204600F030
:1015800077FA01361034164B9C4213D2237B002B82
:10159000F7D02368DB680BB12046984723681B69A6
:1015A000002BE8D0204698470028E4D00123B34020
:1015B0001D43E6E7B8F1000F0BD055B12846FFF701
:1015C00093FF0546002FF8D00A200BF0FDFDF4E74D
:1015D00000252846BDE8F081A42700201C1C01003E
:1015E0003C1C010008B5064B186018B1054B1B6880
:1015F000092B00DC08BD044808F0A0FDFAE700BF95
:1016000098270020A0270020C00B002008B5024822
:1016100008F094FD08BD00BFC00B002030B589B0B4
:1016200000220F490F480FF0F1FF0F4D0022002359
:10163000CDE90623002404940E230393029401941D
:1016400000940A4B4FF48052094928460FF063FD7D
:101650000849284608F04EFF204609B030BD00BFBB
:101660000D160000E81D0020300D0020C9190000F3
:10167000C0380020F0200100014B53F820007047D3
:101680000C21010048B108B5054A1060054B1960EE
:10169000084600F00FFD002008BD6FF015007047F0
:1016A000480700209427002008B5054B1B781BB184
:1016B000034B01221A7008BD024808F03FFDF7E70E
:1016C0008D380020C00B002008B5104BBFF35B8F96
:1016D00053E8001F013143E80012002AF8D1BFF39C
:1016E0005B8F30B90A480FF09DFF0A4808F026FDCD
:1016F00008BD094BBFF35B8F53E8001F013943E876
:101700000012002AF8D1BFF35B8FEBE79C27002083
:10171000E81D0020C00B0020A0270020064B002061
:101720000146BFF35B8F53E8000F43E80012002A25
:10173000F9D1BFF35B8F70479C27002038B5FFF7C6
:10174000EDFF0546094C00E01034094B9C420BD2DA
:1017500063685B79002BF7D023685B68002BF3D0BC
:10176000294620469847EFE738BD00BF1C1C010002
:101770003C1C0100034B18680028D4BF0020012046
:10178000704700BF9C27002010B5044C0449204638
:101790000BF0B7F8034B1C6010BD00BF940A00208B
:1017A000F82001009027002008B50023064A137096
:1017B000064A1360064A13604FF400410548FFF7DC
:1017C00061FFFFF7E1FF08BD8E3800209C27002055
:1017D000A0270020C1D1000008B5014601480BF048
:1017E00009FD08BD940A002008B502480BF06CF909
:1017F00008BD00BF940A002008B50146024B1868D6
:101800000BF0FEFC08BD00BF9027002008B5024881
:101810000BF0FAFC08BD00BF940A002010B582B09E
:1018200000220023CDE90023284B187808B902B024
:1018300010BD68460BF000FD044688B1244BBFF391
:101840005B8F53E8001F013943E80012002AF8D1EA
:10185000BFF35B8F2046FFF711FE2046FFF7CCFF5A
:10186000FFF788FF58B91B4A1368516813F57A735C
:1018700041F1000113605160FFF7C8FFD7E70FF097
:1018800056FE4A0142EAD06243011B1A62EB010292
:10189000920042EA93729B001B1842EB0102D200B5
:1018A00042EA5372C3F3103343EA4243D20B09486E
:1018B000016840685B1A62EB000240F2E9318B423A
:1018C00072F10002CFD3FFF739FFCCE78D3800204B
:1018D000A0270020E01D00200F4B1B7803B17047AC
:1018E00010B500210120FFF731FE0C4C00E0103450
:1018F0000B4B9C4208D263685B79002BF7D02368BE
:101900009B6820469847F2E7FFF788FF0028FBD145
:10191000014B01221A7010BD8E3800201C1C0100E2
:101920003C1C010010B582B01A4BBFF35B8F53E82B
:10193000002F511C43E800100028F8D1BFF35B8F43
:10194000154B1B7863B9154B1B68B3B1BAB1092AA3
:1019500013D113480FF066FE124808F0EFFB0CE0BD
:10196000EFF31184202383F31288BFF36F8FFFF707
:1019700055FF84F31188BFF36F8F02B010BD0022B2
:101980000023CDE900234FF400420023044809F06E
:10199000E1FCF2E7A02700208E38002098270020E5
:1019A000E81D0020C00B002010B50446044B1B6846
:1019B0009847A060214603480BF042FC10BD00BFD1
:1019C00048070020940A00202DE9F0410021084634
:1019D000FFF7BCFD804650B140F2676600270FF06C
:1019E000E7FE154B1858FFF7FDFD002515E04FF0F9
:1019F000FF364FF0FF37F2E74046FFF775FD8046B0
:101A000070B94FF0FF364FF0FF3709E02C463246F1
:101A10003B460A4808F0D6FB2546B8F1000FEBD14B
:101A2000FFF7FCFE04460028F6D1002DEED0002181
:101A30000846FFF741FDEAE708000000C00B002060
:101A40000248034BC01AC008704700BF1C1C0100AD
:101A50002C1B010010B50C46FFF7F2FFA04203D982
:101A6000024B53F8340010BD0020FCE72C1B010092
:101A700008B5094BC31A1B110133D0F804C08CF808
:101A8000043043689A7143681960436801225A71AF
:101A9000FFF70AFE08BD00BF1C1C010000B589B09D
:101AA000059206930023079362B1074A0C9B0293A9
:101AB0000B9B01930A9B009305ABFFF7A7F909B0B5
:101AC0005DF804FB0022F1E751D200002DE9F04F50
:101AD0008BB004AF05461E468846C1F34A24002C4D
:101AE00000F0898091460022FA603A617A6104230D
:101AF0000293FB1801930A23009307F10C0321467C
:101B00004846FFF783F9B0F5006F58D3D9F80410B1
:101B10006D4600233B7302237B738AB004AC14F13F
:101B2000100217D012201AB1042801DD3B4B63616B
:101B300000233B7002237B70CAB10346082800DDF6
:101B4000A1610C2B02DD40F2FF73E36104F120037D
:101B500000210AE06FF00040E5E701F118063E447D
:101B600016F8186C03F8016B01310129F5D9112819
:101B700022DD122342B10421397300217973B97334
:101B80000121F973F868206100216FF300016FF300
:101B900041016FF382016FF3C501022060F38811E8
:101BA000C3F30A0363F353210023C1F313011C4859
:101BB0000BF0CEFBAD462DE06FF01B03DAE760F3D0
:101BC0005328C0F30A0A0AEB1850173020F0070018
:101BD0008008FFF701FE8346B0B104230293FB188F
:101BE00001930A230093534600F110022146484610
:101BF000FFF754FF08E004EB1154173424F00704F6
:101C0000A008FFF7E9FD8346334642462946584679
:101C10000BF034FB1C37BD46BDE8F08F2C210100D2
:101C20005C1B01002DE9F04F85B080460D4617463C
:101C30001E46DDF838B0DDF84090B9F1000F41D014
:101C4000119B039300934B460F9A10210020FEF73F
:101C500083FEB0F5006F2DD282460BEB00031733E5
:101C600023F0070300246FF300046FF341046FF3C4
:101C7000820468F3C50467F3881460F353246BF39C
:101C80001F549808FFF7A8FD074650B11030B9F16E
:101C9000000F06D0119B00934B460F9A5146FEF75A
:101CA0005BFE33462246294638460BF0E7FA05B07C
:101CB000BDE8F08F40F2FF73034A022103480BF0A6
:101CC0002FFBF4E70020C7E76C2101005C1B01003B
:101CD000406820B1034BC01A40F3CF0070474FF06B
:101CE000FF3070472C1B01000EB400B582B00146D6
:101CF00003AB53F8042B0193034801F0B5FA02B08B
:101D00005DF804EB03B0704787D3000010B584B0D2
:101D100011F0440F05D01A4B1B6833B9002004B0F2
:101D200010BD1849FFF7E0FFF9E717490968B2FB52
:101D3000F1F2B2FBF3FC03FB1C224FF47A7E0EFBA4
:101D400002F2B2FBF3F403FB14210EFB01F1B1FB31
:101D5000F3F10E4AA2FB0C32D20A4FF4616303FB8B
:101D600012CC0B4BA3FB0CE35B0902910194C3EB78
:101D70000311ACEB810100910649FFF7B5FFCEE7F7
:101D8000AC270020A4210100A8270020C5B3A29100
:101D900089888888B021010061B108B52AB1064A56
:101DA00052F8232012B9054A00E0044A0449FFF71B
:101DB0009BFF08BD704700BF50220100CC210100ED
:101DC000D42101002DE9F04105461746069EDDF8B5
:101DD0001C8081B900242EB1324611492846FFF7F4
:101DE00083FF0444B8F1000F14D06FB1099B042B9A
:101DF00013D00C4909E00C4B099A53F822200B49E7
:101E0000FFF772FF0446E6E7064942462846FFF719
:101E10006BFF04442046BDE8F0810549F5E700BFAB
:101E2000EC210100DC21010064220100E421010019
:101E3000D82101002DE9F04F87B005460C460492E9
:101E400005939DF84C7001F0020B01F0010AC1F3FB
:101E5000C00801F480790BF0F9F918B3024616496D
:101E60002846FFF741FF0646BBF1000F1CD13A465A
:101E7000514628460BF0B2FAB9F1000F01D0002309
:101E800011930397129B0293119B0193109B009354
:101E90000023049A41462846FFF794FF304407B0D8
:101EA000BDE8F08F0026DFE7059A21462846FFF7B8
:101EB0002DFF0644DBE700BFF021010011F0100FF9
:101EC0000BD108B511F0200F03D00449FFF70CFF28
:101ED00008BD0349FFF708FFFAE770476C230100CC
:101EE000783701002DE9F04105460F461646984621
:101EF0000699FFF7E3FF0024444505DA2449284604
:101F0000FFF7F2FE0134F7E7002409E020492846F4
:101F1000FFF7EAFE0BE01F492846FFF7E5FE013414
:101F20000F2C0CDC002C02DD14F0070FEED0B442B5
:101F3000F1D23A5D18492846FFF7D6FEEFE7174978
:101F40002846FFF7D1FE002409E011492846FFF793
:101F5000CBFE0BE012492846FFF7C6FE01340F2CDA
:101F600013DC002C02DD14F0070FEED0B44207D2D0
:101F70003A5D0C4B9B5C13F0970FEBD12E22E9E7F7
:101F800003492846FFF7B0FEE8E7BDE8F08100BF4F
:101F9000E8210100FC210100F421010000220100E0
:101FA000042201009D3701002DE9F04184B0044670
:101FB0009DF82C500C9F0E9E95B9012B1ED01948F0
:101FC0004FF0000827B13B46224617490AF0D7FADE
:101FD000C6B905BB20460BF0BFF904B0BDE8F081DF
:101FE00003950A980290019300920B4600220F99E4
:101FF0002046FFF71FFF80460C48E3E70B484FF0F1
:102000000008DFE70F9B0093434632460D992046B8
:102010000BF0FCF9DDE72A460F9920460BF0EAF9B0
:10202000D8E700BFBFD300006932000087D30000AB
:102030002DE9F04383B00646056842F20F738B42E8
:1020400028BF0B46184A0521684609F0E3FB044601
:102050007368D3F804900B27DFF8508005E04A46F8
:1020600039464046A8473F1A8044002FF7D173688D
:10207000D3F804806F4605E0424621463846A8471B
:10208000241A0744002CF7D173685F681B24084E9C
:1020900005E03A4621463046A847241A0644002C5B
:1020A000F7D103B0BDE8F0835C2A010024220100CF
:1020B00008220100074B01221A6004E04008054A8B
:1020C00013685B001360044B9842F7D8034B186009
:1020D000704700BFA827002040420F00AC27002017
:1020E000034B01221A70034B034A1A60704700BF6A
:1020F0008F380020D8270020DC27002008B5034BAC
:1021000001221A7002480BF0CFF908BD9038002068
:10211000A4220100014B196000207047C427002051
:1021200008B518B9074B00221A7008BD064B1B787A
:1021300023B141F288300EF06FFCF6E705200BF07A
:10214000CAF9F2E78F3800209038002038B50446ED
:102150000A4B01221A700A4B1B782BB938BD651E39
:102160002046FFF7DDFF2C46002007F0DFFA0028AD
:10217000F4D0024B1B78002BF1D1EFE78F38002011
:10218000903800202DE9F04107460E464FF0040834
:102190000DE032463946002007F060FA044616E0AA
:1021A0004046FFF7D3FFF4B9134B1B78DBB1134B59
:1021B0001B78002BEDD10EF022FC05463246394645
:1021C000002007F04BFA044628460EF020FC002CB5
:1021D000E6D1094B1B78002BE5D008F1FF384046CB
:1021E000FFF79EFFDFE714B9034B1B7803B93446B2
:1021F0002046BDE8F08100BF8F38002090380020D5
:1022000008B50248FFF714FF08BD00BFA422010073
:1022100010B50C46044B1868FFF72EFA03460F2240
:1022200021460248984710BDC4270020A42201007F
:1022300070B506460D46002405E0315D044883680C
:102240005B6898470134AC42F7D3284670BD00BFA5
:10225000AC180100014B0360002070470823010007
:1022600008B503480AF0E8F902480AF0E5F908BDA4
:10227000082301004023010008B5024809F022F9B3
:1022800008BD00BF70230100B0F5680F17D00CD84F
:1022900040F6BA63984214D0B0F5683F13D03A289C
:1022A00001D00120704700207047094B98420CD0A4
:1022B000084B984201D00120704700207047002051
:1022C000704700207047002070470020704700BF13
:1022D0003A00003A2C5F5CA9E8B108B54268B2F553
:1022E000683F07D00F498A421AD0006807F096FE6F
:1022F000002008BD03680022BFF35B8F53E8001F76
:10230000012903D143E800200028F7D1BFF35B8FF8
:1023100004D11046EDE76FF4E04070470248E8E76B
:102320000248E6E72C5F5CA9E98FFFFFEA8FFFFF19
:1023300030B308B54268B2F5683F0CD012498A4202
:102340001CD000684FF0FF324FF0FF3307F0E6FD7E
:1023500088B10E480FE003680122BFF35B8F53E89A
:10236000001F002903D143E800200028F7D1BFF364
:102370005B8F01D1002008BD0448FCE70448FAE760
:102380006FF4E040704700BF2C5F5CA9E98FFFFF4E
:10239000EA8FFFFF10B50446A8B16368B3F5683F44
:1023A00010D0B3F5680F0DD00D4A93420AD013F444
:1023B000686F0DD021680B480EF00BFC00232360E2
:1023C000074B636010BD084B5B6808489847E4E71B
:1023D000236800221A605A609A60DA601A61EFE797
:1023E0002C5F5CA91C2D0020240A0020782301000A
:1023F00010B5044668B36068B0F5683F28D0B0F502
:10240000680F25D0174B984228D0FFF73DFFC0B189
:102410004FF0FF324FF0FF332146134807F05EFCC8
:1024200008B923681BB9114B5B68114898472368AA
:1024300000221A605A609A60DA601A614FF4686389
:10244000636020680EF046FC636843F03A03636003
:1024500010BD064B5B6807489847CCE72368002B04
:10246000D3D1D5E72C5F5CA91C2D0020240A0020C5
:10247000A02301007823010008B540231422044959
:1024800004480EF098FB0449044809F08DF808BD93
:102490001C2800201C2D0020D0230100E423010073
:1024A0002DE9F04182B000AF0446D0F800E0D0F84A
:1024B00004C085686E468AB06B4613F1100200F0C6
:1024C000888014218AB10846042903DDDFF81C81C5
:1024D000C3F81480082801DDC3F818E00C2801DDDA
:1024E000C3F81CC0102800DD1D62132974DD1425FB
:1024F0003AB10521397100217971B971F9717868A2
:10250000186100216FF300016FF341016FF3820145
:102510006FF3C501012363F38811C5F30A0565F361
:1025200053216FF31F5100233148FFF7CFFAB5460F
:10253000D4F80CC026696569E8468AB06B4613F189
:1025400010024CD0142182B10846042903DDDFF8C3
:10255000A4E0C3F814E0082801DDC3F818C00C2873
:1025600000DDDE61102800DD1D6213293ADD14252F
:102570003AB10521397100217971B971F971786821
:10258000186100216FF300016FF341016FF38201C5
:102590006FF3C501012666F38811C5F30A0565F3DB
:1025A00053216FF31F51124D00232846FFF78EFA77
:1025B000C546E369104A314628460AF0B1FEA369D0
:1025C0000E4A314628460AF0ABFE0837BD46BDE844
:1025D000F0816FF0004175E76FF01B0588E76FF041
:1025E0000041B0E76FF01B05C2E700BFF423010014
:1025F000941B0100242401005424010064240100E0
:1026000038B504460D4611B10846FFF749FF012CC5
:1026100004D02946204607F0E5F838BDEFF30583DE
:10262000103B034A012103480AF07AFEF1E700BF9C
:1026300094240100941B010030BFFFF7FDBF00BFD1
:1026400038B50446054D2A4605490FF020F8054ADD
:10265000002160190FF029F838BD00BF000000000C
:10266000801C01000800000070B50646064D074BAF
:102670001D444C1B2046FFF7E3FF083CC6F8A4406E
:1026800005F1080070BD00BF000000000800000058
:10269000074B9B6893F90E20002A08DB044A526915
:1026A000934204D0034A536843F080535360704709
:1026B0007436002000ED00E081690D4B5A6942F448
:1026C00080725A61BFF34F8FBFF36F8F31F8021CD6
:1026D0005A6922F480725A61BFF34F8FBFF36F8F34
:1026E0004DF60273994201D00020704701207047D7
:1026F00000ED00E04FF0000C83F800C002F07F4CCA
:10270000BCF17F4F14D102F00C0CBCF1080F04D0C7
:1027100012F0080F09D00846704708B5054A012194
:1027200005480AF0F3FD002008BD01221A70704729
:1027300000207047A8240100941B010008B52B4A13
:1027400001212B480AF0E2FD2A4B9B6A13F0007F1F
:1027500021D11D20274B9B6A13F0807F22D1254B6E
:102760009B6A13F4002F24D1224B9B6A13F4802F11
:1027700026D1204B9B6A13F4003F28D11D4B9B6A46
:1027800013F4803F2AD11B4A936A6FEA03436FEA2E
:102790001343936208BD184A012115480AF0B6FD9B
:1027A0001E20D7E7154A012111480AF0AFFD1F206E
:1027B000D5E7134A01210E480AF0A8FD2120D3E7EE
:1027C000104A01210A480AF0A1FD2220D1E70E4A51
:1027D000012107480AF09AFD2320CFE70B4A012187
:1027E00003480AF093FD2420CDE700BFD424010064
:1027F000941B010000ED00E0EC2401000025010025
:102800001C2501003C2501006425010080250100F4
:1028100008B500230B70034A012103480AF076FD36
:1028200008BD00BFAC250100941B010090B583B02A
:1028300000AF0F2923DC2F4C103900233B710223FA
:102840007B718AB0EC461CF110021AD0122022B122
:10285000042802DD284BCCF8143000233B700223FF
:102860007B70E2B10346082801DDCCF818400C2B40
:1028700001DDCCF81C100CF1200300210DE01F4CF1
:10288000DAE76FF00040E2E701F1080404EB070E1D
:102890001EF808EC03F801EB01310129F4D91128E5
:1028A00024DD12234AB10421397100217971B971F3
:1028B0000121F9717868CCF8100000216FF3000154
:1028C0006FF341016FF382016FF3C501012060F3E3
:1028D0008811C3F30A0363F353216FF31F510023DD
:1028E0000748FFF7F3F80C37BD4690BD6FF01B03A8
:1028F000D8E700BFD025010004260100E82501002B
:10290000941B0100F8B505460F461446374A0121CD
:1029100037480AF0FBFC374B9B6A13F4805F25D1E4
:102920001626344B9B6A13F4006F26D1314B9B6AF9
:1029300013F4007F28D12F4B9B6A13F4806F3FD193
:102940002C4B9B6A13F4807F41D12A4B9B6A13F472
:10295000005F43D1274A936A43F47F439362012186
:1029600028460AF01DFE20703046F8BD224A01219B
:102970001F480AF0CBFC1726D3E7204A01211C4848
:102980000AF0C4FC1826D1E71D4A012118480AF0B4
:10299000BDFC184A936B926A12F4004F01D11926BC
:1029A000C9E7184A012112480AF0BAFC37B1114AA6
:1029B000936A23F4004393621926BCE71926BAE709
:1029C000114A01210A480AF0A1FC1A26B8E70F4A69
:1029D000012107480AF09AFC1B26BBE70C4A01219B
:1029E00003480AF093FC1C26B4E700BF1826010038
:1029F000941B010000ED00E0302601004426010098
:102A000058260100742601008C260100A82601002A
:102A1000C02601002DE9F04104460F461546464AFE
:102A2000012146480AF072FC454B9B6A13F0100FD7
:102A30003CD11026424B9B6A13F0080F3DD1404B0E
:102A40009B6A13F0020F3FD16FF015083C4B9B6A55
:102A500013F0010F58D13A4B9B6A13F0200F5AD153
:102A6000374B9B6A13F0100F04D1354B9B6A13F060
:102A7000020F04D0324B5B6813F4006F52D1304B1D
:102A80009B6A13F0200F04D02D4A536A23F400539D
:102A900053622B4A936A43F0FF039362012120465D
:102AA0000AF07EFD28703046BDE8F081254A0121FC
:102AB00022480AF02BFC1126BCE7234A01211F48BB
:102AC0000AF024FC1226BAE7204A01211B480AF02A
:102AD0001DFC1B4BD3F834809B6A13F0800F03D18D
:102AE0006FF015081326B1E74346194A0121134830
:102AF0000AF016FC37B1124A936A23F080039362FE
:102B00001326A3E71326A1E7124A01210B480AF076
:102B1000FDFB14269FE7104A012108480AF0F6FB46
:102B200015269DE72146404600F028FA0028A6D049
:102B300080F309880226A2E7F0260100941B010019
:102B400000ED00E008270100442601003C270100B9
:102B5000542701006C270100C026010070B506460D
:102B60000D462B4A01212B480AF0D0FB00232B7085
:102B7000294BDC6A14F002040AD1274BDB6A002BD4
:102B80000DDB254BDC6A14F080440ED1204670BD6D
:102B9000224A01211F480AF0B9FB0024F6E7204A27
:102BA00001211C480AF0B2FBF0E71E4A0121194836
:102BB0000AF0ACFB3046FFF77FFD98B9164B9B6AD5
:102BC00013F0FF0F16D1144B9C6A14F47F4418D1F4
:102BD000114B9B6AB3F5803FD8D33046FFF7AEFD6B
:102BE0000446D3E73368104A01210A480AF098FBEB
:102BF0003468CBE72A4601213046FFF70BFF044635
:102C0000C4E72A4601213046FFF77CFE0446BDE7B3
:102C10008C270100941B010000ED00E0A4270100B7
:102C2000C8270100D8270100F827010030B58BB074
:102C30001F4B5D68C5F30805002383F31188BFF3BC
:102C40006F8F0DF12603FFF755FD04460DF12702A6
:102C500029460AF0A7FC9DF827300BB10BB030BD18
:102C600005460DF1040C20686168A268E368ACE8D1
:102C70000F0020696169A269E369ACE80F009DF863
:102C800026304BB1089BC3F308025AB96FEA5323AD
:102C90006FEA4323089305E0089B23F4FF7323F0B6
:102CA0000103089301A92846FFF7AAFCD6E700BF55
:102CB00000ED00E0044B5A6942F010025A615A6973
:102CC00022F008025A61704700ED00E0EFF308803F
:102CD000EFF3098101B57246FFF7A8FF01BD00BF00
:102CE000002080F31488BFF36F8F114880F30888A9
:102CF00000201049087005F01DFE00200E490860F4
:102D0000BFF34F8F00F030F8202080F311880B487C
:102D10004FF40461401880F30988EFF31480022116
:102D2000084380F31488BFF36F8F00F0E9F80000C8
:102D3000806D0020A138002094ED00E0C0530020F9
:102D4000084BD3F89000C0F30720002306E0054AA3
:102D5000C2F898300021C2F8A01001338342F6DB9C
:102D6000704700BF00ED00E010B572B6002484F398
:102D70001388FFF7E5FF234608E003F120010E4A20
:102D80004FF0FF3042F821000133DBB2072BF4D9BA
:102D9000002308E003F16001074A4FF0FF3042F8DA
:102DA00021000133DBB2072BF4D962B6BFF34F8F9A
:102DB000BFF36F8F10BD00BF00E100E008B50A4B04
:102DC0009B68834202D007F093FF08BDEFF30583B1
:102DD000002BF8D0054B5A6842F080525A605A6A6C
:102DE00022F400425A62EEE77436002000ED00E063
:102DF00016498A684FF030001044EFF3098C80E8E0
:102E0000F01F202080F31288BFF36F8F104F4FF018
:102E100000664A698A603E604FF0A4041419206875
:102E20000C4C2060D2F8A8000023C2F8A83080F330
:102E3000118804B5104600F023F9BDE8044002F102
:102E4000300090E8F01F8CF309887047743600203A
:102E500004ED00E0382D00201EF0040F0CBFEFF34E
:102E60000880EFF30980816911F8021C0229FFD064
:102E700001B572460AF088FB01BD00BF002807DBE0
:102E800000F01F02400901239340024A42F820301B
:102E9000704700BF00E100E000280CDB00F01F02DB
:102EA0004009012393402030034A42F82030BFF309
:102EB0004F8FBFF36F8F704700E100E0002808DB01
:102EC0004901C9B200F1604000F5614080F800138B
:102ED000704700F00F004901C9B2014B1954704707
:102EE00014ED00E04209054B53F8222000F01F00CA
:102EF000012303FA00F01040704700BF00E100E03A
:102F000008B50B4B0B4A22F07F029A60BFF34F8F3C
:102F1000BFF36F8FD3F8882022F47002C3F88820A3
:102F200006F010FE08F056F800F072F806F068FEA1
:102F300000ED00E00000000010B4A2F120040E49F2
:102F400042F8081C21F0010142F8081C42F8203C1C
:102F5000019B42F81C3C029B42F8183C039B42F840
:102F6000143C4FF0807342F8043C04650023C0F821
:102F7000A83010BC704700BFDD120000104B9B68EA
:102F8000BBB110F1160F0BD0D3F89420A2F1400C76
:102F9000844510D8824210D98A4207D80020704751
:102FA000D3F894208A4201D800207047D3F89400C7
:102FB000704700207047002070470020704700BF16
:102FC0007436002008B50E4615460A4A9060D0F8BF
:102FD000A420094B1A6000F053F82C4686F30988A8
:102FE0000020064B98472046002100220023044C75
:102FF000204700BF74360020382D00201BD600006B
:10300000DD120000014B10221A61704700ED00E054
:10301000002206E003F00F030949194420230B7630
:1030200001322F2A0ADC53B2002BF3DB03F1604399
:1030300003F56143202183F80013F1E7704700BFD7
:10304000FCEC00E008B5EFF30583103B044A02EB0B
:10305000C301496852F833008847FFF719FB08BDE0
:10306000D418010008B5034B034A012103480AF0B4
:10307000FFFB08BD00000420000000201428010010
:1030800008B5D0F89430403B0448036040234360C7
:10309000034B836001210AF0EFFB08BD3C2D0020AB
:1030A00000000B15084AC2F898000B6823F01F03B4
:1030B000034343F01003C2F89C308B6843F00103D4
:1030C000C2F8A030704700BF00ED00E010B5044624
:1030D0000A4BD3F89030C3F30723013B984203D83F
:1030E000FFF7E0FF204610BD0346054A01210548D1
:1030F0000AF016F96FF01500F5E700BF00ED00E0EB
:1031000024280100741B01002DE9F04780460F467A
:103110009A461646002409E02946F0B20AF0B1FAB0
:10312000064610F1160F1AD001360134BC4216DAE9
:1031300004EB440508EB85056A68002AF5D0BAF16E
:10314000000FE9D028460AF08BFA0028E4D1234684
:10315000044A012104480AF0E3F86FF015063046EE
:10316000BDE8F0874C280100741B010010B5034C2A
:1031700001232278FFF7C8FF207010BD913800208E
:1031800008B500230B4A1278FFF7BEFF10F1160FA7
:103190000FD0024606E0084BC3F898200021C3F880
:1031A000A0100132044BD3F89030C3F307239342AD
:1031B000F1DC08BD9138002000ED00E0044B052251
:1031C000C3F89420BFF34F8FBFF36F8F704700BFDA
:1031D00000ED00E0BFF35F8F024B0022C3F89420A4
:1031E000704700BF00ED00E038B51C4B1D681C4B5C
:1031F000D3F89030C3F307239D422BD8FFF7EAFFA3
:10320000002409E0154B5B6804EB440103EB8101EA
:103210002046FFF747FF0134A542F3D81148057057
:103220000AF04EFA10F1160F13D00E4B1A780C4B11
:10323000D3F89030C3F307239A4207DA084BC3F858
:1032400098200021C3F8A0100132F0E7FFF7B6FF85
:10325000002038BD4FF0FF30FBE700BF70280100B1
:1032600000ED00E09138002030B587B00D461146E2
:10327000002400940194029403940494059402227F
:103280008DF80220044A0192049005951A4668467A
:1032900008F0ECFA07B030BD81D8000008B5024B49
:1032A0001B689847002008BD482D0020034B18607C
:1032B000034A937843F0020393707047482D00202F
:1032C0007407002008B5064921F00701C1F100523A
:1032D00002F58022034809F09BF8002008BD00BFDA
:1032E000B78100204C2D0020034BC01A8010034BE7
:1032F00003FB00F0704700BFD00B0020398EE3388D
:1033000000EBC000014B03EB80007047D00B0020A6
:1033100008B501230A4AC2F840354FF08042C2F88E
:1033200078350AF008FC20B14FF080430122C3F841
:1033300038264FF080430122C3F88025002008BDC5
:1033400000E0014030B108B5034B800143F00103B8
:10335000984708BD704700BFA01C010038B504465F
:1033600007F0A6FB20460AF0FFFBA06980B394F8A3
:10337000683013F0010F0ED10DF054FB98B12046C8
:1033800001F0BEFA0546B0B1201D06F047FE07F079
:10339000A7FB284638BD104A0221104809F0B6FFA5
:1033A0006FF07705F0E70E4A01210C4809F0AEFFF7
:1033B0006FF01205E8E72822002104F120000EF04A
:1033C00074F994F8683043F0010384F86830DBE75F
:1033D0006FF01205D8E700BFC8280100EC1B010000
:1033E000F428010038B504460AF0BEFB94F86830B2
:1033F00013F0010F19D094F8683013F0020F1CD1AC
:10340000A0690BF05CFF0546F8B920460AF003FE00
:10341000054600BB94F8683043F0020384F8683036
:10342000201D06F0FBFD284638BD0D4A02210D483F
:1034300009F06CFF4FF0FF35F2E70B4A0221094813
:1034400009F064FF6FF07705EAE7084A01210548B3
:1034500009F05CFFE4E7A0690BF063FFE0E700BF61
:1034600018290100EC1B0100402901006829010016
:1034700038B590F8683013F0020F17D004460AF000
:1034800073FB0021204601F067FBB8B9A0690BF07F
:1034900048FF0546C0B994F868306FF3410384F8DB
:1034A0006830201D06F0BAFD284638BD094A0221C1
:1034B000094809F02BFF6FF07705F5E7074A01216E
:1034C000054809F023FFE1E7054A0121024809F018
:1034D0001DFFE0E784290100EC1B0100AC2901007D
:1034E000CC29010008B58368DB680BB1984708BD9B
:1034F0000EF05EF9024B6FF085021A500020F6E7DD
:103500000C00000008B583689B680BB1984708BDA4
:103510000EF04EF9024B6FF085021A500020F6E7CC
:103520000C00000038B5044680690369D3F8802098
:10353000618C7F291BD8A38CCBB9E38CBBB994F8E1
:10354000203013F01F0F1BD194F82C30022B1FD00A
:1035500012F0080F24D1012384F8353094F82C3070
:10356000012B2AD0012384F82C30002506E00EF030
:103570001FF9154B6FF085021A500025284638BDFB
:103580000EF016F9104B6FF085021A500025F5E782
:103590000EF00EF90C4B4FF0FF321A500025EDE7FC
:1035A000C9B20AF0B9FC05460028D7D0638C074A97
:1035B0000121074809F0B4FEE0E7638C002BD1D16C
:1035C000002584F82C50D9E70C000000F8290100F0
:1035D000CC1B010010B5838C90F8202012F01F0F37
:1035E00004D10446190A13F0FF0F07D00EF0E0F8DB
:1035F0000A4B6FF085021A50002010BD012280692D
:103600000AF0A4FC18B9012384F83530F4E70EF071
:10361000CFF8024B6FF085021A50EDE70C00000066
:1036200070B5044690F82130052B09D0002594F898
:103630002130032B13D0002384F83530284670BD89
:1036400090F8221080690AF067FC05460028EED049
:10365000638C0D4A01210D4809F062FEE7E7638C97
:10366000022BE8D1A68C360A00223146A0690AF066
:103670006DFC05460028DED03346054A012103488B
:1036800009F04EFED7E700BFF8290100CC1B01006E
:103690001C2A010030B583B004460AF06EFA628C31
:1036A000FF2A21D8E38CFBB994F8203013F01F0FC8
:1036B00024D194F82C304BB382BB618C94F8343015
:1036C000994246D0C9B2204601F046FA0546002884
:1036D00033D1628C002A38D1012384F82C300521A3
:1036E00020460BF0ABF806E00EF062F81A4B6FF0D4
:1036F00085021A500025284603B030BD0EF058F858
:10370000154B6FF085021A500025F4E70EF050F8C3
:10371000114B4FF0FF321A500025ECE7D2B20146B0
:1037200020460AF02CFE0028C7D10EF041F80A4BC3
:103730004FF0FF321A500025DDE7638C0090074AF6
:103740000121074809F0F7FDD5E7022384F82C3062
:10375000C5E70025CFE700BF0C0000003C2A0100B0
:10376000CC1B010008B590F8203003F01F03012B9B
:1037700008D00EF01DF81C4B6FF085021A50002384
:10378000184608BDC38C8BB9428CFF2A16D8818C91
:10379000FF2913D890F82C30022B17D00EF008F820
:1037A000114B4FF0FF321A500023E9E70EF000F8FA
:1037B0000D4B6FF085021A500023E1E70DF0F8FF82
:1037C000094B6FF085021A500023D9E7D2B2C9B273
:1037D0000AF021FF034610F1020FD1D10DF0E8FFEE
:1037E000014A13500023CBE70C00000038B5838C4E
:1037F000C28C7AB90446DDB290F82C209AB1012A25
:1038000019D094F8202012F01F021ED0022A32D0C4
:10381000002306E00DF0CCFF224B6FF085021A501A
:103820000023184638BD0DF0C3FF1E4B4FF0FF328A
:103830001A500023F5E7002BE3D00DF0B9FF194B28
:103840004FF0FF321A500023EBE723B9638C012BB2
:1038500009D00023E5E70DF0ABFF124B4FF0FF322C
:103860001A500023DDE794F868306FF3C30384F83F
:1038700068300023D5E7638C0BB10023D1E72946DC
:10388000204601F023FD03460DF092FF054A135038
:10389000B3F1FF3FC5D00022294620460AF077FB4E
:1038A0000023BEE70C00000070B5838CC28C32BBD5
:1038B0000446DEB2418C022914BF002501253DBB20
:1038C00090F82C2042B3012A2DD094F8202012F039
:1038D0001F0231D0022A19D1C1B93146204601F068
:1038E000DBFC03460DF064FF1D4A1350B3F1FF3FAC
:1038F00033D00122314620460AF049FB06E00DF0A4
:1039000057FF174B6FF085021A500025284670BDEF
:10391000FFF760FE0546F9E70DF04AFF104B4FF048
:10392000FF321A50F2E7002BCFD00DF041FF0C4BC5
:103930004FF0FF321A50E9E743B90129E6D194F874
:10394000683043F0080384F86830DFE70DF030FF9B
:10395000034B4FF0FF321A50D8E71D46D6E700BFA1
:103960000C00000008B590F82130013B0A2B16D856
:10397000DFE803F00F1512150615151509150C00D3
:10398000FFF7D0FD08BDFFF785FEFBE7FFF7EAFE76
:10399000F8E7FFF72BFFF5E7FFF786FFF2E70DF0FB
:1039A00007FF034B6FF085021A500020EAE700BFC3
:1039B0000C00000070B5838CC28C022A07D00DF079
:1039C000F7FE274B6FF085021A50002070BD0446A9
:1039D0000D46D9B290F82C20BAB1012A1CD094F827
:1039E000202012F01F0220D0022A2CD000260C35F5
:1039F00028460AF097F8E38C83422CD90DF0D8FEC4
:103A0000174B6FF00B021A50DFE70DF0D1FE144B8D
:103A10004FF0FF321A50D8E7002BE0D00DF0C8FE6F
:103A20000F4B4FF0FF321A50CFE72BB994F8686074
:103A3000B60806F00206DAE70DF0BAFE084B4FF0C2
:103A4000FF321A50C1E720460AF0D0FE08B1012625
:103A5000CDE70026CBE7314628460AF04FF8B4E719
:103A60000C00000070B50446C68C01F10C05284618
:103A70000AF058F886420DD2E68C20460AF07DF80E
:103A800068B1012815D00DF093FE0B4B6FF0850245
:103A90001A500CE028460AF045F80646EDE7E16EBC
:103AA0000A78B24228BF324628460AF015F80020AC
:103AB00070BD216FF4E700BF0C000000F0B583B0CB
:103AC00005460F460AF059F840B1012814D00DF010
:103AD0006FFE304B6FF085021A500AE0EB6E5B8888
:103AE000B3F5007F0AD80DF063FE2A4B6FF0850214
:103AF0001A50002003B0F0BD2B6FF0E7694628464E
:103B00000AF0BEF90C3738460AF00CF8BDF802602E
:103B1000EB8C9E4228BF1E46864215D89DF8002099
:103B2000B24228BF32466946384609F0D5FF052E15
:103B300094BFB61B053E002EDBD005F14803AC6CEC
:103B4000A34216D1002414E0384609F0EBFF0646E4
:103B5000E4E7227DB24228BF32462169384609F0A7
:103B6000BBFF237D9E4294BFB61BF61A36B9C0E751
:103B70000024002CBDD0637D0F2BEAD02246EB6CD5
:103B8000A342F5D02468002CF3D0002AF1D11446CA
:103B9000EFE700BF0C00000070B584B004460D468E
:103BA00009F0EBFF48BB236F0A228DF804200622A0
:103BB0008DF805205A88ADF806201A798DF808206E
:103BC0005A798DF809209A798DF80A20DA798DF8DA
:103BD0000B205B7C8DF80C3000238DF80D302046D7
:103BE00009F0D0FF01280AD00DF0E2FD0F4B6FF075
:103BF00085021A50002004B070BDE36ED4E7E68C55
:103C00000C35284609F08EFFB0420AD9E08C9DF8A9
:103C10000420824228BF024601A9284609F05CFF21
:103C2000E8E7284609F07EFFF1E700BF0C0000003E
:103C30002DE9F04385B08046894615461C4609F0BB
:103C40009CFF07466CB1404609F09CFF012806D056
:103C50000DF0AEFD3A4B6FF085021A5066E017BBCF
:103C600007466A1CD2B2394640460AF04AFB06466D
:103C7000D8B13CB3426801AB1068516803C3127AF3
:103C80001A7007238DF8053001AC09F10C052846A0
:103C900009F048FF2278824216D82146284609F0CA
:103CA0001BFFF6682EE00027DBE76B1C254A01218D
:103CB000254809F035FB0DF07BFD214B6FF08502A7
:103CC0001A5033E04468E0E7284609F02BFF02462B
:103CD000E3E754F8041B284609F0FEFE23686BB1A5
:103CE0001B785BB1284609F01DFF23681A788242D1
:103CF000EFD9284609F016FF82B2EAE73346366864
:103D000006B15BB166B1706883681B6B002BF5D0A0
:103D10003946984704460028E0D1EFE71E46F1E710
:103D2000B9F81010B8F82630994203D8002005B031
:103D3000BDE8F083C91A284609F0E9FEF6E700BF9E
:103D40000C000000602A0100CC1B010070B590F847
:103D5000346090F82C305BB10446C38C012B0ED03C
:103D60000DF026FD104B6FF085021A50002070BD3B
:103D70000DF01EFD0C4B4FF0FF321A50F6E701F12B
:103D80000C05284609F0CEFEE38C834206D90DF0DF
:103D90000FFD054B6FF00B021A50E7E7314628463E
:103DA00009F0A5FEE2E700BF0C00000070B590F836
:103DB000203003F01F03012B07D00DF0F9FC254B39
:103DC0004FF0FF321A50002070BD04460D460AF035
:103DD000A7FAB0B14268A38CFF2B19D8127993428D
:103DE00016D8DBB20F2B1AD8234493F83660E38C35
:103DF000012B1BD00DF0DCFC164B6FF085021A5026
:103E0000E1E70DF0D5FC134B4FF0FF321A50DAE723
:103E10000DF0CEFC0F4B6FF085021A50D3E70DF07A
:103E2000C7FC0C4B6FF085021A50CCE70C352846C6
:103E300009F078FEE38C984206D20DF0B9FC054BF0
:103E40006FF00B021A50BEE73146284609F04FFECC
:103E5000B9E700BF0C000000F8B504460E4600F1BB
:103E6000200590F8211009F0C1FE80B107462846D0
:103E700009F0FBFF90B13B6983B1324629462046E9
:103E8000984702460DF094FC104B1A501CE00DF0C0
:103E90008FFC0E4B6FF085021A5015E0284609F092
:103EA000D9FF58B1FB684BB13246294620469847A6
:103EB00002460DF07DFC054B1A5005E00DF078FC34
:103EC000024B6FF085021A500020F8BD0C00000074
:103ED00070B584B00546102168460BF04CFE061EF6
:103EE00001DB002319E016F1580F19D10E4A012108
:103EF0000E4809F00BFA13E003F110026A4412F8BD
:103F0000102C100959000A4C205C05F8130002F02F
:103F10000F020131A25C6A540133B342ECDB76003C
:103F2000304604B070BD00BF882A0100CC1B0100E0
:103F3000EC2B0100F0B58BB00E4615460023ADF812
:103F40000430437D8DF805308268244B1340244AA9
:103F500093421AD0037D8DF8043007690C36304641
:103F600009F0E0FD9DF804309D4200D91D46A842AD
:103F70001DD32C46022D28BF0224224601A930461B
:103F800009F0AAFD2D1B00241BE002A8FFF7A0FFEB
:103F9000002805DB013040008DF8040002AFDDE7AA
:103FA0000DF006FC0F4B6FF085021A500FE0304603
:103FB00009F0B8FD0546DCE7395D304609F09EFDA5
:103FC0000134B4EB550FF7D315F0010F01D10BB04D
:103FD000F0BD395D304609F08AFDF8E700FF0200C8
:103FE000000302000C00000070B582B006460D46CA
:103FF000032109F098FE08B3044609F025FF40BBF1
:10400000237D8DF80430637D8DF8053023691B888E
:10401000ADF80630F48C0C35284609F083FD844257
:1040200013D2F08C9DF80420824228BF024601A9D9
:10403000284609F051FD002002B070BD0DF0B8FB1C
:10404000074B6FF085021A50F5E7284609F06AFD24
:10405000E8E7F28C29462046FFF76CFFEBE700BF4C
:104060000C00000008B5428C90F820C01CF01F0F17
:104070000ED1130AD2B2013B0E2B20D8DFE803F099
:104080000B0E161F1F19121F1F1F1F1F1F1F1C00A3
:1040900009F08BFF08BDFFF7E5FCFBE70023FFF706
:1040A000C7FDF7E70123FFF7C3FDF3E7FFF79CFF29
:1040B000F0E7FFF771FDEDE7FFF700FDEAE70DF030
:1040C00077FB034B6FF085021A500020E2E700BF38
:1040D0000C00000008B590F821300A2B13D8DFE857
:1040E00003F006121212121209120C120F00FFF73F
:1040F00061FC08BDFFF7B6FFFBE7FFF727FEF8E717
:10410000FFF754FEF5E70DF053FB034B6FF085020C
:104110001A500020EDE700BF0C00000038B504463F
:104120000D4600F120010DF043FB154B0022C2505B
:1041300094F82020C2F3411312F0600F09D003332A
:1041400003F00303012B12D82946204609F02DFF66
:1041500038BD084609F089FE20B129462046FFF700
:1041600001FCF5E729462046FFF7B4FFF0E70DF024
:104170001FFB034B6FF085021A500020E8E700BFD9
:104180000C0000000A8A072A40F2ED80F0B583B0E7
:1041900000AF03462030CA68146852681C6242604F
:1041A000DD8C4C6864B109F060FE002800F08E8060
:1041B000002D49D0637E13F0020F09D000208BE060
:1041C0006A4A01216A4809F0A1F86FF03C0083E0D7
:1041D0006D4688B06B4613F110022FD00C213AB116
:1041E0000846042901DD634E5E61082800DD9C61FC
:1041F0000B2926DD0C243AB1032139710021797194
:10420000B971F9717868186100216FF300016FF3DB
:1042100041016FF382016FF3C501012363F388113C
:10422000C4F30A0464F353216FF31F510023504871
:10423000FDF74CFCAD466FF015004DE06FF000410E
:10424000CDE76FF01B04D6E7637E13F0040F01D0B7
:10425000002041E06D4688B06B4613F110022FD06C
:104260000C213AB10846042901DD434E5E6108285D
:1042700000DD9C610B2926DD0C243AB10321397144
:1042800000217971B971F9717868186100216FF3B3
:1042900000016FF341016FF382016FF3C501012348
:1042A00063F38811C4F30A0464F353216FF31F51BD
:1042B00000232F48FDF70AFCAD466FF015000BE018
:1042C0006FF00041CDE76FF01B04D6E73DB1637E90
:1042D00013F0020F0BD000200C37BD46F0BD274A6B
:1042E0000121234809F012F86FF08500F4E76D46CC
:1042F00088B06B4613F110022FD00C213AB108465A
:10430000042901DD1B4E5E61082800DD9C610B293C
:1043100026DD0C243AB10321397100217971B9717C
:10432000F9717868186100216FF300016FF34101A2
:104330006FF382016FF3C501012363F38811C4F3A6
:104340000A0363F353216FF31F5100230848FDF75D
:10435000BDFBAD466FF01500BEE76FF00041CDE745
:104360006FF01B04D6E76FF015007047AC2A010010
:10437000CC1B0100D02A0100E02A0100F42A010030
:104380002DE9F04182B00B7E33F080071AD104464C
:104390000D46164600F1200802B312F10C0F1DD095
:1043A0004A7E12F0010F19D116F1710F12D000964A
:1043B0005F4A01215F4808F0BEFF284609F03CFB38
:1043C00037462FE05C4A01215A4808F09FFF6FF002
:1043D000040727E0084609F02FFB23E06A7E12F06D
:1043E000010F00D013B312F0040201D0002B6AD0E9
:1043F0000AB1802B76D0404609F02CFD002840F011
:104400008880E38C002B00F08C8016F10C0F00F0FC
:1044100086808021A0690AF041FE074600212046DF
:1044200009F02AFD384602B0BDE8F0812946204651
:10443000FFF7A8FE00BB2946002009F03BFB05461C
:1044400018B301462046FFF769FE074618BB0DF07A
:10445000AFF93A4B1B5813BB0121204609F00CFD64
:10446000404609F002FD08B1E38CE3B92946204635
:1044700000F0ECFE0746D5E7314A01212D4808F04F
:1044800045FF284609F0D8FAB5E72E4A0121294808
:1044900008F03CFFAFE7284609F0CEFAC2E728460D
:1044A00009F0CAFAA7E7284609F018FD014620B12D
:1044B000204600F0CBFE0746B4E7234A01211D4801
:1044C00008F024FF97E7204609F0D8FC012803D123
:1044D000284609F0B1FAA5E71C4A0221154808F060
:1044E00015FFF5E7284609F0A7FA204609F0C6FCB3
:1044F000012808D194F83570002F93D02046FFF79B
:104500008FF807468EE7124A02210A4808F0FEFE9D
:1045100088E78021A0690AF0C1FD07467EE70021F7
:1045200078E78021A0690AF0B9FD074676E700BF69
:104530003C2B0100CC1B0100182B01000C000000DB
:104540006C2B0100AC2A0100842B0100A42B01007C
:10455000C82B010008B500220023024805F0F0FB3B
:1045600008BD00BF780B002038B590F82C30022B26
:1045700000D038BD0D4609F0D3FE08B1C4680EE086
:10458000164A0121164808F0C1FEF2E76068836808
:104590005B690BB198470BE023464CB91C46002CD5
:1045A000E7D02B78032BF1D0052B0FD0022B06D0B0
:1045B0002368002BF2D0002CF0D12346EEE7606890
:1045C00083689B69002BF3D09847F1E760688368A4
:1045D000DB69002BECD09847EAE700BF0C2C010008
:1045E000DC1B010038B5044690F868306FF3820395
:1045F00080F868300021806909F023FD00BB0021AC
:10460000204600F0A9FA054608BB802120460AF0A2
:10461000E8F810BBA0690AF039FE022823D094F80C
:1046200068306FF3051384F86830002284F82C207A
:1046300094F8683062F3C30384F86830284638BDC4
:1046400005460D4A01210D4808F060FEF6E70C4AC8
:1046500001210A4808F05AFEF0E70A4A01210748FA
:1046600008F054FED6E794F86830012262F305138F
:1046700084F86830D9E700BF3C2C0100DC1B010046
:104680006C2C0100982C0100F0B583B000AF0D46F2
:104690004E68337E33F080034AD1D6F81E2031466F
:1046A000FFF76EFE0446002C3ED096F818C06D68E9
:1046B0006E468AB06B4613F1100240D0142182B1CD
:1046C0000846042903DDDFF884E0C3F814E0082875
:1046D00000DD9C610C2801DDC3F81CC0102800DD42
:1046E0001D6213292EDD14253AB1052139710021EF
:1046F0007971B971F9717868186100216FF300015F
:104700006FF341016FF382016FF3C501012363F37E
:104710008811C5F30A0565F353216FF31F51002378
:104720000B48FDF7D3F9B54620460C37BD46F0BD22
:10473000D6F81E20314609F08EFE0446B3E76FF02E
:104740000041BCE76FF01B05CEE700BFB82C0100AD
:10475000DC1B010030B585B03BE000220121204682
:104760000AF06CF835E00022114620460AF066F89F
:104770002FE094F8683043F0040384F8683001A90E
:104780002046FFF7F1FE0022032120460AF056F8EA
:104790001FE094F868306FF3820384F8683001A951
:1047A0002046FFF7E1FE0022022120460AF046F8EB
:1047B0000FE001A92046FFF7D7FE0AE02046FFF7E9
:1047C00011FF05460022042120460AF037F8002D8B
:1047D00033D14FF0FF324FF0FF3301A91A4805F0F3
:1047E0001BFB039B1B69D3F89C409DF80430072BEF
:1047F000EFD801A252F823F0674700005B470000A2
:104800009347000073470000BD470000B347000016
:10481000194800002548000001A92046FFF734FF91
:104820000546D4E7094A0121094808F06FFD029ABC
:10483000062120460AF002F8CBE72A460721204647
:1048400009F0FCFFC5E700BF780B0020E42C010055
:10485000DC1B010010B588B0214C00220023CDE9FB
:104860000623002304936FF007020392029301933F
:1048700000931C4B4FF480621B4920460CF04BFC0C
:104880001A49204605F036FE194B0EE003F11402DA
:104890000021BFF35B8F52E8000F42E8001CBCF11F
:1048A000000FF8D1BFF35B8F1833124A9342EDD358
:1048B000114B0EE003F114020021BFF35B8F52E8AD
:1048C000000F42E8001CBCF1000FF8D1BFF35B8F72
:1048D00018330A4A9342EDD3002008B010BD00BF40
:1048E000201E00205547000000490020EC1E01005A
:1048F000000D0020180D0020180D0020300D0020A4
:1049000038B5044602460D4980690AF030FD48B9C1
:10491000002384F83430204600F0DEF8054640B924
:10492000284638BD0546064A0121064808F0EEFC37
:10493000F6E7A0690AF052FDF2E700BF5545000016
:10494000F42C0100DC1B01002DE9F0410E46154658
:10495000012424E03268DA4012F0010F35D03946E4
:10496000304609F09CFB3946284609F098FB14F0C4
:10497000800F33D104F07F022B68D34013F0010F76
:104980000CD03368D34013F0010F2BD04146304692
:1049900009F085FB4146284609F081FB01340F2CC4
:1049A00029D8286840B35FFA84F864F07F03DFB247
:1049B000194603F07F0303F11002D04010F0010FFD
:1049C000D5D00029C6DA1346C4E73B460B4A01217D
:1049D0000B4808F0A5FC6FF015000DE004F07F0215
:1049E0001032C9E7E3B2054A0121054808F098FCF6
:1049F0006FF0150000E00020BDE8F081202D0100DF
:104A0000041C01002DE9F04784B007460E4690468D
:104A1000D2F80490002503958DF80B50D468002C33
:104A20002FD00DF10B03009303AB224631463846DD
:104A300009F0B6FB824698B9606883689B6AABB19F
:104A400098478246A0B93146606809F0CBFC05441E
:104A500023462468002CE2D0002BE0D11C46DEE780
:104A60001A4A01211A4808F051FC06E06FF0850A45
:104A7000184A0121164808F049FC504604B0BDE828
:104A8000F0870935ADB289F802502D0A89F8035034
:104A90009DF80B3089F80430D8F80C4094B1E368E5
:104AA000A36004F10C0203A93846FFF74DFF8246CC
:104AB0000028E2D123462468002CEFD0002BEDD152
:104AC0001C46EBE74FF0000AD7E700BF402D01007E
:104AD000041C0100642D010070B5054609F0F5FACB
:104AE000AC6DBCB1224601212846FFF78BFF06467C
:104AF00038B923462468002CF3D0002BF1D11C4692
:104B0000EFE763685B79114A0121114808F008FC5E
:104B1000304670BD2C6DB4B1224600212846FFF707
:104B200071FF064638B923462468002CF3D0002BC9
:104B3000F1D11C46EFE763685B79064A012104481E
:104B400008F0EEFBE4E70026E2E700BF882D010055
:104B5000041C0100AC2D01002DE9F04104460D4676
:104B600009F00BF8064694F8343033B98DB984F85F
:104B7000345000273846BDE8F081204609F0E1FBBB
:104B800007460028F2D00F4A01210F4808F0BEFB6B
:104B9000F0E72A463146204609F0B3FB804670B163
:104BA00002463146204609F00AFD07460028E1D1B9
:104BB00084F834500121404609F07DFBDAE76FF0BC
:104BC0003C07D7E7AC290100C41B01002DE9F041E7
:104BD00006460D461446576809F08AFB96F8683079
:104BE00013F0010F1BD1012D21D0FB7913F0200F01
:104BF00006D0B3691B69D3F8803013F0020F23D0BD
:104C00002946304609F04EFB80466DB3012D39D15F
:104C1000336D002B43D09C421ED01B68F9E7414AFC
:104C20000121414808F072FB6FF00F0531E030467A
:104C300008F0A8FF0028D8D13C4A01213A4808F0E2
:104C400065FB6FF0850524E0394A0121364808F0FC
:104C50005DFB6FF085051CE0364A0121324808F003
:104C600055FB6FF0150514E0B36DC3B19C4201D044
:104C70001B68FAE7304A01212B4808F047FB6FF028
:104C8000150506E02D4A0121274808F03FFB6FF08B
:104C90008505301D05F0C2F92846BDE8F0812146A2
:104CA000404609F0EFFAA8B9E5B9F36E5B7C013331
:104CB000DBB262685371DDB9F26E5374A16809B357
:104CC000304609F058F80546B0B9A06809F0BCF8BC
:104CD000B87118E063685B79194A0221124808F03C
:104CE0001FFBEBE7012D01D1336FDFE70023DEE788
:104CF000012DE3D1326FE0E7124A01210A4808F0A2
:104D000005FBC6E7002500232360D8F804301BB15B
:104D10001C60C8F80440BCE7C8F80440C8F800406C
:104D2000B7E700BF002E0100C41B0100242E0100C4
:104D3000DC2D0100442E0100642E0100842E0100B0
:104D4000A42E0100C42E0100F0B583B000AF0546CB
:104D5000D1B101291AD1384C384B9C4216D2636824
:104D600019682846FBF7E6F900285DD01834F3E708
:104D70001834334B9C4209D2636819682846FBF704
:104D8000D9F90028F4D14FE02E4CF2E76E4600230B
:104D90003B7102237B7188B06C4614F1100211D074
:104DA0000E201AB1042801DD274B636100233B70FC
:104DB00002237B709AB1082800DDA56104F11C0371
:104DC00000210AE06FF00040EBE701F108053D44E7
:104DD00015F8085C03F8015B01310129F5D90D28AC
:104DE00026DD0E2342B10321397100217971B97199
:104DF0000121F9717868206100216FF300016FF3E0
:104E000041016FF382016FF3C501012060F3881146
:104E1000C3F30A0363F353216FF31F5100230B48BD
:104E2000FCF754FEB546002420460C37BD46F0BDC5
:104E30006FF01B03D6E700BF180D0020300D0020D7
:104E4000180D0020000D0020002F0100D41B0100D0
:104E500070B5054601F07F0311F0800F12D10124D7
:104E60009C4095F82C30022B10D195F834602846E0
:104E700008F083FE01463246284609F042FA58B14E
:104E8000C0680BE0103301249C40EAE7074A012187
:104E9000074808F03BFA002070BD00680028FBD0EE
:104EA00083681C42F8D10028F7D1F7E7202F0100D2
:104EB000D41B01002DE9F8430446084615461F4659
:104EC0001146FFF741FF00284AD00646204609F068
:104ED00073FA94F8683013F0010F29D1D6F80490D2
:104EE00006F114080021404609F06FFA40BBD9F8DA
:104EF00004300BB1A3422BD13B462A463146204613
:104F000009F044FA054668B9BFF35B8F58E8003FE3
:104F100043F0010348E80032002AF7D1BFF35B8F6A
:104F2000C9F80440201D05F079F82846BDE8F8834B
:104F30000D4A01210D4808F0E9F96FF00F05F1E77E
:104F40000B4A0221094808F0E1F96FF00F05E9E783
:104F5000084A0121054808F0D9F96FF00F05E1E78B
:104F60006FF01205E1E700BF002E0100D41B010025
:104F7000482F01006C2F01002DE9F04383B000AFF2
:104F800080460D461646012978D000297BD16E4C0B
:104F90006E498C4280F0D180616833462A460968A8
:104FA0004046FFF787FF814600286FD11834EFE7AE
:104FB0006FF000404CE001F108063E4416F8086C22
:104FC00003F8016B01310129F5D9112822DD1223E3
:104FD00042B10421397100217971B9710121F9714E
:104FE0007868286100216FF300016FF341016FF3CE
:104FF00082016FF3C501012060F38811C3F30A0336
:1050000063F353216FF31F5100235148FCF75EFDFA
:10501000A54694E06FF01B03DAE718344D4B9C4231
:105020002ED2616833462A4609684046FFF742FFA0
:1050300081460028F1D0636819686C4600233B71F3
:1050400002237B718AB06D4615F11002B0D0122098
:105050001AB1042801DD404B6B6100233B70022331
:105060007B70002AB1D00346082800DDA9610C2B13
:1050700000DDEE6105F120030021A4E7374CCDE708
:105080004FF000095BE06FF0850958E0636819682C
:105090006C4600233B7102237B718AB06D4615F18B
:1050A000100215D012201AB1042801DD2C4B6B61BF
:1050B00000233B7002237B70BAB10346082800DD51
:1050C000A9610C2B00DDEE6105F1200300210AE04F
:1050D0006FF00040E7E701F108063E4416F8086C5F
:1050E00003F8016B01310129F5D9112822DD1223C2
:1050F00042B10421397100217971B9710121F9712D
:105100007868286100216FF300016FF341016FF3AC
:1051100082016FF3C501012060F38811C3F30A0314
:1051200063F353216FF31F5100230948FCF7CEFCB2
:10513000A54604E06FF01B03DAE74FF0000948468C
:105140000C37BD46BDE8F083000D0020180D00208F
:10515000D41B0100300D0020A42F0100180D0020E9
:10516000D42F01002DE9F04182B000AF0C461E465D
:1051700092F8028001294CD0022953D000295ED038
:105180006FF08505D6F800C06E468AB06B4613F105
:1051900010024ED01820A2B10146042803DDDFF82A
:1051A000A4E0C3F814E0082900DD9C610C2901DDAE
:1051B000C3F81C80102901DDC3F820C0142900DDCC
:1051C0005D62172838DD18243AB1062139710021B3
:1051D0007971B971F9717868186100216FF3000174
:1051E0006FF341016FF382016FF3C501012363F394
:1051F0008811C4F30A0464F353216FF31F51002391
:105200001148FCF763FCB54628460837BD46BDE8A3
:10521000F08111461A46806909F094FA0546002D7E
:10522000F2D0AFE71A464146806909F0A0FA054678
:10523000F5E76FF00040AEE76FF01B04C4E7002510
:10524000E2E700BF10300100FC1B010038B50B7E07
:1052500033F0800219D105460C4613F0800F04D1BB
:105260002146A86909F081FF38BD08F0B3FC20B9D8
:105270002146284609F03FFAF2E7054A0121054890
:1052800008F044F84FF0FF30EEE76FF01500EBE761
:1052900050300100F41B010070B504460D468069D2
:1052A00009F0FCFE064630B9294604F1300009F049
:1052B000F8F9304670BD2B46024A0221024808F038
:1052C0002FF8F6E764300100F41B010070B50446C6
:1052D0000D46806909F013FF064630B9294604F1EE
:1052E000300009F0F2F9304670BD2B46024A022127
:1052F000024808F015F8F6E77C300100F41B0100C5
:1053000010B584B004466B4683E8060000220023F3
:1053100003A9154804F0E2FC00BB039B5C60083362
:105320006A4692E8030083E80300EFF3118120232B
:1053300083F31288BFF36F8F039B00221A600B4A1E
:1053400052686AB11360094A536081F31188BFF350
:105350006F8F00220023064805F0AEF804B010BDA0
:10536000024A53601360F0E7D00A0020582D002055
:10537000C004002038B50546EFF31182202383F3E3
:105380001288BFF36F8F1D4B1B6882F31188BFF328
:105390006F8F5B6893F8683013F0010F25D0EFF33F
:1053A0001183202282F31288BFF36F8F134A14688F
:1053B00024B121681160526894421BD083F3118894
:1053C000BFF36F8F44B16068C36904F10801984767
:1053D00021460B480BF0FDFB084B1B6823B1002254
:1053E0000023284605F068F838BD2122002305F087
:1053F0006BF8F9E7014A5160E0E700BF582D002043
:10540000D00A002000B501690CF0D2F9094B1A58F6
:10541000094B9A4202D000205DF804FB91F84C3011
:105420000BB90020F8E78A6CD069536852699B1A5F
:10543000C01AF1E708000000D01E002000B5016985
:105440000CF0B6F9074B1A58074B9A4202D00020CD
:105450005DF804FB91F844300BB90020F8E7012017
:10546000F6E700BF08000000D01E002000B501696B
:105470000CF09EF9094B1A58094B9A4202D00020B1
:105480005DF804FB91F84C3023B991F844301BB916
:105490000020F5E70120F3E70120F1E70800000014
:1054A000D01E002038B504690CF082F9174B1A5849
:1054B000174B9A4201D0002038BD04F19805022113
:1054C000284609F067FA40B1236C1A699B689A4232
:1054D00003D0012384F8443002E0002384F84430F0
:1054E0000321284609F056FA50B1A26CD1695368DD
:1054F00052699B1A8B4203D0012084F84C00DBE7F1
:10550000002384F84C300120D6E700BF08000000DB
:10551000D01E002008B51346026910694A78212A76
:1055200007D00CF045F90C4B6FF085021A500020A3
:1055300008BD53B1CA88072A28BF072200F110010D
:1055400003F10C0008F0C8FAF1E70CF031F9024B56
:105550006FF00B021A50EAE70C00000038B505693D
:1055600005F19804BFF35B8F54E8003F43F0040358
:1055700044E80032002AF7D1BFF35B8F2B6C1A6925
:105580009B689A4205D10421204609F003FA30B104
:1055900038BD05F1300105480BF033FDF3E705F1A7
:1055A000880102480BF02DFDF2E700BFD01E00205D
:1055B00008B5016901F19803BFF35B8F53E8000F51
:1055C00040F0080043E80002002AF7D1BFF35B8FE8
:1055D0008A6CD069536852699B1A834200D108BD16
:1055E000303102480BF00DFDF9E700BFD01E00205E
:1055F00010B504690CF0DCF8084B1858084B9842B9
:1056000001D0002010BD206C07F0A2FD034610B1B0
:10561000012284F845201846F4E700BF0800000086
:10562000D01E002010B50469206C026983689A427C
:105630000AD0012207F08CFD48B104F18801054829
:105640000BF0DFFC002010BD4FF0FF30FBE74FF008
:10565000FF30F8E7D01E002038B504690CF0A8F838
:105660000D4B18580D4B984201D0002038BDEFF378
:105670001185202383F31288BFF36F8FA06C07F08E
:105680000CFD85F31188BFF36F8F0028EED0012346
:1056900084F84D30EAE700BF08000000D01E00206B
:1056A00070B50669356905F19804BFF35B8F54E85E
:1056B000003F43F0010344E80032002AF7D1BFF372
:1056C0005B8F0221204609F065F988B90321204645
:1056D00009F060F958B1AA6CD169536852699B1AF4
:1056E0008B4209D005F1300107480BF08AFC70BDF0
:1056F0003046FFF733FFE9E70022002305F15801A8
:1057000001480BF09AFCF2E7D01E002030B583B0C0
:105710008DF80710046906E0164B01221A7020E08C
:10572000012009F08AFAEFF31185202383F3128810
:10573000BFF36F8F01220DF10701A06C07F0ADFCE4
:1057400085F31188BFF36F8F01280AD00BF0D0FCCE
:1057500018B994F85030002BE2D1064B1B78002B7F
:10576000DAD02122002304F1580103480BF065FC34
:1057700003B030BD92380020D01E00202DE9F0414A
:1057800082B004460E46476803691D69002A3DD071
:1057900012F1710F14D196F81880204609F016F90D
:1057A000804516D096F81880204609F01EF98045ED
:1057B0001ED03146384609F00FF802B0BDE8F0813E
:1057C0000B7E0A8A00923F4A01213F4807F0B3FD51
:1057D000E1E705F19803BFF35B8F53E8001F21F069
:1057E000100143E80012002AF7D1BFF35B8FD9E71D
:1057F0009835BFF35B8F55E8003F23F0200345E861
:105800000032002AF7D1BFF35B8FD2E791F81880FE
:1058100009F0DCF8804512D096F81880204609F08F
:10582000E4F880452CD096F81880204609F0BFF89F
:105830008045BED105F19C0004F080FCB9E7328AB6
:10584000F168286C07F029FC30B1AB6A23B105F18F
:1058500030011E480BF0D5FB05F19803BFF35B8FB9
:1058600053E8001F21F0100143E80012002AF7D18D
:10587000BFF35B8F05F1880114480BF0C2FBCBE747
:10588000AB6A23B105F1300110480BF0BAFB05F10A
:105890009803BFF35B8F53E8001F21F0200143E81A
:1058A0000012002AF7D1BFF35B8FAB6C1A699B68BB
:1058B0009A42B8D00022002305F1580103480BF0AA
:1058C000BCFBB0E7AC300100BC1B0100D01E0020C7
:1058D00038B54568046920694B78202B08D0222B05
:1058E0001FD00BF065FF144B6FF085021A5021E0BA
:1058F000CB88072B06D00BF05BFF0F4B6FF08502B8
:105900001A5017E0D3681A6802619A889B798282DC
:10591000837508F0BAFF22460821284608F09DFF4B
:1059200008E04B88038308F0F7FF22460921284648
:1059300008F093FF002038BD0C00000038B5056961
:10594000AB6C0024DC609C605C609C615C611C61F1
:105950002B6CDC609C605C609C615C611C61084934
:1059600005F158000BF05DFB064905F188000BF0CE
:105970002DFB054905F130000BF028FB204638BD12
:10598000495B0000AD5A00008D59000070B550F819
:10599000306C50F8083C6BB30446002343774375E2
:1059A0000375037700F168050221284608F0F2FF2D
:1059B00030B354F8083C54F8041C30699847637DB0
:1059C0002BBB637F4BBB0221284608F0E3FF20B1CD
:1059D00023691A699B689A422DD10321284608F051
:1059E000D9FF30B1A269D169536852699B1A8B42C1
:1059F00026D170BD154A0121154807F087FCF8E74C
:105A00000321284608F0C6FF0028D8D0D1E704F1CA
:105A1000580110480BF0F5FAD3E70521284608F0A5
:105A2000B9FF0028CFD10022002304F12801094842
:105A30000BF003FBC7E7214606480BF0E2FACCE780
:105A4000214604480BF0DDFAD3E700BFD030010057
:105A5000BC1B0100D01E002030B583B00A4C20468C
:105A60000BF0D9FA002500954FF0FF334FF4806218
:105A70000649204604F0DCFC0549204604F03AFDC6
:105A8000284603B030BD00BFD01E0020404D00208E
:105A9000E830010010B5044600220023024807F058
:105AA000C5FF00B1047610BDD00B002070B50446D0
:105AB00050F8886C00F110050021284608F06AFFB4
:105AC00000B970BD0121284608F064FF0028F8D114
:105AD00054F8482CD469536852699B1AE41A30462A
